:020000040000FA
:10000000500B0020D5000000EF0000000D21000083
:1000100000000000000000000000000000000000E0
:10002000000000000000000000000000F3000000DD
:100030000000000000000000F5000000254E000058
:10004000013A0000093A0000113A0000193A000094
:10005000151800003553000079530000815300004B
:10006000552E00005D2E0000CD4A0000D54A00004C
:1000700069260000712600001D5300002553000072
:100080002D5300004D2E00003D530000455300004D
:100090004D530000F13900001D5C000039410000A3
:1000A000EB090000F9390000655B00006D5B0000A2
:1000B000652E0000072E0000511900007115000088
:1000C0000348854600F05CFC00480047EB6A0000EE
:1000D000500B002009480A4A002100A1814200D9A2
:1000E0000244084802600848804708480047FEE785
:1000F000FEE7FEE7FEE7FEE7FEE700000000002067
:100100000000000008ED00E015530000C1000000F1
:1001100030B50B46014600202022012409E00D469F
:10012000D5409D4205D31D469540491B2546954027
:1001300040191546521E002DF1DC30BD70B500246B
:100140002546002801DA01244042002901DA012570
:100150004942FFF7DDFFAC4200D04042002C00D006
:10016000494270BD03460B439B0703D009E008C911
:10017000121F08C0042AFAD203E00B780370401C57
:10018000491C521EF9D27047F8B502464A40D40FB6
:1001900042004B0052085B089A4202D202460846CF
:1001A00011464A0023D0C30D4A00DDB2120EAD1A2B
:1001B000202D35DA49020126490AF6058A19002C54
:1001C00000D0524220214F1B1146B9402A4110183D
:1001D000C20D9A4221D0002C17D0012D08DCDA057F
:1001E000801AD20F8019D207DBB200F0D2F9F8BD25
:1001F000DA05801A012340001B06C01880185A42F5
:100200008018CA0F1043490007E04908C20711438C
:10021000DA05801A80194008801800F0B2F9F8BD9C
:1002200061000122511A001BF7E70122D207514059
:10023000AAE70122D2075040A6E770B502464A401D
:10024000D50F40004A00ED0740085208002814D09E
:10025000002A12D0C40DD30D41020120C005520264
:10026000490A520AE41A091812187D34914201D33E
:10027000641C00E04900002C01DA002070BD00235E
:10028000914201D3891A0343400849000028F7D15D
:1002900000290AD0914202D10121C90705E091420B
:1002A00001D2012101E00121C943E005C018401934
:1002B00000F067F970BD0000F0B51FB488B00B996D
:1002C0000998002448400999C00F4900490809913C
:1002D000C0070B990090490049080B9109990898AB
:1002E000A64608431CD00B990A98084318D00998D1
:1002F00001244000420D4800410D099824050003E7
:10030000000B204309900B980003000B20430B9037
:1003100050181C494018002201901446104605E070
:10032000002001460DB0F0BD032801DA034600E0CD
:1003300003239C46C11A0AAE0AE05F0008ADED5BDC
:100340004F00F75B7D430027AA187C41491C5B1EC8
:100350006145F2DD410004AB5A522104120C0A43FC
:10036000240C401C0828DFDB01980290009970469D
:1003700001910090059B049A0799069800F04FF9A7
:10038000D0E700000DFCFFFFC217C10F504010B5B1
:100390004018CA079623002100F0FBF810BD10B5E5
:1003A00000229623114600F0F4F810BD0EB5C217D6
:1003B000C10F5040CA0740180021054B029301921B
:1003C00000910A460B4600F02AF903B000BD000078
:1003D000330400000EB505490291002100910A4640
:1003E0000B46019100F01BF903B000BD330400007F
:1003F000C20F410040020123400ADB05D207090E6B
:10040000C0187F2901DA00207047962903DC962363
:10041000591AC84001E096398840002AF4D0404279
:100420007047410040020122400AD205090E80189F
:100430007F2901DA00207047962903DC9622511AA1
:10044000C840704796398840704700004A00090349
:100450000123090B1B051943094B10B5520D9A4294
:1004600001DA002010BD064B34339A4203DC9A1A9D
:1004700000F076F810BD03495118884010BD000007
:10048000FF030000CDFBFFFFC20FD2074000400872
:100490000BD0C10D0723DB01C91840020905400A32
:1004A0001143C208400711437047002001467047BE
:1004B00010B5002904DB0124E40740428C412146A9
:1004C000002B04DB1C460123DB075242A3418B4275
:1004D00000D1824210BD00000122D207002800DBBB
:1004E000101A002900DB511A814270470122D207FD
:1004F000002800DB101A002900DB511A88427047DF
:10050000F0B51FB40646002082B005464024019194
:1005100000901BE0019922460F46304600F020F87B
:10052000049A059B801A994110D310461946224619
:1005300000F038FA361A8F41019722460120002137
:10054000009F00F02FFA38184D4100902046641E9D
:100550000028DFDC019B00982946324607B0F0BD39
:1005600010B5202A04DB0846203AD040002110BDF7
:100570000B46D340D0402024A21A9140084319468C
:1005800010BD002904DA401C490001D14008400098
:10059000704770B40024050C05D11024000402D16A
:1005A000002921D01124050E01D100020834050FC5
:1005B00001D10001241D850F01D18000A41C002859
:1005C00001DB4000641C002908D020252E1B0D46AD
:1005D000F540A14000D001212943084301061B1B1F
:1005E000000ADB1D02D5002070BC7047DB0518181F
:1005F00080180029F8DA401C4900F5D170BC400889
:100600004000704710B5002B08DA0024401C6141FF
:1006100092185B411A4301D14008400010BDF0B56B
:100620001FB482B005460C0003D0084605F0E2FB7B
:1006300002E005F0DFFB203002460090214628460C
:1006400000F0B0F9049B059A04460F461843114385
:10065000084314D0184610431BD0009840210A1AB2
:1006600018460599FFF77CFF05460E46009A059946
:10067000049800F097F9084305D0012004E02046D3
:10068000394607B0F0BD0020C11705430E432C4387
:10069000374300990E986305401A7905E40A002251
:1006A0000C43FD0A0A3002D500200146E9E70105A6
:1006B000101969410C9C0D9D00196941FFF7A2FFBB
:1006C000DFE70000F0B507460846584087B0C00F86
:1006D000049048000E46590040084908BC1A884159
:1006E00005D2384631461E4617460B46024658008C
:1006F000400810434CD0300D039040055900400D88
:10070000490D0590401A0290402872DA1803012121
:10071000000B09050843019004980092002805D0B9
:100720000199524200208841009201900298402194
:100730000A1A0199009800F035F905460C466B46F7
:1007400007CB00F03FF9C0197141039A0E0D002349
:10075000D71756401A467A40164344D0049A002AC6
:100760002DD0029A012A039A15DC1205C01A914174
:1007700001263605001C7141D20F059ED207009359
:10078000019202962A462346FFF749FF07B0F0BDC3
:1007900038463146FAE71605224A0F46B218C01A03
:1007A000B74101210905001C4F4100187F41114646
:1007B00018187941E20F10436D19644113E0E20704
:1007C0006D0815436408C2071443039A01261205F5
:1007D000C01A91413605001C7141CE0740083043D4
:1007E0004908C01851412A462346FFF70BFFCDE7C1
:1007F000FFE7049801224000C117121A00238B4121
:1008000004983146C417381AA141EEE730B40124E8
:10081000E407634030BC55E730B40124E40761408D
:1008200030BC4FE70000E0FFF0B50C465C4085B0FF
:10083000E40FE40703944C00002664085900944632
:10084000490802460296224321D062460A431ED03E
:100850006200570D4A000E032303550D0124024682
:100860002C492405781B1B0B360B401823432643C9
:10087000614600901C46501AB44103D30098401CB6
:10088000009002E0921800985B41002803DA0020F3
:10089000014605B0F0BD0020012109050746864646
:1008A00011E064461D46141BB54106D36546521B34
:1008B000B341744607430C43A646CD074008490898
:1008C000284392185B4105460D43EAD11046184370
:1008D00013D06046194650407140084306D0604628
:1008E000101AB34106D20122002306E000220123A0
:1008F000DB0702E00122D243531000987446010541
:10090000381C6141029C039D00196941FFF77AFE82
:10091000BFE70000FD0300004A0009030123090BA3
:100920001B0519430A4B10B5520D9A4202DA0020FA
:10093000014610BD064B34339A4203DC9A1AFFF786
:100940000FFE10BD034BD21800F02CF810BD0000B4
:10095000FF030000CDFBFFFF10B5002904DB0124DD
:10096000E40740428C412146002B04DB1C46012356
:10097000DB075242A341994200D1904210BD0000D2
:10098000064C0125064E05E0E36807CC2B430C3CE2
:1009900098471034B442F7D3FFF796FBE48B00007E
:1009A000048C000010B5202A04DB0146203A914057
:1009B000002010BD914020239C1A0346E3401943B8
:1009C000904010BD10B5202A06DBCB170846203A10
:1009D0001041C1170B4306E00B461341D0402024C1
:1009E000A21A91400843194610BD10B5C046C04632
:1009F00010BD08B501211F2004F0E0FB002000F02D
:100A0000C9FF042004F0E6FB002168460170417034
:100A1000817004F00BFA08BD1CB50621684605F08C
:100A2000F5FE01211C2004F0C9FB0021684641703D
:100A300001706A460721002001F0FAFA012207211D
:100A4000002001F03DFB6A460521002001F0F0FA8C
:100A500001220521002001F033FB1CBD1CB506213D
:100A6000684605F0D3FE01211C2004F0A7FB0021FD
:100A7000684601706A460221002001F0D9FA01227D
:100A80000221002001F01CFB0121684601706A462A
:100A90000321002001F0CCFA01220321002001F003
:100AA0000FFB1CBD10B5112004F0BAFB0121022080
:100AB00004F0F2F9022004F0E7FB002004F08AFBC6
:100AC000002004F0E1FB0021022004F0E5F97D2084
:100AD000C00005F0ABFE10BD08B50121062004F0F2
:100AE0006DFB10216846017000214170C17081705A
:100AF0006946024804F059F908BD000000080040AA
:100B0000B0B588B004460F461546142103A805F079
:100B10007DFE0A21684605F079FE0121082004F0D7
:100B20004DFB0221684601730021C173817341733B
:100B300001740121417400218174C17403A9002052
:100B400000F0C2FC01222146002000F097FB2A465B
:100B50000121002000F0AAFB0721684681710021D5
:100B6000C17101210172002141726946002000F02B
:100B7000E7FB3146002000F0B7FB002000F028FB27
:100B800008B0B0BD1FB5062102A805F03FFE062142
:100B9000684605F03BFE01211C2004F00FFB0021FC
:100BA000684601706A460521C02001F041FA002123
:100BB0006846017202AA0121002001F039FA0322DD
:100BC0000121002001F07CFA1FBD70B586B00446FB
:100BD000142101A805F01AFE0121082004F0EEFA04
:100BE00000216846017141720521C17101218172A4
:100BF000002101728171417101A9022000F018FCED
:100C000003208003001B85B22946022000F008FB68
:100C100003208003001B86B23146022000F010FB47
:100C20000021022000F0E0FA022000F0F3FB012294
:100C30000321102000F062FE06B070BD00B587B041
:100C4000102103A805F0E2FD0C21684605F0DEFD49
:100C50000121084604F0B2FA4021684601730021E0
:100C6000C18141734B21C9010691012149020182D1
:100C700004F05AFA059003A90A4804F023FC002165
:100C8000084804F0F3FB0121064804F0EFFB0021C3
:100C9000044804F000FC01220321072000F02EFE8E
:100CA00007B000BD0001004010B50446082C73D009
:100CB00004DC002C07D0032C19D16EE00B2C56D08D
:100CC0000C2CF9D114E004F069FC05F089FD9023A7
:100CD00042A21B211A2001F013F93C2201210846EF
:100CE00002F016F905220121032002F011F973E048
:100CF0003C480078002806D0012810D002281AD0DD
:100D000003282ED123E02A236B2228215F2000F024
:100D10005BFE34480078401C3249087025E02A23E5
:100D2000612228215F2000F0C7FE2E480078401C79
:100D30002C49087019E02A2366222821642000F03B
:100D4000BBFE28480078401C264908700DE02A2385
:100D50006B222821692000F0AFFE00202149087095
:100D600003E000201F49087000BF00BF34E00120ED
:100D70001D490870102002F053FE002802D00128FF
:100D800008D103E0194800F03BFD03E0184800F0EB
:100D900037FD00BF00BF1FE010E000221146012018
:100DA00002F0B6F805220021032002F0B1F801207C
:100DB0000D4908700F4800F023FD0DE00022114698
:100DC000012002F0A5F805220021032002F0A0F87E
:100DD000064800F015FD00BF00BF10BDB5F7C6BD49
:100DE000D6D00000D50000201C000020951800007F
:100DF000C9380000516B000010B530484078002819
:100E000057D02E48407900281DD02C480078002863
:100E100019D001202949C87000220121104600F094
:100E200073FA2648007925490978884245DB002075
:100E30002249087100221146104600F065FA002090
:100E40001E49487139E01D484079002826D11B48C9
:100E50008078002822D0194800791849897888427A
:100E60002BDB16484078401E1449487008464078ED
:100E7000002809D0002008710120487100220121BA
:100E8000104600F041FA18E000200C49C8700871C3
:100E900000221146104600F037FA0EE000221146FB
:100EA000104600F031FA002004494870C8700871FB
:100EB00003E000200149C870087110BD0400002043
:100EC0000448C078002804D002480079401C014939
:100ED000087170470400002070B504460D461646A0
:100EE0000A2002F09DFD002801D1012000E0002031
:100EF000C007C00F002800D070BD01200449487110
:100F000000200871084644700570867000BFF3E742
:100F1000040000201CB50446230004F082FF0C07E7
:100F2000466482AEAEAEAE3DAEAE9FAE05F058FCAE
:100F300000F0B4F8524803F027FE5249504801F03F
:100F40004AF84F48006881004D48083042589023C5
:100F50001B210A2000F0D4FF0C2002F061FD48495B
:100F60000968494A515C88420AD1012047490C234B
:100F70001022009101901B215A2000F039FF05E05A
:100F800027236A221B215A2000F01EFD0322012183
:100F9000084601F0BDFF70E000221146012001F07B
:100FA000B7FF3B4800F02CFC67E0354800F036FC0A
:100FB0000C2002F035FD32490968334A515C884201
:100FC0000AD1012031490C231022009101901B21EC
:100FD0005A2000F00DFF05E027236A221B215A202A
:100FE00000F0F2FC49E0264801F046FB0C2002F03C
:100FF00017FD23490968244A515C88420AD101201F
:1010000022490C231022009101901B215A2000F04C
:10101000EFFE05E027236A221B215A2000F0D4FCB2
:101020002BE017480068002806D0012805D00228C8
:1010300004D003280FD10AE000BF00BF10480068A9
:10104000114A115C00220C2002F0C2FD04E010489D
:1010500000F0D6FB00E000BF00BF0EE008480068CB
:10106000094A115C01220C2002F0B2FD012009495D
:101070000870094800F0C4FB00BF00BF1CBD0000A1
:10108000600300207800002076780000AC75000036
:10109000513400001C000020C93800000020024923
:1010A00008600320087170476003002010B50446F3
:1010B000002C06D0082C6DD00B2C56D00C2C77D1E0
:1010C00014E005F08DFB90233AA21B211A2000F0BA
:1010D00017FF04F07FFA14220121084601F018FFDF
:1010E00005220121032001F013FF61E0334800785D
:1010F000002806D0012810D002281AD003282ED1AB
:1011000023E02A236B2228215F2000F05DFC2B487E
:101110000078401C2949087025E02A2361222821F3
:101120005F2000F0C9FC25480078401C2349087066
:1011300019E02A2366222821642000F0BDFC1F4804
:101140000078401C1D4908700DE02A236B222821DD
:10115000692000F0B1FC00201849087003E000206D
:101160001649087000BF00BF22E001201449087032
:10117000102002F055FC002802D0012808D103E01D
:10118000104800F03DFB03E00F4800F039FB00BFC2
:1011900000BF0DE000221146012001F0B9FE05223A
:1011A0000021032001F0B4FE084800F029FB00BF35
:1011B00000BF10BDD7D4BCECD6D00000D4000020B6
:1011C0001C00002095180000C9380000516B000079
:1011D00010B5014600200B02024C1A19002353617E
:1011E00010BD0000000C004030B502460020140283
:1011F000034D631901248C40E4435C6130BD000061
:10120000000C004070B5024600201502034EAB19D9
:101210001C692546CD40E807C00F70BD000C00409A
:1012200030B5024600201402044D63191C68240CDA
:1012300024048DB22C431C6030BD0000000C004023
:1012400030B5024600201402044D63195C68240C7A
:1012500024048DB22C435C6030BD0000000C0040C3
:1012600010B5014600200B02034C1A19D3685B0825
:101270005B005B1CD36010BD000C0040F0B5034662
:101280000C4600201D02084EA9190D682D0C2D04D6
:10129000A6B235430D60CD688026B543D6018027C0
:1012A0003E403543CD60F0BD000C004070B50446B3
:1012B0000B46002025020B4EA919002B06D1CD6B41
:1012C0002D0C2D0496B23543CD6309E0012B06D1D8
:1012D0000D6C2D0C2D0496B235430D6400E00120F9
:1012E00070BD0000000C004030B502460020140222
:1012F000044D63195C68240C24048DB22C435C609B
:1013000030BD0000000C0040F0B503460C46002044
:101310001D020A4EA9190D6BB614B5432603012709
:101320003F033E4035430D630D6B7E10B543D6023F
:101330007F103E4035430D63F0BD0000000C0040BF
:1013400070B503460A4600201C022A4D61194C6AFA
:101350001025AC434C62CC69E408E40055786D0775
:101360006D0F2C43CC61CC690825AC439578ED001A
:10137000082635402C43CC614C6A4025AC43D578D7
:10138000AD01402635402C434C62CC6803256D05E9
:10139000AC4315796D050326760535402C43CC60AA
:1013A0004C6A2025AC434C62CC697025AC439579DE
:1013B0002D01702635402C43CC61CC698025AC438F
:1013C000D579ED01802635402C43CC614C6A8025CF
:1013D000AC43157AED0135402C434C624C6A032531
:1013E0002D03AC43557A2D030326360335402C4399
:1013F0004C6270BD000C004010B5014600200B028D
:10140000034C1A19D3685B085B005B1CD36010BDEA
:10141000000C004010B5014600200B02034C1A19C5
:10142000D3682415A3431B19D36010BD000C0040E2
:1014300070B503460A4600201C02224D6119CC6893
:10144000AD00AC4315782D030326360335402C43FD
:10145000CC60CC6801256D02AC4355786D02012645
:10146000760235402C43CC60CC687510AC4395783F
:101470002D02761035402C43CC60CC687025AC43EF
:10148000D5782D01702635402C43CC60CC680825DA
:10149000AC431579ED00082635402C43CC60CC6870
:1014A0000425AC435579AD00042635402C43CC606F
:1014B000CC680225AC4395796D00022635402C435B
:1014C000CC6070BD000C004070B503460A46002099
:1014D0001C02264D6119CC68AD00AC4315782D0374
:1014E0000326360335402C43CC60CC687025AC43D2
:1014F00095782D01702635402C43CC60CC680425AE
:10150000AC43D578AD00042635402C43CC60CC6884
:101510000225AC4315796D00022635402C43CC6082
:10152000CC680825AC435579ED00082635402C439E
:10153000CC60CC68F502AC439579AD03F60235403A
:101540002C43CC60CC68F500AC43D5796D04F60033
:1015500035402C43CC60CC68B502AC435578ED06E1
:10156000B60235402C43CC6070BD0000000C00403A
:1015700010B5C046C04610BD70B502460B46FF25EB
:10158000FF2408E01178521C61400748405C684025
:1015900004460648455C18465E1EB3B20028F1D1E9
:1015A0002802204370BD0000C46C0000C46D000020
:1015B0001CB5012002F034FA0446032002F030FA90
:1015C000844203D801203449087021E0012002F050
:1015D00027FA0446022002F023FA844203D30220B1
:1015E0002D49087014E0012002F01AFA2B49097EF7
:1015F000002902D0FF21633101E0E1218900884206
:1016000003D203202449087002E004202249087014
:10161000214800782249097888423BD01E4800784A
:101620001F49087008460078012806D002280FD00C
:10163000032818D004282CD120E0012019492023A8
:101640001A460091019014210A2000F0D1FB20E0FD
:101650000120154920231A460091019014210A20E7
:1016600000F0C6FB15E00120104920231A46009126
:10167000019014210A2000F0BBFB0AE001200C4974
:1016800020231A460091019014210A2000F0B0FB9B
:1016900000BF00BF1CBD00001F000020E0000020B4
:1016A000200000202C730000AC720000AC71000020
:1016B0002C72000010B50446002C06D0082C6DD00A
:1016C0000B2C56D00C2C77D114E003F075FF05F0ED
:1016D00087F8902339A21B211A2000F011FC0A225E
:1016E0000121084601F014FC05220121032001F02C
:1016F0000FFC61E033480078002806D0012810D0A4
:1017000002281AD003282ED123E02A236B22282175
:101710005F2000F059F92B480078401C29490870D7
:1017200025E02A23612228215F2000F0C5F9254801
:101730000078401C2349087019E02A2366222821DA
:10174000642000F0B9F91F480078401C1D4908705A
:101750000DE02A236B222821692000F0ADF900203A
:101760001849087003E000201649087000BF00BF48
:1017700022E0012014490870102002F051F90028DD
:1017800002D0012808D103E0104800F039F803E046
:101790000F4800F035F800BF00BF0DE00522002122
:1017A000032001F0B5FB00221146012001F0B0FB3F
:1017B000084800F025F800BF00BF10BDD7D4BCEC2E
:1017C000D6D00000D60000201C0000209518000094
:1017D000C9380000516B000000B512231A220A21FB
:1017E000084600F0F1F83A231A2232210A2000F0CC
:1017F000EBF82B234A221B210A2000F0E5F800BD5C
:1018000010B504460248046001680020884710BDF6
:10181000DC00002010B5C046C04610BD1CB5044613
:101820002068002830DD2068401E2060FFF7D4FFCC
:101830002068810020460830425890231B210A204E
:1018400000F05EFB206800280AD101200F49062322
:1018500010220091019032210A2000F0C9FA13E011
:1018600001200B4906231022009101900A2108460D
:1018700000F0BEFA012005490623102200910190D4
:1018800032210A2000F0B4FA1CBD0000847600006A
:10189000907600001CB50446002C02D0082C23D101
:1018A00011E004F09DFF0120104920231A46009109
:1018B00001901421322000F09BFA012211461046BB
:1018C00001F026FB10E000221146012001F020FB70
:1018D00007480078002803D00648FFF791FF02E090
:1018E0000548FFF78DFF00BF00BF1CBDAC740000B2
:1018F0001C000020513400007D2F000070B504460C
:101900000E46154600BFE106C90E012088400E496B
:10191000086000BF3146204601F09AFF012D08D132
:1019200000BFE106C90E012088400849086000BFD9
:1019300009E000BFE106C90E01208840034980315B
:10194000086000BF00BF70BD80E200E000E100E081
:1019500010B5C046C046C046C04610BD70B5024670
:101960001378547818022043054600210CE0222009
:101970004843074E305AA84204D1222048438019D8
:10198000801C70BD481C81B24629F0D30020F8E7C6
:101990008481000010B501460020084A084BDA6235
:1019A000084ADA621A46126A0C239A438B000C2406
:1019B00023401A43024B1A6210BD00005A5A00001D
:1019C00000000240A5A50000FFB506460F463446BC
:1019D0000DE03D4605E0E9B2E0B200F00DF8681C0C
:1019E00085B20398401C8542F5DB601C84B20298E6
:1019F000401C8442EDDBFFBD70B50346402901DD8C
:101A0000012000E000207F2B01DD012200E0002208
:101A10001043002800D070BD0846CC17640F24186E
:101A2000E410E4010B4D6419E45C0A46CD176D0F18
:101A3000AD18ED10ED004E1B0125B540AC43CD17A0
:101A40006D0F2D18ED10ED01024EAD19EC5400BFD5
:101A5000E1E700004005002070B50346402901DDA4
:101A6000012000E000207F2B01DD012200E00022A8
:101A70001043002800D070BD0846CC17640F24180E
:101A8000E410E4010B4D6419E45C0A46CD176D0FB8
:101A9000AD18ED10ED004E1B0125B5402C43CD17C0
:101AA0006D0F2D18ED10ED01024EAD19EC5400BF75
:101AB000E1E7000040050020FFB506460F4634462A
:101AC0000DE03D4605E0E9B2E0B2FFF7C5FF681C56
:101AD00085B20398401C8542F5DB601C84B20298F5
:101AE000401C8442EDDBFFBDFFB587B00A98860637
:101AF000B60E09982E38C0B2099009985E2801DD0B
:101B00000BB0F0BD062E04D10120059005200490F5
:101B100022E00C2E04D102200590082004901BE046
:101B2000102E09D102200590082004900998000188
:101B30005449401806900FE0202E09D1042005904A
:101B400010200490099880014F494018069003E046
:101B5000022005900820049040210A98084000289F
:101B600004D04A4802904A48019003E04748019057
:101B7000474802900820039080210A9808400028D6
:101B80003FD0002539E0002729E000241FE0069817
:101B900000780121A140084000280BD0EA000898F5
:101BA00010180019C1B20798C019C3B21846029A9A
:101BB00090470AE0EA00089810180019C1B2079887
:101BC000C019C3B21846019A9047601CC4B203986A
:101BD0008442DCDB0698401C0690781CC7B204984F
:101BE0008742D2DB30460838C6B2082E02DB082016
:101BF000039000E00396681CC5B205988542C2DBDD
:101C00003EE0002539E0002729E000241FE0069887
:101C100000780121A140084000280BD0EA00089874
:101C200010180019C1B20798C019C3B21846029A19
:101C300090470AE0EA00089810180019C1B2079806
:101C4000C019C3B21846019A9047601CC4B20398E9
:101C50008442DCDB0698401C0690781CC7B20498CE
:101C60008742D2DB30460838C6B2082E02DB082095
:101C7000039000E00396681CC5B205988542C2DB5C
:101C800000BF3DE7847B000084780000F919000064
:101C9000591A0000FFB583B007461646069880061D
:101CA000800E0290402106980840002804D04E483B
:101CB00001904E48009003E04B4800904B48019043
:101CC000802106980840002849D0002543E00024E0
:101CD0000EE03078802121410840002806D0049A87
:101CE0005219D1B23A19D0B2019A9047601CC4B2CD
:101CF000082CEEDB761C00240FE030788021214197
:101D00000840002807D0049A5219D1B23A19083273
:101D1000D0B2019A9047601CC4B202980838A04221
:101D2000EBDC761C00240FE0307880212141084054
:101D3000002807D0049A5219D1B23A191032D0B201
:101D4000019A9047601CC4B202981038A042EBDCA4
:101D5000761C681CC5B202988542B8DB42E00025BB
:101D60003DE0002416E03078802121410840002821
:101D700007D0049A5219D1B23A19D0B2019A9047B9
:101D800006E0049A5219D1B23A19D0B2009A90479B
:101D9000601CC4B2082CE6DB761C002418E0307806
:101DA000802121410840002808D0049A5219D1B25C
:101DB0003A190832D0B2019A904707E0049A5219B2
:101DC000D1B23A190832D0B2009A9047601CC4B21E
:101DD00002980838A042E2DC761C681CC5B2029862
:101DE0008542BEDB07B0F0BDF9190000591A0000AA
:101DF000FFB587B006460F4614462046E117490F47
:101E000009184903090C0291E117490F0918C91073
:101E1000C900611A89B201911098049011980028A4
:101E20000DD0354803900A983818401E83B23019F7
:101E3000401E82B239463046FFF73EFE0CE02F4886
:101E400003900A983818401E83B23019401E82B29F
:101E500039463046FFF7B8FD0020069046E00020E6
:101E600005901DE0002512E00498007880212941AA
:101E70000840002809D0069ABA18D1B2059AD200B3
:101E800092195219D0B2039A9047681C85B2082D56
:101E9000EADB0498401C04900598401C80B2059031
:101EA000029905988842DDDB002512E0049800784D
:101EB000802129410840002809D0069ABA18D1B2D9
:101EC000029AD20092195219D0B2039A9047681C14
:101ED00085B201988542E9DB0198002802DD04986B
:101EE000401C04900698401C80B206900A990698FF
:101EF0008842B4DB0BB0F0BDF9190000591A00009C
:101F0000FFB583B005460F46164606988006800E3C
:101F10000290029810280ED004DC062807D00C2866
:101F20000FD106E0182808D020280AD107E00E2497
:101F300009E0102407E0102405E0182403E0202421
:101F400001E0102400BF00BF3AE03078802815DDA2
:101F50003046FFF703FD0190F9B2E8B20090069B0E
:101F6000019AFFF797FEB61C602D04DD002502984C
:101F7000381887B224E0281985B221E03278F9B206
:101F8000E8B20090069BFFF7AFFD761C782D04DDCC
:101F900000250298381887B212E030462038C07FFA
:101FA0002E2802D1281D85B205E02046E10F091830
:101FB000491049198DB20698A02801D1681C85B234
:101FC00030780028C1D107B0F0BD02461068C84083
:101FD000C007C00F704730B50246002000BF07E0C1
:101FE0008300CC588500134608335C51431CD8B29B
:101FF00013795B1C8342F3DC30BD000070B50446EE
:102000000D46044960180122294602F067FD0020B0
:1020100070BD0000140D024070B504460D46034922
:1020200060182946FFF7D1FF70BD0000040D024083
:1020300070B504460E4615461E496018002231460A
:1020400002F04CFD00201C496118B20088502A782B
:1020500018490C396018314602F040FD6A7815497C
:1020600010316018314602F039FDAA781149143157
:102070006018314602F032FDEA780E4918316018D6
:10208000314602F02BFD2A790A4920316018314689
:1020900002F024FD094880680121C9038843697959
:1020A000C9030122D203114008430449886000207B
:1020B00070BD00000C0D0240000C0240000F0240F9
:1020C00010B50346024818188C000251002010BDBC
:1020D000000C024070B504460D4604496018012208
:1020E000294602F0FBFC002070BD0000100D0240EC
:1020F00070B504460D461646034960183246294617
:1021000002F0ECFC002070BD080D024008B5002074
:10211000009000BF00980028FCD008BDFEB5044622
:10212000230003F07EFE0A06CACAFED4E9FDFCCBFA
:10213000FBCA04F055FB012001F072FC0546FEF7D6
:102140002EF9029099490298FEF777F80290984983
:102150000298FEF7C1F914D80E2001F061FC0028A6
:1021600001D094A000E094A007460298FEF78CF9F5
:1021700005462A460B4691A19248009703F026FE99
:1021800018E00E2001F04CFC002801D089A000E0EE
:1021900089A005460298FEF72BF906462B463246E3
:1021A00089A1884803F012FE392365221921622093
:1021B000FFF70AFC9023834A08215020FFF7A0FE76
:1021C000042001F02DFC00280ED0002080491823A7
:1021D0001A46009101901E210A20FFF709FE1E21D8
:1021E0000A2004F0ADFA09E00120794918231A46C3
:1021F000009101901E210A20FFF7FAFD052001F051
:102200000FFC00280ED00020724918231A460091B6
:1022100001901E212820FFF7EBFD1E21282004F04D
:102220008FFA09E001206B4918231A4600910190AA
:102230001E212820FFF7DCFD062001F0F1FB00281D
:102240000ED00020644918231A46009101901E21E7
:102250004620FFF7CDFD1E21462004F071FA09E06B
:1022600001205D4918231A46009101901E21462045
:10227000FFF7BEFD072001F0D3FB00280ED00020A1
:10228000564918231A46009101901E216420FFF739
:10229000AFFD1E21642004F053FA09E001204F49EC
:1022A00018231A46009101901E216420FFF7A0FD1B
:1022B00003220121084600F02BFE75E000221146A2
:1022C000012000F025FE4648FFF79AFA6CE0002056
:1022D0003F4918231A46009101901E210A20FFF75A
:1022E00087FD1E210A2004F02BFA01203D490870C9
:1022F0003D48FFF785FA57E00020364918231A4673
:10230000009101901E212820FFF772FD1E21282038
:1023100004F016FA02203349087003E039E01AE0AD
:1023200004E02DE03048FFF76BFA3DE000202A4939
:1023300018231A46009101901E214620FFF758FDF0
:102340001E21462004F0FCF9032026490870264887
:10235000FFF756FA28E00020204918231A4600917A
:1023600001901E216420FFF743FD1E21642004F02C
:10237000E7F904201B4908701B48FFF741FA13E0F6
:1023800000221146012000F0C3FD1548FFF738FA7E
:102390000AE001F091F900221146022000F0B8FD98
:1023A0001248FFF72DFA00BF00BFFEBD000020411C
:1023B0000000C642696E0000636D0000252E316684
:1023C00025730000DC020020256425730000000056
:1023D0009C760000E47600002C7700007477000003
:1023E0007D2F000021000020F12300005134000067
:1023F0007CB50446002C06D0082C76D00B2C75D06A
:102400000C2C0DD10DE000208D4908700322012114
:10241000084600F07DFD03220121104600F078FD02
:102420000CE188480078002801D1012000E000205C
:102430008449087082480078401C814908708248AD
:102440000078012806D002282FD003285AD004286B
:1024500078D183E07A480078032808DB012001F076
:10246000DFFA054600222946042001F0B1FB754839
:10247000007800280ED00020744918231A460091D5
:1024800001901E210A20FFF7B3FC1E210A2004F050
:1024900057F909E001206D4918231A46009101906F
:1024A0001E210A20FFF7A4FC84E065480078032879
:1024B00008DB012001F0B4FA054600222946052078
:1024C00001F086FB5F480078002810D000206049AA
:1024D00018231A46009101901E212820FFF788FC3E
:1024E0001E21282004F02CF90BE065E06BE00120B0
:1024F000574918231A46009101901E212820FFF702
:1025000077FC57E04E480078032808DB012001F0F3
:1025100087FA054600222946062001F059FB494862
:10252000007800280FD000204A4918231A4600914D
:1025300001901E214620FFF75BFC1E21462004F07F
:10254000FFF80AE035E00120424918231A460091BD
:1025500001901E214620FFF74BFC2BE03848007805
:10256000032808D1012001F05BFA05460022294624
:10257000072001F02DFB3348007800280ED0002002
:10258000354918231A46009101901E216420FFF757
:102590002FFC1E21642004F0D3F809E001202E490D
:1025A00018231A46009101901E216420FFF720FC99
:1025B00000E000BF00BF41E0002028490870284823
:1025C000FFF71EF93AE020480078012806D00228DB
:1025D0000ED0032816D0042828D11DE0012001F0D8
:1025E0001FFA054601222946042001F0F1FA1DE0F8
:1025F000012001F015FA054601222946052001F0C7
:10260000E7FA13E0012001F00BFA05460122294602
:10261000062001F0DDFA09E0012001F001FA05468B
:1026200001222946072001F0D3FA00BF00BF002095
:102630000A4908700B48FFF7E3F800BF00BF7CBDF4
:102640002D0000202C000020210000209C7600009E
:10265000E47600002C770000747700001C00002056
:1026600095180000C938000010B5C046C04610BD1E
:1026700010B5C046C04610BD1CB50446217920687F
:10268000884231DA2068401C2060FFF7A5F82068F6
:10269000810020460830425890231B210A20FFF772
:1026A0002FFC2179206888420AD101200F49062396
:1026B0001022009101900A210846FFF799FB13E0D0
:1026C00001200A4906231022009101900A210846A0
:1026D000FFF78EFB0120064906231022009101908E
:1026E00032210A20FFF784FB1CBD00009076000019
:1026F0008476000004484079002804D002484088CD
:10270000401C014948807047FE00002010B501F0D0
:1027100061FC31480079002802D001282BD112E059
:102720002D488079002808D02B4880792A49887262
:10273000012008710020488004E00020264908712B
:102740004880487117E0244880792349897A884273
:1027500011D10120204948710846408808280ADD27
:102760000846C079002806D008204880002008705C
:102770000846807A487000BF1748407800281DD06E
:102780001548407814494872002048700846407A3D
:10279000032803D1092000F0E3FA1CE00E48407A38
:1027A000012803D10D2000F0DBFA14E00A48407A3A
:1027B000022810D10E2000F0D3FA0CE00648007871
:1027C00005494872002008700846407A002802D067
:1027D000487A00F0C5FA10BDFE0000201CB5044682
:1027E000230003F01EFB0C07466482ABABABAB3D92
:1027F000ABAB9CAB03F0F4FF00F0B0F8504802F034
:10280000C3F950494E48FFF7E6FB4D480068810088
:102810004B480830425890231B210A20FFF770FBD9
:102820000D2001F0FDF846490968474A515C88428D
:102830000AD1012045490C231022009101901B214F
:102840005A20FFF7D5FA05E027236A221B215A20D8
:10285000FFF7BAF803220121084600F059FB6DE0AA
:1028600000221146012000F053FB3948FEF7C8FF53
:1028700064E03348FEF7D2FF0D2001F0D1F8304973
:102880000968314A515C88420AD101202F490C2342
:102890001022009101901B215A20FFF7A9FA05E0B0
:1028A00027236A221B215A20FFF78EF846E024488E
:1028B000FFF7E2FE0D2001F0B3F821490968224A32
:1028C000515C88420AD1012020490C23102200913A
:1028D00001901B215A20FFF78BFA05E027236A227B
:1028E0001B215A20FFF770F828E0154800680028DF
:1028F00004D0012803D002280ED109E000BF1048FF
:102900000068114A115C00220D2001F061F904E019
:102910000F48FEF775FF00E000BF00BF0EE008485B
:102920000068094A115C01220D2001F051F90120D3
:10293000084908700848FEF763FF00BF00BF1CBDD0
:10294000D8030020940000207D780000AC750000C2
:10295000513400001C000020C9380000002002494A
:102960000860022008717047D803002010B500F0FD
:102970002BFA012204210020FFF7BAFB642003F0A8
:1029800055FF002204211046FFF7B2FB642003F03C
:102990004DFF012204210020FFF7AAFB0021EC4893
:1029A00002F017FA002206211046FFF7A1FB00BF34
:1029B0000421E74802F0F0F90028F9D0AE21E448FC
:1029C00002F003FA002206211046FFF791FB00BF38
:1029D0000421DF4802F0E0F90028F9D00021DC48AA
:1029E00002F0F3F9002206211046FFF781FB00BF39
:1029F0000421D74802F0D0F90028F9D01021D4489A
:102A000002F0E3F9002206211046FFF771FB00BF38
:102A10000421CF4802F0C0F90028F9D04021CC4869
:102A200002F0D3F9002206211046FFF761FB00BF38
:102A30000421C74802F0B0F90028F9D08121C44828
:102A400002F0C3F9002206211046FFF751FB00BF38
:102A50000421BF4802F0A0F90028F9D0CF21BC48DA
:102A600002F0B3F9002206211046FFF741FB00BF38
:102A70000421B74802F090F90028F9D0A121B44808
:102A800002F0A3F9002206211046FFF731FB00BF38
:102A90000421AF4802F080F90028F9D0C821AC48E1
:102AA00002F093F9002206211046FFF721FB00BF38
:102AB0000421A74802F070F90028F9D0A621A44803
:102AC00002F083F9002206211046FFF711FB00BF38
:102AD00004219F4802F060F90028F9D0A8219C4801
:102AE00002F073F9002206211046FFF701FB00BF38
:102AF0000421974802F050F90028F9D03F2194486A
:102B000002F063F9002206211046FFF7F1FA00BF38
:102B100004218F4802F040F90028F9D0D3218C48D5
:102B200002F053F9002206211046FFF7E1FA00BF38
:102B30000421874802F030F90028F9D000218448A8
:102B400002F043F9002206211046FFF7D1FA00BF38
:102B500004217F4802F020F90028F9D0D5217C48D3
:102B600002F033F9002206211046FFF7C1FA00BF38
:102B70000421774802F010F90028F9D08021744828
:102B800002F023F9002206211046FFF7B1FA00BF38
:102B900004216F4802F000F90028F9D0D9216C48CF
:102BA00002F013F9002206211046FFF7A1FA00BF38
:102BB0000421674802F0F0F80028F9D0F1216448B8
:102BC00002F003F9002206211046FFF791FA00BF38
:102BD00004215F4802F0E0F80028F9D0DA215C48CF
:102BE00002F0F3F8002206211046FFF781FA00BF39
:102BF0000421574802F0D0F80028F9D01221544897
:102C000002F0E3F8002206211046FFF771FA00BF38
:102C100004214F4802F0C0F80028F9D0DB214C48CD
:102C200002F0D3F8002206211046FFF761FA00BF38
:102C30000421474802F0B0F80028F9D04021444868
:102C400002F0C3F8002206211046FFF751FA00BF38
:102C500004213F4802F0A0F80028F9D020213C4888
:102C600002F0B3F8002206211046FFF741FA00BF38
:102C70000421374802F090F80028F9D002213448A6
:102C800002F0A3F8002206211046FFF731FA00BF38
:102C900004212F4802F080F80028F9D08D212C481B
:102CA00002F093F8002206211046FFF721FA00BF38
:102CB0000421274802F070F80028F9D01421244894
:102CC00002F083F8002206211046FFF711FA00BF38
:102CD00004211F4802F060F80028F9D0A4211C4804
:102CE00002F073F8002206211046FFF701FA00BF38
:102CF0000421174802F050F80028F9D0A621144802
:102D000002F063F8002206211046FFF7F1F900BF38
:102D100004210F4802F040F80028F9D0AF210C48F8
:102D200002F053F8002206211046FFF7E1F900BF38
:102D30000421074802F030F80028F9D0AF210448F8
:102D400002F043F803F04CFD012003F075FE10BDC6
:102D50000008004010B5FDF75FFEFDF7BDFE10BD99
:102D600010B50446230003F05CF80F090A0B0C0DA4
:102D70000E0F101F111E121D2120280000BF00BFC2
:102D800000BF00BF00BF00BF00BF00BF00BF0020EA
:102D90000B49488008800B4801682046884703F0AB
:102DA000AFFD0BE000BF00BF00BF00BF05480168DA
:102DB0002046884703F0A4FD00E000BF00BF10BD1F
:102DC00040090020DC0000201CB501211C2002F07D
:102DD000F5F90021684601708170C170062100205C
:102DE000FFF70CF96A4606210020FFF721F90421BC
:102DF0000020FFF703F96A4604210020FFF718F9C5
:102E0000FFF7A8FF1CBD10B5C046C04610BD0000AE
:102E10000D488079002804D00B484088401C0A499E
:102E200048800948C079002804D007480088401C21
:102E3000054908800448807A002804D00248808927
:102E4000401C0149888170474009002010B5C046E8
:102E5000C04610BD10B5C046C04610BD10B5C04636
:102E6000C04610BD10B5C046C04610BD0146012980
:102E700004D0022919D0032944D12DE023488079B8
:102E8000002800D1704721484088204A928890420B
:102E900009DB1E488079012805D100201B4A50809B
:102EA00090710120EEE70020ECE71848C079002877
:102EB00000D1E7E715480088144A1289904209DBDF
:102EC0001248C079012805D10020104A1080D07125
:102ED0000120D7E70020D5E70C48807A002800D1F0
:102EE000D0E70A488089094AD289904208DB07481E
:102EF000807A012804D10020044A90810120C1E792
:102F00000020BFE70020C043BCE7000040090020CC
:102F100010B5012804D0022812D0032829D121E0BD
:102F2000002903D00123144CA37102E00023124CAA
:102F3000A37114235343104CA3800023638019E032
:102F4000002905D000230C4C23800123E37102E00B
:102F50000023094CE37128235343074C23810023AA
:102F6000238007E00023044CA38123469972DA8171
:102F700000E000BF00BF10BD40090020FEB50446C0
:102F8000230002F04EFF0F09FDFCFBFAF9F8F7DB16
:102F9000F6F5DBDCF4F3DB0002F038FB03F020FC99
:102FA000012000F03DFD0546FDF7F9F90290B0491A
:102FB0000298FDF742F90290AE490298FDF78CFAAB
:102FC00014D80E2000F02CFD002801D0AAA000E0AB
:102FD000AAA007460298FDF757FA05462A460B466F
:102FE000A7A1A948009702F0F1FE18E00E2000F01A
:102FF00017FD002801D0A0A000E0A0A0054602987F
:10300000FDF7F6F906462B463246A0A19E4802F08F
:10301000DDFE3923652219216020FEF7D5FC9023BF
:10302000994A08214E20FEF76BFF012099490E2393
:103030004022009101900A210846FEF7D9FE08209F
:1030400000F0EEFC002809D00020934918231A460E
:10305000009101901E210A20FEF7CAFE8F48807B56
:1030600000280ED08D48C07B00280AD101208C4951
:1030700018231A46009101901E212820FEF7B8FE61
:1030800024E08648807B00280ED18448C07B00283D
:103090000AD00120834918231A46009101901E216D
:1030A0002820FEF7A5FE11E07C48807B00280DD08B
:1030B0007A48C07B002809D000207B4918231A4693
:1030C000009101901E212820FEF792FE0D2000F0B5
:1030D000A7FC002809D00020744918231A46009143
:1030E00001901E214620FEF783FE0B2000F098FC85
:1030F00000280AD001206E4918231A460091019039
:103100001E216420FEF774FE0EE00C2000F088FC07
:10311000002809D00120674918231A460091019020
:103120001E216420FEF764FE0A2201210220FFF71F
:10313000EFFE082201210320FFF7EAFE96E002F0ED
:1031400065FA012000F06CFC0546FDF728F90290B5
:1031500047490298FDF771F8029046490298FDF739
:10316000BBF920D80E2000F05BFC0AE03DE03DE01A
:1031700073E05EE04BE049E047E045E064E033E0C7
:1031800031E0002801D03CA000E03CA007460298B6
:10319000FDF77AF905462A460B4639A13A480097C9
:1031A00002F014FE18E00E2000F03AFC002801D0D6
:1031B00031A000E031A005460298FDF719F9064656
:1031C0002B46324631A1304802F000FE39236522F9
:1031D00019216020FEF7F8FB90232B4A08214E208E
:1031E000FEF78EFE42E000BF00BF00BF0A220021B2
:1031F0000320FFF78DFE002211460220FFF788FE14
:103200002D48FEF7FDFA31E000BF00BF00BFE01E11
:103210002A490870E0B200F003FC002800D125E044
:10322000002211460220FFF773FE2548FEF7E8FA58
:103230001CE000F041FA002211460220FFF768FE70
:103240002048FEF7DDFA11E0002211460220FFF7C8
:103250005FFE1D48FEF7D4FA08E000221146022066
:10326000FFF756FE1948FEF7CBFA00BF00BFFEBDC0
:10327000000020410000C642696E0000636D00003E
:10328000252E316625730000DC020020256425739D
:10329000000000008C6F00001C710000E0000020A6
:1032A00024780000DC770000D47000008C700000EF
:1032B000FC6F000044700000214600001D0000204B
:1032C00031490000513400001D210000D94D00009B
:1032D00070B50446230002F0A4FD0C072C30349D89
:1032E0009D9D9D239D9D769D03F07AFA00F0A8F8A0
:1032F000494801F049FC49494748FEF76CFE4648F9
:103300000068810044480830425890231B210A205D
:10331000FEF7F6FD032201210846FFF7F9FD79E0EB
:10332000002211460120FFF7F3FD3D48FEF768FA41
:1033300070E03948FEF772FA6CE03748FFF79CF905
:1033400068E035480068002804D0012821D0022810
:1033500036D131E0012000F063FB0546032000F088
:103360005FFB3049097E002901D0042100E00A21D9
:103370004018854203D82C48FEF742FA08E00120A5
:1033800000F04EFB054600222946022000F020FCFA
:1033900017E02448007E002802D02448244901E098
:1033A000002024490246FDF751F80546002229462F
:1033B000022000F00DFC04E01948FEF721FA00E0BD
:1033C00000BF00BF26E001201B49087012480068BA
:1033D000002809D1012000F023FB054601222946DF
:1033E000022000F0F5FB11E00E48007E002802D01C
:1033F0000E480F4901E000200E490246FDF726F86D
:10340000054601222946022000F0E2FB0B48FEF7A8
:10341000F7F900BF00BF70BD14040020A000002019
:1034200051340000E00000209518000066666666D2
:103430006672A34000A08E401C000020C938000026
:10344000002002490860022008717047140400201F
:103450001CB50446230002F0E4FC0F09406DC0AB2C
:10346000ACADAE37363636369D9C360003F0B8F933
:103470007D4801F089FB7D497B48FEF7ACFD7A4829
:103480000068810078480830425890231B210A20A8
:10349000FEF736FD012076490623102200910190A7
:1034A0000A210846FEF7A4FC0120724906231022D7
:1034B0000091019032210A20FEF79AFC032201219B
:1034C0000846FFF725FDCCE0002211460120FFF75A
:1034D0001FFD6948FEF794F9C3E0FEF77DF901206E
:1034E000634906231022009101900A210846FEF745
:1034F0007FFC01205F4906231022009101903221B8
:103500000A20FEF775FC58480068401E56490860BE
:1035100008460068002801DA0C200860524800685C
:10352000810051480830425890231B210A20FEF7A1
:10353000E7FC96E0FEF750F901204D4906231022E2
:10354000009101900A210846FEF752FC01204949EA
:10355000062310220091019032210A20FEF748FC38
:1035600041480068401C40490860084600680979E5
:10357000884202DD00203C4908603B480068810029
:1035800039480830425890231B210A20FEF7B8FC26
:1035900067E000BF0A2200210320FFF7B9FC0022E8
:1035A00011460220FFF7B4FC3448FEF729F958E031
:1035B00000BF00BF00BFE01E31490870E0B200F05C
:1035C0002FFA002800D14CE0002211460220FFF71C
:1035D0009FFC2C48FEF714F943E0234800680300E1
:1035E00002F01FFC0D080C1014181C2024282C308D
:1035F00034383C002448FEF703F930E02348FEF756
:10360000FFF82CE02248FEF7FBF828E02148FEF7FF
:10361000F7F824E02048FEF7F3F820E01F48FEF713
:10362000EFF81CE01E48FEF7EBF818E01D48FEF727
:10363000E7F814E01C48FEF7E3F810E01B48FEF73B
:10364000DFF80CE01A48FEF7DBF808E01948FEF74F
:10365000D7F804E00848FEF7D3F800E000BF00BF49
:1036600000BF00BF1CBD0000E802002030000020A9
:1036700090760000847600007D2F00002146000037
:103680001D00002031490000094C0000AD10000071
:10369000255C0000150F0000DD270000A90C0000CC
:1036A000B5160000D1320000C9360000D55900001F
:1036B00045430000755B00000020024908600C20B3
:1036C00008717047E802002070B50446230002F03C
:1036D000A8FB0C072C3034A0A0A0A023A0A079A0A8
:1036E00003F07EF800F0ACF84B4801F04DFA4B497E
:1036F0004948FEF770FC4848006881004648083099
:10370000425890231B210A20FEF7FAFB03220121D5
:103710000846FFF7FDFB7CE0002211460120FFF781
:10372000F7FB3F48FEF76CF873E03B48FEF776F88E
:103730006FE03948FEF7A0FF6BE0374800680028CB
:1037400004D0012821D0022839D134E0012000F032
:1037500067F90546022000F063F93249097E002925
:1037600001D0042100E00A21401A854203D32E48EB
:10377000FEF746F808E0012000F052F90546002265
:103780002946032000F024FA1AE02648007E00288B
:1037900002D02648264901E0002026490246FCF7CF
:1037A00055FE054600222946032000F011FA0020AC
:1037B0001C49C87304E01A48FEF722F800E000BF75
:1037C00000BF26E001201C4908701348006800284B
:1037D00009D1012000F024F90546012229460320E1
:1037E00000F0F6F911E00F48007E002802D00F48E3
:1037F0000F4901E000200F490246FCF727FE05466D
:1038000001222946032000F0E3F90C48FDF7F8FFF8
:1038100000BF00BF70BD000050040020AC000020BD
:1038200051340000E000002095180000713D0AD7D7
:10383000A3FA9640001882401C000020C9380000FE
:1038400000200249086002200871704750040020DF
:1038500010B5002819DA1A4A03071B0F083B9B080A
:103860009B00D2588307DC0EFF23A3409A438B07AB
:103870001B0E8407E40EA3401A43114B0407240FC8
:10388000083CA408A4001A5118E00E4A03231B02A6
:10389000D21883089B00D2588307DC0EFF23A34075
:1038A0009A438B071B0E8407E40EA3401A43054B73
:1038B000032424021B198408A4001A5110BD00001F
:1038C0001CED00E000E100E01CB50446002C02D035
:1038D000082C23D111E002F083FF0120104920239E
:1038E0001A460091019014213220FEF781FA01223C
:1038F00011461046FFF70CFB10E000221146012094
:10390000FFF706FB07480078002803D00648FDF7BC
:1039100077FF02E00548FDF773FF00BF00BF1CBD45
:103920002C7400001C000020513400007D2F00008A
:103930001CB50446002C04D0082C0DD00C2C4AD108
:1039400020E0012211460320FFF7E2FA04220121C0
:103950000846FFF7DDFA3EE0002211460120FFF79E
:10396000D7FA012200210320FFF7D2FA1B48007F7B
:10397000BB2803D11A48FDF743FF02E01948FDF7C1
:103980003FFF28E01848007819281EDD1648007807
:10399000401E15490870084600783C2801D101F006
:1039A0004BFE114800781E2801DC01F02FFE02F0CA
:1039B00017FF01200D4910235822009101900A4859
:1039C00001781620FEF714FA04E0012200210320FA
:1039D000FFF79EFA00BF00BF1CBD0000E000002002
:1039E000414100007D2F00001E000020DC6E000021
:1039F00010B5C046C04610BD10B5C046C04610BD8B
:103A000010B5C046C04610BD10B5C046C04610BD7A
:103A100010B5C046C04610BD10B5C046C04610BD6A
:103A20007CB50446230002F0FCF913CA0B2239507E
:103A3000677E95ACCAAFB2B5B8BBBEC1C4C7CA0039
:103A40006048007E00280AD05E490888FCF7C2FC66
:103A50005D4A5E4B01910090FCF72EFC03E0594952
:103A60000888FCF7B7FC0546FCF7F0FC7CBD554820
:103A7000007E00280AD053494888FCF7ABFC524A24
:103A8000524B01910090FCF717FC03E04D49488828
:103A9000FCF7A0FC0546FCF7D9FCE7E74948007EA7
:103AA00000280AD047498888FCF794FC464A474BCF
:103AB00001910090FCF700FC03E042498888FCF784
:103AC00089FC0546FCF7C2FCD0E73E48007E002892
:103AD0000AD03C49C888FCF77DFC3B4A3B4B01912E
:103AE0000090FCF7E9FB03E03649C888FCF772FC5C
:103AF0000546FCF7ABFCB9E73248007E00280AD047
:103B000030490889FCF766FC2F4A304B0191009040
:103B1000FCF7D2FB03E02B490889FCF75BFC054668
:103B2000FCF794FCA2E72748007E00280AD025492C
:103B30004889FCF74FFC244A244B01910090FCF784
:103B4000BBFB03E01F494889FCF744FC0546FCF732
:103B50007DFC8BE71B48007E00280AD01949888924
:103B6000FCF738FC184A194B01910090FCF7A4FBB4
:103B700003E014498889FCF72DFC0546FCF766FC38
:103B800074E71048008A71E70E48007D6EE70D4823
:103B9000807D6BE70B48407D68E70A48C07D65E79C
:103BA0000848007E62E70748807E5FE70548C07EE0
:103BB0005CE70448407E59E70248407F56E7002012
:103BC00054E70000E00000209EEFA7C64B37D93F26
:103BD00070B588B006460C461546F1A207CA05AB7B
:103BE00007C3F248017C68464175F048017D68468C
:103BF0008175EE48417D6846C175EC48C17D6846D7
:103C00000176EA48017E68464176E848408801121C
:103C100068468176E54881786846C176E3488088C1
:103C2000011268460177E148017968464177E0482A
:103C300000680490330002F0F4F8100B090C53995B
:103C4000C4F8F6F50BF4F3F2F1F0EF0BD7490C8062
:103C5000A2E1D648007E002802D0D648D64909E025
:103C6000F52189008C4201D1012100E000210846A4
:103C7000FCF79CFB0022134603910290FCF718FC12
:103C800003D00020C949887302E00120C749887326
:103C9000C648007E002809D02046FCF79BFBC74A97
:103CA000C74B01910090FCF707FB02E02046FCF7B0
:103CB00091FB03910290FCF7C9FB0446002D02D052
:103CC000BA494C800BE05221BE48C1772004010E56
:103CD00068468176C4760B2105A802F011FF5BE1EE
:103CE000B248007E002802D0B748B84908E0B84979
:103CF0008C4201D1012100E000210846FCF756FB6F
:103D00000022134603910290FCF7D2FB03D000205F
:103D1000A649C87302E00120A449C873A348007EE5
:103D2000002809D02046FCF755FBA44AA44B01917A
:103D30000090FCF7C1FA02E02046FCF74BFB039130
:103D40000290FCF783FB0446002D02D097498C803B
:103D50000BE052219B48C1772004010E6846017791
:103D600044770B2105A802F0CBFE15E159219548B7
:103D7000C1778E48007E002809D02046FCF72AFB38
:103D80008E4A8F4B01910090FCF796FA02E0204694
:103D9000FCF720FB03910290FCF758FB0446002D32
:103DA00002D08249CC800BE0012168464174200496
:103DB000010E68468174C474042104A802F0A0FEB8
:103DC000EAE059217F48C1777848007E002809D071
:103DD0002046FCF7FFFA794A794B01910090FCF7F5
:103DE0006BFA02E02046FCF7F5FA03910290FCF72B
:103DF0002DFB0446002D02D06C4804810BE002210B
:103E0000684641742004010E68468174C47404211C
:103E100004A802F075FEBFE0BBE0ABE09BE08BE0E6
:103E200077E067E057E02BE0FFE759216548C1776D
:103E30005E48007E002809D02046FCF7CBFA5F4A96
:103E40005F4B01910090FCF737FA02E02046FCF747
:103E5000C1FA03910290FCF7F9FA0446002D02D052
:103E6000524844810BE00321684641742004010E4E
:103E700068468174C474042104A802F041FE8BE0FA
:103E800059215048C1774948007E002809D0204672
:103E9000FCF7A0FA494A4A4B01910090FCF70CFA52
:103EA00002E02046FCF796FA03910290FCF7CEFA66
:103EB0000446002D02D03D4884810BE00421684671
:103EC00041742004010E68468174C474042104A85E
:103ED00002F016FE60E0002D02D034490C8208E0AA
:103EE00052213848C17769464C750A2105A802F06D
:103EF00007FE51E0002D02D02C490C7508E052213C
:103F00003048C17769468C750A2105A802F0F8FD92
:103F100042E0002D02D0254884750CE0522129484A
:103F2000C1776846C07D2043C1B26846C1750A2189
:103F300005A802F0E5FD2FE0002D02D01B484475D6
:103F400008E052211F48C1776946CC750A2105A8AF
:103F500002F0D6FD20E0002D02D01448C47508E020
:103F600052211848C17769460C760A2105A802F04B
:103F7000C7FD11E0002D02D00C48047608E0522164
:103F80001048C17769464C760A2105A802F0B8FDB1
:103F900002E006498C7600BF00BF08B070BD00008B
:103FA000520000000000000000000000E0000020BF
:103FB000A06C0000666666666672A34052B81E85F5
:103FC000EB5104402A010020713D0AD7A3FA964024
:103FD0004302000010B50020304988710C21FEF723
:103FE0001BF8002803D101202C49887154E00021DE
:103FF0004020FEF711F8002803D1022027498871DC
:104000004AE001214020FEF707F8002803D10320F1
:104010002249887140E002214020FDF7FDFF002881
:1040200003D104201D49887136E009210020FDF7E5
:10403000F3FF002803D10520184988712CE00A21DC
:104040000020FDF7E9FF002803D1062013498871FD
:1040500022E00B210020FDF7DFFF002803D107201D
:104060000E49887118E00D48408801280BDD0B4887
:104070004088062807DA0020084948800846807AE8
:104080000870002008720020044948714870488078
:10409000087101200872C87110BD0000FE000020E8
:1040A0007CB50446230001F0BCFE0C072D2E2C2805
:1040B000292A2B3A3A3A313A02F092FB0022114671
:1040C0000120FEF725FF0120164920231A46009102
:1040D00001900F211E20FDF78BFE1120FFF7A0FCA1
:1040E00005462A4610A1124801F070FE9023104A9E
:1040F00017215020FDF704FF11E000BF00BF00BFF3
:1041000000BF00BF00BF01F0A3F908E01220FFF7D5
:1041100087FC022802D10748FDF772FB00BF00BFF1
:104120007CBD00002C750000452530325800000091
:10413000DC0200204141000010B5C046C04610BD61
:104140007CB504460B2C47D004DC002C07D0082C8F
:104150002FD12FE00C2C79D00E2CF9D177E06B48C1
:10416000007FBB2803D101206949087002E00020CC
:104170006749087000206549087702F031FBA023E9
:1041800064A21B211920FDF7BBFE00206349102308
:104190001A46009101901B215A20FDF729FE0022AA
:1041A00011460120FEF7B4FE002211460320FEF75F
:1041B000AFFEA9E001F040FA01F03EFA01F03CFA4E
:1041C00001F03AFA01F038FA012051490870002252
:1041D0001146FEF79DFE97E04D480078002802D07A
:1041E000012831D105E0022201210846FEF790FEA8
:1041F0002AE000204A4908704448007E002802D086
:104200004848494901E0002048490246FCF71EF9A8
:104210000546002229460220FFF7DAFC3B48007ED3
:10422000002802D04248434901E0002042490246AA
:10423000FCF70CF90546002229460320FFF7C8FCCD
:104240003E48FDF7DDFA00BF00BF5DE035E03048D5
:104250000078002803D0012001F0CAF901E001F044
:10426000DDF937480078401C3549087002220121E9
:104270000320FEF74DFE324800780A2806DA2B2389
:104280006A221B215A20FDF79FFB15E02C4800787D
:104290000A280EDB2A48007814280ADA00201F4971
:1042A00010231A46009101901B215A20FDF7A0FD12
:1042B00002E000202249087026E021480078401CD6
:1042C0001F490870084600780A2806DA2B236A225C
:1042D0001B215A20FDF778FB15E0194800780A28C1
:1042E0000EDB1748007814280ADA00200B49102347
:1042F0001A46009101901B215A20FDF779FD02E03A
:1043000000200F49087000BF00BF7CBDE000002006
:10431000D8000020C7EBB3A4B0B40000BC77000005
:104320001C000020666666666672A34000A08E4090
:10433000713D0AD7A3FA964000188240C9380000A0
:10434000D70000201CB50446032C70D006DC002CDE
:1043500009D0012C36D0022C74D14FE0082C28D083
:104360000E2C6FD146E002F03BFA00F077F83648A9
:1043700000F00AFC35493448FDF72DFE324800684C
:10438000810031480830425890231B210A20FDF754
:10439000B7FD00202E4910231A46009101901B21E1
:1043A0005A20FDF725FD002211460120FEF7B0FD41
:1043B00048E0002211460120FEF7AAFD2548FDF73E
:1043C0001FFA3FE02048FDF729FA1F48006800283F
:1043D00009D11F4910231A46009101901B215A2030
:1043E000FDF706FD05E02B236A221B215A20FDF76D
:1043F000EBFA27E01848FDF703FA23E01248FEF72E
:104400003BF911480068002809D1114910231A46C8
:10441000009101901B215A20FDF7EAFC05E02B23B7
:104420006A221B215A20FDF7CFFA0BE0FFE706486E
:104430000068012803D10748FDF7E2F900E000BF5A
:1044400000BF00BF00BF1CBDC8040020C400002086
:10445000BC770000513400004141000000200249B7
:104460000860012008717047C804002002460878DF
:104470004B78984201D10120704708784300881C8E
:10448000C05C10700878401CC0B20870C82801DBFE
:10449000002008700020EFE74A7853008A1CD052B1
:1044A0004A78521CD2B24A70C82A01DB00224A70F4
:1044B0004A780B789A4207D10A78521CD2B20A7015
:1044C000C82A01DB00220A70704700001CB50446B0
:1044D000230001F0A6FC0D088384827E7F80818505
:1044E0009999992E9900022211462820FCF7F4FC94
:1044F00002F076F93C2201210846FEF709FD01226F
:1045000011460320FEF704FD012040492023172215
:10451000009101900F210846FDF76AFC01203C49FB
:1045200020231122009101900F215F20FDF760FCF4
:104530006AE038480078002806D0012815D0022803
:1045400024D0032842D132E0902333A20F212D2022
:10455000FDF7D6FC142201210320FEF7D9FC2D48DB
:104560000078401C2B49087031E090232AA20F21CB
:104570004120FDF7C5FC142201210320FEF7C8FCF1
:1045800024480078401C2349087020E0902322A290
:104590000F215520FDF7B4FC142201210320FEF762
:1045A000B7FC1C480078401C1A4908700FE01F2314
:1045B0005F220F212820FDF707FA14220121032092
:1045C000FEF7A6FC00201349087000E000BF00BF02
:1045D0001AE000BF00BF00BF00BF00BF00BF00BFA8
:1045E000022211460020FCF777FC00221146012030
:1045F000FEF78EFC002002F093F8002005490870B9
:104600000648FDF7FDF800BF00BF1CBD2476000082
:10461000C47500002E0000203E0000007D2F000029
:10462000FEB505462B0001F0FCFB0F0984C36FFEAD
:10463000FDFCFBFA786E6EF983C46E00AC48007E18
:10464000002802D0AB48AC4901E00020AB4902464B
:10465000FBF7FCFEAA490880A548007E002802D08E
:10466000A848A94901E00020A8490246FBF7EEFE50
:10467000A7490880A2490988A54A1288881A3121C9
:10468000C943FBF75BFD0646FBF77EFEA1490860C8
:104690000020A149087002F0A3F80120FFF7C0F93B
:1046A0009B490988401A0090FBF779FE0746994814
:1046B00001683846FBF7C1FD06469849FBF764FDE3
:1046C0000190FBF7AEFEC4B223466F2200216C209E
:1046D000FDF77AF937236F2221466C20FDF7ECF9BC
:1046E0000120FFF79DF90746FBF759FE06463246C3
:1046F0001921322002F0C6F8FCF75AFF03220121EB
:104700000846FEF705FCF1E0002211460120FEF705
:10471000FFFB8348FDF774F8E8E0FEF7CDFF0022C9
:1047200011460220FEF7F4FB7E48FDF769F8DDE054
:1047300000BF032201210846FEF7EAFB0422012103
:104740000320FEF7E5FB002000F052FF0120FFF7F9
:1047500067F90746FBF723FE064632461921322049
:1047600002F090F80120FFF75BF969490988401AC7
:104770000090FBF714FE0746664801683846FBF7D1
:104780005CFD66490190FBF7FFFC0646FBF749FE1E
:10479000C4B223466F2200216C20FDF715F93723A0
:1047A0006F2221466C20FDF787F9FCF701FF9DE0A1
:1047B00000BF032201210846FEF7AAFB04220121C3
:1047C0000320FEF7A5FB012000F012FF0120FFF7F8
:1047D00027F90746FBF7E3FD06463246192132204A
:1047E00002F050F80120FFF71BF949490988471AE0
:1047F0003846FBF7D4FD0646464801683046FBF7CD
:104800001CFD46490090FBF7BFFC0190FBF709FE39
:10481000C4B223466F2200216C2005E024E057E05B
:1048200010E00EE00CE00AE0FDF7CEF837236F222F
:1048300021466C20FDF740F9FCF7BAFE56E000BFB8
:1048400000BF00BFE81E38490870E8B2FFF7E8F87B
:10485000002800D14AE0002211460220FEF758FB52
:104860003248FCF7CDFF41E000F0D0FE0120FFF719
:10487000D7F80746FBF793FD06463246192132204A
:1048800002F000F80120FFF7CBF821490988471A08
:104890003846FBF784FD00901E4801680098FBF73E
:1048A000CCFC1E490190FBF76FFC0646FBF7B9FDF7
:1048B000C4B223466F2200216C20FDF785F8372310
:1048C0006F2221466C20FDF7F7F8FCF771FE0DE032
:1048D000002211460320FEF71BFB00221146012097
:1048E000FEF716FB0E48FCF78BFF00BF00BFFEBDB6
:1048F000E00000209A9999999929864000209C40CF
:10490000280000203333333333B353400000694071
:104910002A000020240000202000002000005C422B
:104920007D2F0000513400001D000020314900009F
:10493000FEB505462B0001F074FA0C07ACADABB622
:10494000B6B6B699B6B6A2B601F04AFF0022114635
:104950000320FEF7DDFA3C2201210846FEF7D8FAD3
:1049600052480078012806D0022817D0032828D002
:1049700004284CD138E00420FFF752F80646FBF734
:104980000EFD044622461921322001F07BFF9023C0
:1049900047A208215020FDF7B3FA38E00520FFF7C1
:1049A0003FF80646FBF7FBFC04462246192132205D
:1049B00001F068FF90233FA208215020FDF7A0FAE4
:1049C00025E00620FFF72CF80646FBF7E8FC044636
:1049D00022461921322001F055FF902336A20821EA
:1049E0005020FDF78DFA12E00720FFF719F8064670
:1049F000FBF7D5FC044622461921322001F042FF84
:104A000090232EA208215020FDF77AFA00BF00BFA4
:104A10000220FFF705F80746FBF7C1FC06462146D2
:104A2000FBF75AFD0AD30320FEF7FAFF0746FBF710
:104A3000B6FC06462146FBF759FD03D22048FCF799
:104A4000DFFEFEBD1948007800F076FD01201D490B
:104A500020231A460091019014210A20FDF7C8F97D
:104A60001E2201210846FEF753FA1CE000221146DF
:104A70000120FEF74DFA1448FCF7C2FE13E00022B5
:104A800011460120FEF744FA0F48FCF7B9FE0AE090
:104A900000BF00BF002211460120FEF739FA0A4884
:104AA000FCF7AEFE00BF00BF00BFCAE71D0000203C
:104AB0004D3100004D3200004D3300004D340000F8
:104AC000FD4A0000AC7300007D2F000010B5C04609
:104AD000C04610BD10B5C046C04610BD10B5012A75
:104AE00005D1036801248C402343036004E003687C
:104AF00001248C40A343036010BD00001CB5044694
:104B0000230001F08EF90906282927232425262DC4
:104B1000360001F065FE002211460120FEF7F8F98B
:104B20000120154920231A46009101900F211E20D3
:104B3000FDF75EF9902311A217215020FDF7E0F94F
:104B4000012211461046FEF7E3F912E000BF00BF54
:104B500000BF00BF00BF00BF0A48FCF751FE08E0DD
:104B6000002211460120FEF7D3F90648FCF748FE63
:104B700000BF00BF1CBD00002C750000B3ACCFDE31
:104B8000000000007D2F00001CB5044620680028AE
:104B90000AD10120164906231022009101903221EA
:104BA0000A20FDF725F922E02179206888420AD100
:104BB0000120104906231022009101900A21084685
:104BC000FDF716F913E001200A490623102200918F
:104BD00001900A210846FDF70BF90120044906233C
:104BE00010220091019032210A20FDF701F91CBD2D
:104BF00084760000907600000020024908600420BE
:104C000008717047240300201CB50446230001F0FE
:104C100008F90C07476685B2B2B2B23EB2B2A2B290
:104C200001F0DEFDFFF7E8FF5448FFF7ADFF544900
:104C30005248FDF7D0F95148006881004F480830CC
:104C4000425890231B210A20FDF75AF90820FEF74D
:104C5000E7FE4A49096849004A4A515A88420AD13E
:104C6000012049490C231022009101901B215A2058
:104C7000FDF7BEF805E027236A221B215A20FCF726
:104C8000A3FE032201210846FEF742F973E0002249
:104C900011460120FEF73CF93C48FCF7B1FD6AE003
:104CA0003648FCF7BBFD0820FEF7BAFE3349096819
:104CB0004900344A515A88420AD1012032490C2312
:104CC0001022009101901B215A20FDF791F805E078
:104CD00027236A221B215A20FCF776FE4BE0274847
:104CE000FDF7CAFC0820FEF79BFE2449096849002D
:104CF000244A515A88420AD1012023490C23102208
:104D0000009101901B215A20FDF772F805E027233E
:104D10006A221B215A20FCF757FE2CE01748006836
:104D2000030001F07EF8050405060711150000BF19
:104D300000BF00BF114800684000124A115A00220B
:104D40000820FEF745FF04E01048FCF759FD00E09D
:104D500000BF00BF0FE0094800684000094A115A2F
:104D600001220820FEF734FF012009490870094894
:104D7000FCF746FD00BF00BF1CBD0000240300205F
:104D8000640000206C780000AC7500005134000015
:104D90001C000020C9380000024690680840002826
:104DA00001D0012070470020FCE70246002010607F
:104DB00008784B7818438B781843CB7818434023F6
:104DC000184310600020906070470246D1600020B8
:104DD000704741607047000010B50446230001F0A1
:104DE00020F80F091213110D0E0F101C1C1C1C1C97
:104DF00015141C00002001F01FFE0EE000BF00BFD4
:104E000000BF00BF00BF00BF00BF00BF012001F016
:104E100013FE0348FCF7F4FC00BF00BF10BD000008
:104E20007D2F000010B5C046C04610BD70B50446C9
:104E300000252078030000F0F4FF0504050C10188D
:104E40001C0018E0032000F035FA032000F0FCF904
:104E500011E0032000F0D2F90DE00321084600F034
:104E600037FA032000F000FA05E0072000F094F97B
:104E700001E0042500BF00BF2078012100F00CF8FC
:104E8000207800F001FA607800F05EF9A07800F078
:104E90006FF9284670BD000070B505460C46002627
:104EA00000F088FF002C01D0012000E00020044623
:104EB0002B0000F0B6FF05041731456276003B4831
:104EC000006840084000E107C90F084337490860FF
:104ED00000BF002C05D03548C0680005C00F002871
:104EE000F7D060E03248C068032108433049C86009
:104EF0002E480068022188436100022211400843C5
:104F00002A49086000BF002C05D0284800694006E7
:104F1000C00F0028F7D046E02448006804218843E9
:104F2000A1000422114008432049086000BF002C62
:104F300005D01E484069C004C00F0028F7D032E0F9
:104F40001B484038C0680321890308431849403989
:104F5000C8601648006808218843E1000822114013
:104F600008431249086000BF002C05D00F48806933
:104F70004006C00F0028F7D015E00C48006810214B
:104F8000884321011022114008430849086000BFEE
:104F9000002C05D00548C06B4003C00F0028F7D097
:104FA00001E0042600BF00BF304670BD0020004075
:104FB000C00D024030B589B000241422564904A81F
:104FC000FBF7D0F85448143000680390002000909C
:104FD0000190029051480188684601814F484188FC
:104FE0006846C1804D488188684681804B48C188A9
:104FF0006846418049482030018868460180484819
:1050000000680006450F2B0000F00BFF05042E3052
:105010003E4178004248C0684005400D6946098914
:10502000884201D1089C1EE03D48C0684005400D03
:105030006946C988884201D1079C14E03848C06895
:105040004005400D69468988884201D1069C0AE0E6
:105050003348C0684005400D69464988884201D1FF
:10506000059C00E0049C4BE02E4C49E0684600881B
:105070002B4949698905890D884202D16846C4894E
:1050800001E0684684893BE00124E40338E02448D9
:10509000C06B8007800F032829D16846008920490A
:1050A000C9684905490D884201D1089C20E068463D
:1050B000C0881B49C9684905490D884201D1079C30
:1050C00016E0684680881649C9684905490D884236
:1050D00001D1069C0CE0684640881149C968490521
:1050E000490D884201D1059C02E0049C00E00D4C72
:1050F0000B48C06BC005000F444301E0002400BF13
:1051000000BF074800684005410F2046C8400446DC
:10511000204609B030BD0000A46C0000000C100057
:10512000002000400048E80110B50024FFF742FFCE
:10513000044604480068C004810F2046C840044665
:10514000204610BD0020004010B5044600F032FE9D
:10515000064800680721090288432102072212023B
:105160001140084301490860002010BD00200040A4
:1051700010B5044600F01EFE064800680321C9026F
:105180008843E1020322D20211400843014908602A
:10519000002010BD0020004010B501460020064A46
:1051A000D26B0723DB039A43CB030724E40323409A
:1051B0001A43014BDA6310BD0020004070B504466D
:1051C0000D462A4621460248FFF788FC002070BDA4
:1051D0002020004001464A00064BD2181288500594
:1051E000400D054AD268D20AD2020243024BDA606D
:1051F00000207047000C10000020004010B5014650
:105200000020064A526903239B029A438B0203241F
:10521000A40223401A43014B5A6110BD00200040F4
:1052200001464A00064BD21812889005800D054AA7
:105230005269920A92020243024B5A61002070475F
:10524000000C10000020004010B501460020054A67
:10525000126930239A430B01302423401A43014B37
:105260001A6110BD0020004010B501460020054A1B
:10527000926930239A430B01302423401A43014B97
:105280009A6110BD0020004070B5044600252646F6
:1052900000F090FD06480068E02188437101E0229B
:1052A000114008430249086000F02CF8284670BD00
:1052B0000020004001460020044A12699208920032
:1052C0008B079B0F1A43014B1A6170470020004067
:1052D00030B5024600200A4B9B690C24A34394007E
:1052E0000C252C402343064CA36123469B699B0855
:1052F0009B008C07A40F2343014CA36130BD000029
:105300000020004010B5FFF755FE0149086010BDB0
:105310000000002010B5FFF7F5FF10BD10B5C04626
:10532000C04610BD10B5C046C04610BD10B500F057
:1053300011F810BD10B5C046C04610BD10B5C0462E
:10534000C04610BD10B5C046C04610BD10B5C04621
:10535000C04610BD10B500210220FBF753FF012805
:1053600009D1FDF755FDFDF7C5F9FBF7A9FD0021B2
:105370000220FBF739FF10BD10B5C046C04610BD76
:1053800010B500F001F810BD10B50021274800F05D
:105390008CF8002848D00021244800F067F8234802
:1053A00000F0C6F822490870224921480078FFF72A
:1053B00073F821480078002804D001280AD0022878
:1053C00031D117E01A4800789B2802D101201A49F0
:1053D000087028E0164800781849087008460078D8
:1053E000172803DC02201449087002E0002012494B
:1053F000087018E011480078401E104908700846EF
:10540000007800280ED10A4800789D2807D1094865
:105410002038807F401CC1B20648203881770020A8
:105420000549087000BF00BF10BD0000000100402A
:10543000140000204A01002018000020190000205C
:1054400010B50121014801F05BFB10BDCA6E0000E0
:1054500010B55B210348C1770121034801F050FBDF
:1054600010BD00002A010020CB6E000070B504467C
:105470000D460022294620461430FFF72FFB00205E
:1054800070BD70B504460D4601222946201DFFF768
:1054900025FB002070BD70B504460D46012229464B
:1054A000201DFFF71BFB002070BD70B504460D46A4
:1054B0000026294620461030FCF787FD0646304678
:1054C00070BD0000FEB505460C460127174903C90B
:1054D00001910090002C01D10420FEBD00206860E5
:1054E000608861780843A188084321780843686090
:1054F0002078402802D02078C02813D1A088C11776
:10550000C90D0918491289006A46515A8EB2E268DB
:10551000B2401146A068FAF7FBFDA86104212846B5
:10552000FFF7AFFF00273846D7E70000BC6C00004C
:1055300001460868C0B2704738B5044606A0006846
:1055400000906846447058210448C177022168469B
:1055500001F0D6FA38BD0000580000002A010020F2
:1055600070B504460D4600BF03212046FFF79DFF9E
:105570000028F9D02068000A0002E9B20843206040
:1055800000BF01212046FFF790FF0028F9D001213C
:105590002046FFF76BFF002070BD000010B55321BF
:1055A0000348C1770121034801F0AAFA10BD0000A9
:1055B0002A010020C56E000010B554210348C177B0
:1055C0000121034801F09CFA10BD00002A010020CF
:1055D000C66E000010B555210348C177012103486C
:1055E00001F08EFA10BD00002A010020C76E0000F5
:1055F00038B5044604A00068009068464470022153
:1056000001F07EFA38BD00005A00000010B50121FB
:10561000014801F075FA10BDC46E000010B55621A6
:105620000348C1770121034801F06AFA10BD000068
:105630002A010020C86E000010B50121014801F0C8
:105640005FFA10BDC96E000010B50446A07F503847
:10565000030000F0E6FB0D08575F6C6D6E6F81A4D0
:10566000A5AFB7C4C800E07F604988762020005D00
:1056700008822120005D08752220015D5B4841758C
:105680002220005D04210840584988752320015DCF
:105690005648C1752420015D544801762520005DDF
:1056A00000022621095D0843504948802720005DFB
:1056B00000022821095D08434C4988802920005DAB
:1056C00008772A20005D00022B21095D0843474925
:1056D000C8802C20005D00022D21095D084343494C
:1056E00008812E20005D00022F21095D08433F49FB
:1056F00048813020005D00023121095D08433B49AB
:10570000888171E0E07F00022021095D084337496C
:10571000088069E0A17F3F20005D814200D063E006
:1057200001203249C8760B20FDF71AFB5CE000BF70
:1057300000BF00BFA17F3F20005D814200D053E049
:10574000E07F002801D0012000E000202749C87632
:105750000B20FDF705FB47E0E07F002809D0E07F44
:1057600022494876012001F067F92148FCF748F802
:1057700012E02020005D012805D101F05DF91D48EF
:10578000FCF73EF808E02020005D022804D1022248
:1057900011461046FBF7A0FBFFF752FE24E000BFC6
:1057A000A17F3F20005D814200D01DE00B20FDF76E
:1057B000D7FA19E0E07F00022021095D08430B4978
:1057C000088011E0A17F3F20005D814200D00BE006
:1057D000E07F064948770B20FDF7C2FA04E00B2072
:1057E000FDF7BEFA00E000BF00BF10BDE0000020E2
:1057F000A1400000CD440000F8B504460020009010
:10580000002500263E20005D002800D1F8BD684636
:1058100001F0E0F9002804D100213E2001550125C6
:10582000BDE0684601783C20025D005D401CC3B2CB
:105830003C200355A15460480078030000F0F1FAC1
:1058400005040C1F6F93AC00684600789B2802D1BA
:10585000012059490870A0E06846007803280BDD54
:1058600068460078182807DA6846007853490870B7
:1058700002205149087001E0012590E08DE0504878
:10588000007800026946097808434D4908800846B7
:1058900000884C4988421DD1684602783D20005D51
:1058A000401E21461E310A543C20005D43490978C0
:1058B00088420FD100204449087068460178424868
:1058C00002780078401C404B1870404881540320F7
:1058D000394908703C20005D38490978884210D168
:1058E0000020394908706846017837480278007806
:1058F000401C354B18703548815403202E490870E0
:105900000CE0684600783D21095D3D22125D521C85
:10591000D3B23D22135522461E3250543DE0684614
:105920000178294802780078401C274B18702748D6
:10593000815418460078022814D13D20005D411C96
:10594000601CFBF719FE06462048007800021F493C
:1059500049780843B04203D104201749087001E098
:1059600001251CE019E0684600789D2811D12046E9
:10597000FFF76AFE00213C2001553D200155002023
:105980000D4908701248807F401EC1B210488177CF
:1059900001E0012503E000E000BF00BF00BF002DD3
:1059A00007D000213D2001553C200155002002492F
:1059B000087000BF2AE7000010000020110000203E
:1059C0000C0000209D5C0000120000200E00002052
:1059D0002A0100201CB50446230000F022FA0C071F
:1059E000466482ABABABAB3DABAB9CAB00F0F8FE1F
:1059F00000F0B0F85048FFF7C7F850494E48FCF7A0
:105A0000EAFA4D48006881004B480830425890231C
:105A10001B210A20FCF774FA0E20FEF701F8464914
:105A20000968474A515C88420AD1012045490C2344
:105A30001022009101901B215A20FCF7D9F905E0B2
:105A400027236A221B215A20FBF7BEFF03220121D4
:105A50000846FDF75DFA6DE0002211460120FDF7D2
:105A600057FA3948FBF7CCFE64E03348FBF7D6FE23
:105A70000E20FDF7D5FF30490968314A515C884254
:105A80000AD101202F490C231022009101901B21E3
:105A90005A20FCF7ADF905E027236A221B215A2082
:105AA000FBF792FF46E02448FCF7E6FD0E20FDF7E9
:105AB000B7FF21490968224A515C88420AD1012076
:105AC00020490C231022009101901B215A20FCF741
:105AD0008FF905E027236A221B215A20FBF774FF68
