:020000040000FA
:10000000500B0020D5000000EF000000ED210000A3
:1000100000000000000000000000000000000000E0
:10002000000000000000000000000000F3000000DD
:100030000000000000000000F5000000B14F0000CB
:10004000053B00000D3B0000153B00001D3B000080
:10005000B9180000C1540000055500000D550000FE
:10006000A12F0000A92F00002D4C0000354C0000EE
:1000700099270000A1270000A9540000B1540000F6
:10008000B9540000992F0000C9540000D154000059
:10009000D9540000F53A0000ED5D00003142000047
:1000A000EB090000FD3A0000195D0000215D000031
:1000B000B12F0000532F0000211A0000E9150000A5
:1000C0000348854600F05CFC004800477B6D00005B
:1000D000500B002009480A4A002100A1814200D9A2
:1000E0000244084802600848804708480047FEE785
:1000F000FEE7FEE7FEE7FEE7FEE700000000002067
:100100000000000008ED00E0A1540000C100000064
:1001100030B50B46014600202022012409E00D469F
:10012000D5409D4205D31D469540491B2546954027
:1001300040191546521E002DF1DC30BD70B500246B
:100140002546002801DA01244042002901DA012570
:100150004942FFF7DDFFAC4200D04042002C00D006
:10016000494270BD03460B439B0703D009E008C911
:10017000121F08C0042AFAD203E00B780370401C57
:10018000491C521EF9D27047F8B502464A40D40FB6
:1001900042004B0052085B089A4202D202460846CF
:1001A00011464A0023D0C30D4A00DDB2120EAD1A2B
:1001B000202D35DA49020126490AF6058A19002C54
:1001C00000D0524220214F1B1146B9402A4110183D
:1001D000C20D9A4221D0002C17D0012D08DCDA057F
:1001E000801AD20F8019D207DBB200F0D2F9F8BD25
:1001F000DA05801A012340001B06C01880185A42F5
:100200008018CA0F1043490007E04908C20711438C
:10021000DA05801A80194008801800F0B2F9F8BD9C
:1002200061000122511A001BF7E70122D207514059
:10023000AAE70122D2075040A6E770B502464A401D
:10024000D50F40004A00ED0740085208002814D09E
:10025000002A12D0C40DD30D41020120C005520264
:10026000490A520AE41A091812187D34914201D33E
:10027000641C00E04900002C01DA002070BD00235E
:10028000914201D3891A0343400849000028F7D15D
:1002900000290AD0914202D10121C90705E091420B
:1002A00001D2012101E00121C943E005C018401934
:1002B00000F067F970BD0000F0B51FB488B00B996D
:1002C0000998002448400999C00F4900490809913C
:1002D000C0070B990090490049080B9109990898AB
:1002E000A64608431CD00B990A98084318D00998D1
:1002F00001244000420D4800410D099824050003E7
:10030000000B204309900B980003000B20430B9037
:1003100050181C494018002201901446104605E070
:10032000002001460DB0F0BD032801DA034600E0CD
:1003300003239C46C11A0AAE0AE05F0008ADED5BDC
:100340004F00F75B7D430027AA187C41491C5B1EC8
:100350006145F2DD410004AB5A522104120C0A43FC
:10036000240C401C0828DFDB01980290009970469D
:1003700001910090059B049A0799069800F04FF9A7
:10038000D0E700000DFCFFFFC217C10F504010B5B1
:100390004018CA079623002100F0FBF810BD10B5E5
:1003A00000229623114600F0F4F810BD0EB5C217D6
:1003B000C10F5040CA0740180021054B029301921B
:1003C00000910A460B4600F02AF903B000BD000078
:1003D000330400000EB505490291002100910A4640
:1003E0000B46019100F01BF903B000BD330400007F
:1003F000C20F410040020123400ADB05D207090E6B
:10040000C0187F2901DA00207047962903DC962363
:10041000591AC84001E096398840002AF4D0404279
:100420007047410040020122400AD205090E80189F
:100430007F2901DA00207047962903DC9622511AA1
:10044000C840704796398840704700004A00090349
:100450000123090B1B051943094B10B5520D9A4294
:1004600001DA002010BD064B34339A4203DC9A1A9D
:1004700000F076F810BD03495118884010BD000007
:10048000FF030000CDFBFFFFC20FD2074000400872
:100490000BD0C10D0723DB01C91840020905400A32
:1004A0001143C208400711437047002001467047BE
:1004B00010B5002904DB0124E40740428C412146A9
:1004C000002B04DB1C460123DB075242A3418B4275
:1004D00000D1824210BD00000122D207002800DBBB
:1004E000101A002900DB511A814270470122D207FD
:1004F000002800DB101A002900DB511A88427047DF
:10050000F0B51FB40646002082B005464024019194
:1005100000901BE0019922460F46304600F020F87B
:10052000049A059B801A994110D310461946224619
:1005300000F038FA361A8F41019722460120002137
:10054000009F00F02FFA38184D4100902046641E9D
:100550000028DFDC019B00982946324607B0F0BD39
:1005600010B5202A04DB0846203AD040002110BDF7
:100570000B46D340D0402024A21A9140084319468C
:1005800010BD002904DA401C490001D14008400098
:10059000704770B40024050C05D11024000402D16A
:1005A000002921D01124050E01D100020834050FC5
:1005B00001D10001241D850F01D18000A41C002859
:1005C00001DB4000641C002908D020252E1B0D46AD
:1005D000F540A14000D001212943084301061B1B1F
:1005E000000ADB1D02D5002070BC7047DB0518181F
:1005F00080180029F8DA401C4900F5D170BC400889
:100600004000704710B5002B08DA0024401C6141FF
:1006100092185B411A4301D14008400010BDF0B56B
:100620001FB482B005460C0003D0084605F0DEFC7E
:1006300002E005F0DBFC203002460090214628460F
:1006400000F0B0F9049B059A04460F461843114385
:10065000084314D0184610431BD0009840210A1AB2
:1006600018460599FFF77CFF05460E46009A059946
:10067000049800F097F9084305D0012004E02046D3
:10068000394607B0F0BD0020C11705430E432C4387
:10069000374300990E986305401A7905E40A002251
:1006A0000C43FD0A0A3002D500200146E9E70105A6
:1006B000101969410C9C0D9D00196941FFF7A2FFBB
:1006C000DFE70000F0B507460846584087B0C00F86
:1006D000049048000E46590040084908BC1A884159
:1006E00005D2384631461E4617460B46024658008C
:1006F000400810434CD0300D039040055900400D88
:10070000490D0590401A0290402872DA1803012121
:10071000000B09050843019004980092002805D0B9
:100720000199524200208841009201900298402194
:100730000A1A0199009800F035F905460C466B46F7
:1007400007CB00F03FF9C0197141039A0E0D002349
:10075000D71756401A467A40164344D0049A002AC6
:100760002DD0029A012A039A15DC1205C01A914174
:1007700001263605001C7141D20F059ED207009359
:10078000019202962A462346FFF749FF07B0F0BDC3
:1007900038463146FAE71605224A0F46B218C01A03
:1007A000B74101210905001C4F4100187F41114646
:1007B00018187941E20F10436D19644113E0E20704
:1007C0006D0815436408C2071443039A01261205F5
:1007D000C01A91413605001C7141CE0740083043D4
:1007E0004908C01851412A462346FFF70BFFCDE7C1
:1007F000FFE7049801224000C117121A00238B4121
:1008000004983146C417381AA141EEE730B40124E8
:10081000E407634030BC55E730B40124E40761408D
:1008200030BC4FE70000E0FFF0B50C465C4085B0FF
:10083000E40FE40703944C00002664085900944632
:10084000490802460296224321D062460A431ED03E
:100850006200570D4A000E032303550D0124024682
:100860002C492405781B1B0B360B401823432643C9
:10087000614600901C46501AB44103D30098401CB6
:10088000009002E0921800985B41002803DA0020F3
:10089000014605B0F0BD0020012109050746864646
:1008A00011E064461D46141BB54106D36546521B34
:1008B000B341744607430C43A646CD074008490898
:1008C000284392185B4105460D43EAD11046184370
:1008D00013D06046194650407140084306D0604628
:1008E000101AB34106D20122002306E000220123A0
:1008F000DB0702E00122D243531000987446010541
:10090000381C6141029C039D00196941FFF77AFE82
:10091000BFE70000FD0300004A0009030123090BA3
:100920001B0519430A4B10B5520D9A4202DA0020FA
:10093000014610BD064B34339A4203DC9A1AFFF786
:100940000FFE10BD034BD21800F02CF810BD0000B4
:10095000FF030000CDFBFFFF10B5002904DB0124DD
:10096000E40740428C412146002B04DB1C46012356
:10097000DB075242A341994200D1904210BD0000D2
:10098000064C0125064E05E0E36807CC2B430C3CE2
:1009900098471034B442F7D3FFF796FBB09B0000A2
:1009A000D09B000010B5202A04DB0146203A91407C
:1009B000002010BD914020239C1A0346E3401943B8
:1009C000904010BD10B5202A06DBCB170846203A10
:1009D0001041C1170B4306E00B461341D0402024C1
:1009E000A21A91400843194610BD10B5C046C04632
:1009F00010BD08B501211F2004F0A6FC002001F065
:100A000031F8042004F0ACFC00216846017041700C
:100A1000817004F0D1FA08BD1CB50621684606F0C5
:100A20003DF801211C2004F08FFC00216846417034
:100A300001706A460721002001F06AFB01220721AC
:100A4000002001F0ADFB6A460521002001F060FBAB
:100A500001220521002001F0A3FB1CBD1CB50621CD
:100A6000684606F01BF801211C2004F06DFC0021F3
:100A7000684601706A460221002001F049FB01220C
:100A80000221002001F08CFB0121684601706A46BA
:100A90000321002001F03CFB01220321002001F092
:100AA0007FFB1CBD10B5112004F080FC0121022049
:100AB00004F0B8FA022004F0ADFC002004F050FC71
:100AC000002004F0A7FC0021022004F0ABFA7D20F6
:100AD000C00005F0F3FF10BD08B50121062004F0A9
:100AE00033FC10216846017000214170C170817093
:100AF0006946024804F01FFA08BD000000080040E3
:100B0000B0B588B004460F461546142103A805F079
:100B1000C5FF0A21684605F0C1FF0121082004F045
:100B200013FC0221684601730021C1738173417374
:100B300001740121417400218174C17403A9002052
:100B400000F0FEFC01222146002000F0D3FB2A46E3
:100B50000121002000F0E6FB072168468171002199
:100B6000C17101210172002141726946002000F02B
:100B700023FC3146002000F0F3FB002000F064FB72
:100B800008B0B0BD1FB5062102A805F087FF0621F9
:100B9000684605F083FF01211C2004F0D5FB0021ED
:100BA000684601706A460521C02001F0B1FA0021B3
:100BB0006846017202AA0121002001F0A9FA03226D
:100BC0000121002001F0ECFA1FBD70B586B004468B
:100BD000142101A805F062FF0121082004F0B4FBF4
:100BE00000216846017141720521C17101218172A4
:100BF000002101728171417101A9022000F054FCB1
:100C000003208003001B85B22946022000F044FB2C
:100C100003208003001B86B23146022000F04CFB0B
:100C20000021022000F01CFB022000F02FFC01221A
:100C30000321102000F0B4FE06B070BD00B587B0EF
:100C4000102103A805F02AFF0C21684605F026FFB5
:100C50000121084604F078FB402168460173002119
:100C6000C18141734B21C9010691012149020182D1
:100C700004F020FB059003A90A4804F0E9FC0021D8
:100C8000084804F0B9FC0121064804F0B5FC002135
:100C9000044804F0C6FC01220321072000F080FE76
:100CA00007B000BD0001004010B50446082C77D005
:100CB00004DC002C07D0032C19D182E00B2C56D079
:100CC0000C2CF9D114E004F02FFD05F0D1FE962391
:100CD0004CA216211A2001F07DF93C220121084680
:100CE00002F0BCF905220121032002F0B7F987E0E8
:100CF00046480078002806D0012810D002281AD0D3
:100D000003282ED123E025236B2223215F2000F02E
:100D1000C3FE3E480078401C3C49087025E025236E
:100D2000612223215F2000F02FFF38480078401C0B
:100D30003649087019E0252366222321642000F03B
:100D400023FF32480078401C304908700DE025230D
:100D50006B222321692000F017FF00202B49087027
:100D600003E000202949087000BF00BF48E00120CF
:100D700027490870102002F0D5FE002802D0012873
:100D80001DD10EE03C220021012002F067F905226E
:100D90000021032002F062F91E4800F083FD0EE0FE
:100DA00020E03C220021012002F058F90522002118
:100DB000032002F053F9184800F074FD00BF00BF93
:100DC0001EE000221146012002F048F90522002110
:100DD000032002F043F901200D4908700F4800F08C
:100DE00061FD0DE000221146012002F037F90522D5
:100DF0000021032002F032F9064800F053FD00BF45
:100E000000BF10BDB5F7C6BDD6D00000D50000208C
:100E10001C00002039190000CD390000E16D0000F0
:100E200010B530484078002857D02E484079002827
:100E30001DD02C480078002819D001202949C870FD
:100E400000220121104600F09BFA2648007925492E
:100E50000978884245DB00202249087100221146AA
:100E6000104600F08DFA00201E49487139E01D48F7
:100E70004079002826D11B488078002822D01948C4
:100E800000791849897888422BDB16484078401E43
:100E90001449487008464078002809D0002008719D
:100EA0000120487100220121104600F069FA18E083
:100EB00000200C49C870087100221146104600F04D
:100EC0005FFA0EE000221146104600F059FA0020A9
:100ED00004494870C870087103E000200149C870D7
:100EE000087110BD040000200448C078002804D018
:100EF00002480079401C0149087170470400002035
:100F000070B504460D4616460A2002F00BFE002876
:100F100001D1012000E00020C007C00F002800D050
:100F200070BD0120044948710020087108464470D2
:100F30000570867000BFF3E7040000201CB504466E
:100F4000230005F06AF80C0746698CC1C1C1C13D98
:100F5000C1C1AEC105F08CFD00F0C6F85B4803F0DE
:100F6000C7FE5B49594801F0A6F85848006881005F
:100F7000564808304258962316210A2001F02AF8D4
:100F80000C2002F0CFFD51490968524A515C884259
:100F90000AD1012050490C231022009101901B21FD
:100FA0006C2000F08FFF05E027237C221B216C20A2
:100FB00000F072FD03220121084602F04FF883E0A1
:100FC00000221146012002F049F8444800F06AFC72
:100FD0007AE003220121084602F040F83B4800F085
:100FE0006FFC0C2002F09EFD38490968394A515CBB
:100FF00088420AD1012038490C2310220091019027
:101000001B216C2000F05EFF05E027237C221B21C2
:101010006C2000F041FD57E003220121084602F058
:101020001DF82A4801F0C0FB0C2002F07BFD274987
:101030000968284A515C88420AD1012026490C23BC
:101040001022009101901B216C2000F03BFF05E075
:1010500027237C221B216C2000F01EFD34E01B485E
:101060000068002806D0012805D0022804D00328F3
:1010700014D10AE000BF00BF14480068154A115C93
:1010800000220C2002F026FE09E000221146012079
:1010900001F0E4FF114800F005FC00E000BF00BFD4
:1010A00012E00A4800680B4A115C01220C2002F091
:1010B00011FE01200A4908700022114601F0CEFFFE
:1010C000084800F0EFFB00BF00BF1CBD600300201C
:1010D00078000020067B00003C7800006D350000A1
:1010E0001C000020CD3900000020024908600320C8
:1010F000087170476003002010B50446002C06D02C
:10110000082C71D00B2C56D00C2C14D114E005F007
:10111000AFFC962345A216211A2000F05BFF04F0D5
:101120001FFB14220121084601F098FF052201212E
:10113000032001F093FF76E03E480078002806D0B7
:10114000012810D002281AD003282ED123E025230D
:101150006B2223215F2000F09FFC36480078401C62
:101160003449087025E02523612223215F2000F007
:101170000BFD30480078401C2E49087019E02523EB
:1011800066222321642000F0FFFC2A480078401CDE
:10119000284908700DE025236B222321692000F0E7
:1011A000F3FC00202349087003E000202149087067
:1011B00000BF00BF37E001201F490870102002F077
:1011C000B1FC002802D001281DD10EE000221146FA
:1011D000012001F043FF05220021032001F03EFF22
:1011E000164800F05FFB0EE00FE0002211460120E0
:1011F00001F034FF05220021032001F02FFF1048E9
:1012000000F050FB00BF00BF0DE00022114601209E
:1012100001F024FF05220021032001F01FFF0948EF
:1012200000F040FB00BF00BF10BD0000D7D4BCECF5
:10123000D6D00000D40000201C0000203919000086
:10124000CD390000E16D000010B5014600200B0211
:10125000024C1A190023536110BD0000000C00401D
:1012600030B5024600201402034D631901248C405E
:10127000E4435C6130BD0000000C004070B50246E4
:1012800000201502034EAB191C692546CD40E80726
:10129000C00F70BD000C004030B5024600201402A3
:1012A000044D63191C68240C24048DB22C431C606B
:1012B00030BD0000000C004030B502460020140292
:1012C000044D63195C68240C24048DB22C435C60CB
:1012D00030BD0000000C004010B5014600200B029C
:1012E000034C1A19D3685B085B005B1CD36010BD0C
:1012F000000C0040F0B503460C4600201D02084ECD
:10130000A9190D682D0C2D04A6B235430D60CD68CA
:101310008026B543D60180273E403543CD60F0BDE1
:10132000000C004070B504460B46002025020B4E11
:10133000A919002B06D1CD6B2D0C2D0496B2354387
:10134000CD6309E0012B06D10D6C2D0C2D0496B256
:1013500035430D6400E0012070BD0000000C00402A
:1013600030B5024600201402044D63195C68240C59
:1013700024048DB22C435C6030BD0000000C0040A2
:10138000F0B503460C4600201D020A4EA9190D6B4C
:10139000B614B543260301273F033E4035430D6392
:1013A0000D6B7E10B543D6027F103E4035430D6372
:1013B000F0BD0000000C004070B503460A46002056
:1013C0001C022A4D61194C6A1025AC434C62CC6951
:1013D000E408E40055786D076D0F2C43CC61CC69AF
:1013E0000825AC439578ED00082635402C43CC61A8
:1013F0004C6A4025AC43D578AD01402635402C439E
:101400004C62CC6803256D05AC4315796D05032648
:10141000760535402C43CC604C6A2025AC434C62A9
:10142000CC697025AC4395792D01702635402C434D
:10143000CC61CC698025AC43D579ED01802635405F
:101440002C43CC614C6A8025AC43157AED013540C4
:101450002C434C624C6A03252D03AC43557A2D0373
:101460000326360335402C434C6270BD000C00400F
:1014700010B5014600200B02034C1A19D3685B0813
:101480005B005B1CD36010BD000C004010B5014632
:1014900000200B02034C1A19D3682415A3431B190F
:1014A000D36010BD000C004070B503460A46002012
:1014B0001C02224D6119CC68AD00AC4315782D0398
:1014C0000326360335402C43CC60CC6801256D02E1
:1014D000AC4355786D020126760235402C43CC6032
:1014E000CC687510AC4395782D02761035402C43AE
:1014F000CC60CC687025AC43D5782D017026354082
:101500002C43CC60CC680825AC431579ED00082647
:1015100035402C43CC60CC680425AC435579AD00F4
:10152000042635402C43CC60CC680225AC43957929
:101530006D00022635402C43CC6070BD000C00408D
:1015400070B503460A4600201C02264D6119CC687E
:10155000AD00AC4315782D030326360335402C43EC
:10156000CC60CC687025AC4395782D017026354051
:101570002C43CC60CC680425AC43D578AD00042660
:1015800035402C43CC60CC680225AC4315796D0006
:10159000022635402C43CC60CC680825AC435579F5
:1015A000ED00082635402C43CC60CC68F502AC43F6
:1015B0009579AD03F60235402C43CC60CC68F5003C
:1015C000AC43D5796D04F60035402C43CC60CC6833
:1015D000B502AC435578ED06B60235402C43CC60DD
:1015E00070BD0000000C004010B5C046C04610BDE4
:1015F00070B502460B46FF25FF2408E01178521C07
:1016000061400748405C684004460648455C18460F
:101610005E1EB3B20028F1D12802204370BD000045
:10162000546F0000547000001CB5012002F07AFADB
:101630000446032002F076FA844203D8012034499C
:10164000087021E0012002F06DFA0446022002F049
:1016500069FA844203D302202D49087014E0012066
:1016600002F060FA2B49097E002902D0FF21633184
:1016700001E0E1218900884203D203202449087057
:1016800002E00420224908702148007822490978A4
:1016900088423BD01E4800781F49087008460078F1
:1016A000012806D002280FD0032818D004282CD1F6
:1016B00020E00120194920231A46009101901421AD
:1016C0000A2000F0FFFB20E00120154920231A46E4
:1016D0000091019014210A2000F0F4FB15E0012094
:1016E000104920231A460091019014210A2000F08D
:1016F000E9FB0AE001200C4920231A4600910190E1
:1017000014210A2000F0DEFB00BF00BF1CBD00005A
:101710001F000020E000002020000020BC75000019
:101720003C7500003C740000BC74000010B5044619
:10173000002C06D0082C71D00B2C56D00C2C14D1B8
:1017400014E003F0FFFF05F093F9962344A216215D
:101750001A2000F03FFC0A220121084601F07EFC1D
:1017600005220121032001F079FC76E03E48007853
:10177000002806D0012810D002281AD003282ED124
:1017800023E025236B2223215F2000F085F93648D2
:101790000078401C3449087025E02523612223216C
:1017A0005F2000F0F1F930480078401C2E490870A5
:1017B00019E0252366222321642000F0E5F92A4858
:1017C0000078401C284908700DE025236B22232156
:1017D000692000F0D9F900202349087003E00020B7
:1017E0002149087000BF00BF37E001201F49087081
:1017F000102002F097F9002802D001281DD10EE038
:101800003C220021012001F029FC052200210320B7
:1018100001F024FC164800F045F80EE00FE03C22F1
:101820000021012001F01AFC05220021032001F013
:1018300015FC104800F036F800BF00BF0DE005228F
:101840000021032001F00AFC00221146012001F0D2
:1018500005FC094800F026F800BF00BF10BD0000DD
:10186000D7D4BCECD6D00000D60000201C0000204D
:1018700039190000CD390000E16D000000B51223D8
:101880001A220A21084600F007F93A231A223221C7
:101890000A2000F001F92C23622216210A2000F010
:1018A000FBF800BD10B50446024804600168002042
:1018B000884710BDDC00002010B5C046C04610BDF2
:1018C0001CB504462068002830DD2068401E2060DA
:1018D000FFF7D4FF20688100204608304258962345
:1018E00016210A2000F076FB206800280AD101208A
:1018F0000F49062310220091019032210A2000F0A6
:10190000E1FA13E001200B49062310220091019017
:101910000A21084600F0D6FA0120054906231022C4
:101920000091019032210A2000F0CCFA1CBD000089
:1019300014790000207900001CB50446002C02D068
:10194000082C23D111E005F093F801201049202341
:101950001A46009101901421322000F0B3FA0122BE
:101960001146104601F07AFB10E0002211460120DA
:1019700001F074FB07480078002803D00648FFF701
:1019800091FF02E00548FFF78DFF00BF00BF1CBDBF
:101990003C7700001C0000206D350000C9300000BD
:1019A00070B504460E4615462046002805DBC206E3
:1019B000D20E01219140184A116000BF31462046E5
:1019C00004F03AFB012D0AD12046002805DBC206AF
:1019D000D20E01219140114A116000BF1BE0204648
:1019E000002816DBC206D20E012191400B4A80323C
:1019F000116000BF00BF00BFBFF34F8F00BF00BF2B
:101A000000BF00BF00BF00BFBFF36F8F00BF00BFAC
:101A100000BF00BF00BF70BD80E200E000E100E059
:101A200010B5C046C046C046C04610BD70B502469F
:101A30001378547818022043054600210CE0442016
:101A40004843074E305AA84204D1442048438019E5
:101A5000801C70BD481C81B24629F0D30020F8E7F5
:101A60000288000010B501460020084A084BDA62DF
:101A7000084ADA621A46126A0C239A438B000C2435
:101A800023401A43024B1A6210BD00005A5A00004C
:101A900000000240A5A50000FFB506460F463446EB
:101AA0000DE03D4605E0E9B2E0B200F00DF8681C3B
:101AB00085B20398401C8542F5DB601C84B2029815
:101AC000401C8442EDDBFFBD70B50346402901DDBB
:101AD000012000E000207F2B01DD012200E0002238
:101AE0001043002800D070BD0846CC17640F24189E
:101AF000E410E4010B4D6419E45C0A46CD176D0F48
:101B0000AD18ED10ED004E1B0125B540AC43CD17CF
:101B10006D0F2D18ED10ED01024EAD19EC5400BF04
:101B2000E1E700004005002070B50346402901DDD3
:101B3000012000E000207F2B01DD012200E00022D7
:101B40001043002800D070BD0846CC17640F24183D
:101B5000E410E4010B4D6419E45C0A46CD176D0FE7
:101B6000AD18ED10ED004E1B0125B5402C43CD17EF
:101B70006D0F2D18ED10ED01024EAD19EC5400BFA4
:101B8000E1E7000040050020FFB506460F46344659
:101B90000DE03D4605E0E9B2E0B2FFF7C5FF681C85
:101BA00085B20398401C8542F5DB601C84B2029824
:101BB000401C8442EDDBFFBDFFB587B00A98860666
:101BC000B60E09982E38C0B2099009985E2801DD3A
:101BD0000BB0F0BD062E04D1012005900520049025
:101BE00023E0102E04D102200590082004901CE070
:101BF000162E0AD1032005900B200490099841016C
:101C000040185549401806900FE0202E09D10420B5
:101C100005901020049009988001504940180690C2
:101C200003E0022005900820049040210A98084013
:101C3000002804D04A4802904A48019003E04848EE
:101C40000190484802900820039080210A9808409B
:101C500000283FD0002539E0002729E000241FE0BC
:101C6000069800780121A140084000280BD0EA0026
:101C7000089810180019C1B20798C019C3B21846C5
:101C8000029A90470AE0EA00089810180019C1B2B9
:101C90000798C019C3B21846019A9047601CC4B295
:101CA00003988442DCDB0698401C0690781CC7B27F
:101CB00004988742D2DB30460838C6B2082E02DBD1
:101CC0000820039000E00396681CC5B20598854281
:101CD000C2DB3EE0002539E0002729E000241FE0B8
:101CE000069800780121A140084000280BD0EA00A6
:101CF000089810180019C1B20798C019C3B2184645
:101D0000029A90470AE0EA00089810180019C1B238
:101D10000798C019C3B21846019A9047601CC4B214
:101D200003988442DCDB0698401C0690781CC7B2FE
:101D300004988742D2DB30460838C6B2082E02DB50
:101D40000820039000E00396681CC5B20598854200
:101D5000C2DB00BF3CE70000147E0000147B0000E3
:101D6000C91A0000291B0000FFB583B007461646BC
:101D700006988006800E02904021069808400028B0
:101D800004D04E4801904E48009003E04B4800902C
:101D90004B480190802106980840002849D0002532
:101DA00043E000240EE030788021214108400028E3
:101DB00006D0049A5219D1B23A19D0B2019A90477A
:101DC000601CC4B2082CEEDB761C00240FE03078D7
:101DD000802121410840002807D0049A5219D1B22D
:101DE0003A190832D0B2019A9047601CC4B20298E6
:101DF0000838A042EBDC761C00240FE0307880210C
:101E000021410840002807D0049A5219D1B23A194A
:101E10001032D0B2019A9047601CC4B202981038B8
:101E2000A042EBDC761C681CC5B202988542B8DB88
:101E300042E000253DE0002416E030788021214179
:101E40000840002807D0049A5219D1B23A19D0B2EA
:101E5000019A904706E0049A5219D1B23A19D0B2C9
:101E6000009A9047601CC4B2082CE6DB761C002464
:101E700018E03078802121410840002808D0049AD9
:101E80005219D1B23A190832D0B2019A904707E0FC
:101E9000049A5219D1B23A190832D0B2009A904736
:101EA000601CC4B202980838A042E2DC761C681CB0
:101EB000C5B202988542BEDB07B0F0BDC91A00006A
:101EC000291B0000FFB587B006460F461446204682
:101ED000E117490F09184903090C0291E117490F4D
:101EE0000918C910C900611A89B2019110980490AB
:101EF000119800280DD0354803900A983818401ED4
:101F000083B23019401E82B239463046FFF73CFE9C
:101F10000CE02F4803900A983818401E83B23019FD
:101F2000401E82B239463046FFF7B6FD00200690CB
:101F300046E0002005901DE0002512E0049800789E
:101F4000802129410840002809D0069ABA18D1B248
:101F5000059AD20092195219D0B2039A9047681C80
:101F600085B2082DEADB0498401C04900598401CBB
:101F700080B20590029905988842DDDB002512E0C9
:101F800004980078802129410840002809D0069A49
:101F9000BA18D1B2029AD20092195219D0B2039A49
:101FA0009047681C85B201988542E9DB01980028BA
:101FB00002DD0498401C04900698401C80B20690F4
:101FC0000A9906988842B4DB0BB0F0BDC91A00002C
:101FD000291B0000FFB583B005460F46164606983C
:101FE0008006800E02900298162812D006DC062881
:101FF00009D00C2809D0102811D108E018280AD0DF
:1020000020280CD109E00E240BE0102409E0102454
:1020100007E0162405E0182403E0202401E0102442
:1020200000BF00BF3CE03078802817DD3046FFF766
:10203000FDFC0190F9B2E8B20090069B019AFFF70F
:1020400093FEB61C8020001BA84204DA00250298EB
:10205000381887B224E0281985B221E03278F9B225
:10206000E8B20090069BFFF7A7FD761C782D04DDF3
:1020700000250298381887B212E030462038C07F19
:102080002E2802D1281D85B205E02046E10F09184F
:10209000491049198DB20698A02801D1681C85B253
:1020A00030780028BFD107B0F0BD02461068C840A4
:1020B000C007C00F704730B50246002000BF07E0E0
:1020C0008300CC588500134608335C51431CD8B2BA
:1020D00013795B1C8342F3DC30BD000070B504460D
:1020E0000D46044960180122294602F0A7FD002090
:1020F00070BD0000140D024070B504460D46034942
:1021000060182946FFF7D1FF70BD0000040D0240A2
:1021100070B504460E4615461E4960180022314629
:1021200002F08CFD00201C496118B20088502A780A
:1021300018490C396018314602F080FD6A7815495B
:1021400010316018314602F079FDAA781149143136
:102150006018314602F072FDEA780E4918316018B5
:10216000314602F06BFD2A790A4920316018314668
:1021700002F064FD094880680121C9038843697938
:10218000C9030122D203114008430449886000209A
:1021900070BD00000C0D0240000C0240000F024018
:1021A00010B50346024818188C000251002010BDDB
:1021B000000C024070B504460D4604496018012227
:1021C000294602F03BFD002070BD0000100D0240CA
:1021D00070B504460D461646034960183246294636
:1021E00002F02CFD002070BD080D024008B5002053
:1021F000009000BF00980028FCD008BDFEB5044642
:10220000230003F00AFF0A06CACAF1D4F2EFEECBAC
:10221000EDCA04F02DFC012001F084FC0546FEF718
:10222000BEF80290A3490298FEF707F80290A2496F
:102230000298FEF751F914D80E2001F073FC002823
:1022400001D09EA000E09EA007460298FEF71CF970
:1022500005462A460B469BA19C48009703F0B2FE18
:1022600018E00E2001F05EFC002801D093A000E0F1
:1022700093A005460298FEF7BBF806462B46324669
:1022800093A1924803F09EFE392365221921622012
:10229000FFF702FC96238D4A08210A20FFF79AFED9
:1022A000042001F03FFC00280ED000208A491823AA
:1022B0001A46009101901E210A20FFF703FE1E21FD
:1022C0000A2004F085FB09E00120834918231A46FF
:1022D000009101901E210A20FFF7F4FD052001F076
:1022E00021FC00280ED000207C4918231A460091BA
:1022F00001901E212820FFF7E5FD1E21282004F073
:1023000067FB09E00120754918231A4600910190E6
:102310001E212820FFF7D6FD062001F003FC00282F
:102320000ED000206E4918231A46009101901E21FC
:102330004620FFF7C7FD1E21462004F049FB09E0B7
:102340000120674918231A46009101901E2146205A
:10235000FFF7B8FD072001F0E5FB00280ED00020B4
:10236000604918231A46009101901E216420FFF74E
:10237000A9FD1E21642004F02BFB09E0012059492E
:1023800018231A46009101901E216420FFF79AFD40
:1023900003220121084600F061FE88E00022114678
:1023A000012000F05BFE5048FFF77CFA7FE0002040
:1023B000494918231A46009101901E210A20FFF76F
:1023C00081FD1E210A2004F003FB0120474908700B
:1023D0000322002100F042FE4548FFF763FA66E061
:1023E0005AE036E01BE000E04DE000203B491823B6
:1023F0001A46009101901E212820FFF763FD1E213F
:10240000282004F0E5FA0220384908700322002150
:10241000012000F023FE3648FFF744FA47E0002091
:102420002F4918231A46009101901E214620FFF7DC
:1024300049FD1E21462004F0CBFA03202B490870E9
:1024400003220021012000F009FE2948FFF72AFAA3
:102450002DE00020234918231A46009101901E21E7
:102460006420FFF72FFD1E21642004F0B1FA042040
:102470001E49087003220021012000F0EFFD1C48D6
:10248000FFF710FA13E000221146012000F0E6FDEC
:102490001548FFF707FA0AE001F0B4F9032200211A
:1024A000012000F0DBFD1348FFF7FCF900BF00BF7F
:1024B000FEBD0000000020410000C642696E000021
:1024C000636D0000252E316625730000DC020020BC
:1024D00025642573000000002C7900007479000049
:1024E000BC790000047A0000C930000021000020FF
:1024F000F92400006D3500007CB50446002C06D0A0
:10250000082C76D00B2C75D00C2C0DD10DE00020B2
:102510009749087003220121084600F09FFD03221D
:102520000121104600F09AFD20E192480078002831
:1025300001D1012000E000208E4908708C4800780D
:10254000401C8B4908708C480078012806D002286E
:102550002FD003285AD0042878D183E0844800780B
:10256000032808DB012001F0DDFA05460022294698
:10257000042001F0AFFB7F48007800280ED0002037
:102580007E4918231A46009101901E210A20FFF768
:1025900099FC1E210A2004F01BFA09E0012077496A
:1025A00018231A46009101901E210A20FFF78AFC89
:1025B00084E06F480078032808DB012001F0B2FABC
:1025C000054600222946052001F084FB6948007871
:1025D000002810D000206A4918231A460091019063
:1025E0001E212820FFF76EFC1E21282004F0F0F9A0
:1025F0000BE065E075E00120614918231A4600915F
:1026000001901E212820FFF75DFC57E05848007814
:10261000032808DB012001F085FA0546002229463F
:10262000062001F057FB5348007800280FD0002007
:10263000544918231A46009101901E214620FFF7A5
:1026400041FC1E21462004F0C3F90AE035E00120D8
:102650004C4918231A46009101901E214620FFF78D
:1026600031FC2BE042480078032808D1012001F01A
:1026700059FA054600222946072001F02BFB3D4868
:10268000007800280ED000203F4918231A460091F8
:1026900001901E216420FFF715FC1E21642004F028
:1026A00097F909E00120384918231A460091019052
:1026B0001E216420FFF706FC00E000BF00BF55E0CC
:1026C00000203249087003220021012000F0C6FCDE
:1026D00003220021104600F0C1FC2D48FFF7E2F86C
:1026E00044E025480078012806D002280ED00328AF
:1026F00016D0042828D11DE0012001F013FA054668
:1027000001222946042001F0E5FA1DE0012001F034
:1027100009FA054601222946052001F0DBFA13E0FB
:10272000012001F0FFF9054601222946062001F0AB
:10273000D1FA09E0012001F0F5F905460122294608
:10274000072001F0C7FA00BF00BF00200F49087042
:1027500003220021012000F081FC03220021104609
:1027600000F07CFC0B48FFF79DF800BF00BF7CBD6C
:102770002D0000202C000020210000202C790000DA
:1027800074790000BC790000047A00001C0000206D
:1027900039190000CD39000010B5C046C04610BD43
:1027A00010B5C046C04610BD1CB50446217920684E
:1027B000884231DA2068401C2060FFF75FF820680B
:1027C0008100204608304258962316210A20FFF740
:1027D00001FC2179206888420AD101200F49062393
:1027E0001022009101900A210846FFF76BFB13E0CD
:1027F00001200A4906231022009101900A2108466F
:10280000FFF760FB0120064906231022009101908A
:1028100032210A20FFF756FB1CBD00002079000082
:102820001479000004484079002804D00248408808
:10283000401C014948807047FE00002010B501F09F
:102840004BFC31480079002802D001282BD112E03E
:102850002D488079002808D02B4880792A49887231
:10286000012008710020488004E0002026490871FA
:102870004880487117E0244880792349897A884242
:1028800011D10120204948710846408808280ADDF6
:102890000846C079002806D008204880002008702B
:1028A0000846807A487000BF1748407800281DD03D
:1028B0001548407814494872002048700846407A0C
:1028C000032803D1092000F0F7FA1CE00E48407AF3
:1028D000012803D10D2000F0EFFA14E00A48407AF5
:1028E000022810D10E2000F0E7FA0CE0064800782C
:1028F00005494872002008700846407A002802D036
:10290000487A00F0D9FA10BDFE0000201CB504463C
:10291000230003F082FB0C0746698CBEBEBEBE3DA1
:10292000BEBEABBE04F0A4F800F0C4F85A4802F0F2
:10293000DFF95A495848FFF7BEFB57480068810045
:10294000554808304258962316210A20FFF742FBCB
:102950000D2001F0E7F850490968514A515C88425E
:102960000AD101204F490C231022009101901B2114
:102970006C20FFF7A7FA05E027237C221B216C209F
:10298000FFF78AF803220121084600F067FB80E088
:1029900000221146012000F061FB4348FEF782FF50
:1029A00077E003220121084600F058FB3A48FEF781
:1029B00087FF0D2001F0B6F837490968384A515CA5
:1029C00088420AD1012037490C231022009101903E
:1029D0001B216C20FFF776FA05E027237C221B21C0
:1029E0006C20FFF759F854E003220121084600F05B
:1029F00035FB2948FFF7D8FE0D2001F093F8264952
:102A00000968274A515C88420AD1012025490C23D4
:102A10001022009101901B216C20FFF753FA05E072
:102A200027237C221B216C20FFF736F831E01A485F
:102A30000068002804D0012803D0022813D109E03F
:102A400000BF15480068164A115C00220D2001F0F5
:102A500041F909E003220021012000F0FFFA1248A9
:102A6000FEF720FF00E000BF00BF12E00A48006848
:102A70000B4A115C01220D2001F02CF901200B49B9
:102A800008700322002100F0E9FA0948FEF70AFF66
:102A900000BF00BF1CBD0000D80300209400002030
:102AA0000D7B00003C7800006D3500001C0000200C
:102AB000CD390000002002490860022008717047EB
:102AC000D803002010B500F025FA012204210020CF
:102AD000FFF77EFB642003F0F1FF00220421104683
:102AE000FFF776FB642003F0E9FF012204210020B8
:102AF000FFF76EFB0021EC4802F031FA00220621BC
:102B00001046FFF765FB00BF0421E74802F00AFA10
:102B10000028F9D0AE21E44802F01DFA0022062177
:102B20001046FFF755FB00BF0421DF4802F0FAF919
:102B30000028F9D00021DC4802F00DFA002206211D
:102B40001046FFF745FB00BF0421D74802F0EAF921
:102B50000028F9D01021D44802F0FDF90022062106
:102B60001046FFF735FB00BF0421CF4802F0DAF929
:102B70000028F9D04021CC4802F0EDF900220621CE
:102B80001046FFF725FB00BF0421C74802F0CAF931
:102B90000028F9D08121C44802F0DDF90022062185
:102BA0001046FFF715FB00BF0421BF4802F0BAF939
:102BB0000028F9D0CF21BC4802F0CDF9002206212F
:102BC0001046FFF705FB00BF0421B74802F0AAF941
:102BD0000028F9D0A121B44802F0BDF90022062155
:102BE0001046FFF7F5FA00BF0421AF4802F09AF94A
:102BF0000028F9D0C821AC4802F0ADF90022062126
:102C00001046FFF7E5FA00BF0421A74802F08AF951
:102C10000028F9D0A621A44802F09DF9002206213F
:102C20001046FFF7D5FA00BF04219F4802F07AF959
:102C30000028F9D0A8219C4802F08DF90022062135
:102C40001046FFF7C5FA00BF0421974802F06AF961
:102C50000028F9D03F21944802F07DF90022062196
:102C60001046FFF7B5FA00BF04218F4802F05AF969
:102C70000028F9D0D3218C4802F06DF900220621FA
:102C80001046FFF7A5FA00BF0421874802F04AF971
:102C90000028F9D00021844802F05DF900220621C5
:102CA0001046FFF795FA00BF04217F4802F03AF979
:102CB0000028F9D0D5217C4802F04DF900220621E8
:102CC0001046FFF785FA00BF0421774802F02AF981
:102CD0000028F9D08021744802F03DF90022062135
:102CE0001046FFF775FA00BF04216F4802F01AF989
:102CF0000028F9D0D9216C4802F02DF900220621D4
:102D00001046FFF765FA00BF0421674802F00AF990
:102D10000028F9D0F121644802F01DF900220621B3
:102D20001046FFF755FA00BF04215F4802F0FAF899
:102D30000028F9D0DA215C4802F00DF900220621C2
:102D40001046FFF745FA00BF0421574802F0EAF8A1
:102D50000028F9D01221544802F0FDF80022062183
:102D60001046FFF735FA00BF04214F4802F0DAF8A9
:102D70000028F9D0DB214C4802F0EDF800220621B2
:102D80001046FFF725FA00BF0421474802F0CAF8B1
:102D90000028F9D04021444802F0DDF80022062145
:102DA0001046FFF715FA00BF04213F4802F0BAF8B9
:102DB0000028F9D020213C4802F0CDF8002206215D
:102DC0001046FFF705FA00BF0421374802F0AAF8C1
:102DD0000028F9D00221344802F0BDF80022062173
:102DE0001046FFF7F5F900BF04212F4802F09AF8CA
:102DF0000028F9D08D212C4802F0ADF800220621E0
:102E00001046FFF7E5F900BF0421274802F08AF8D1
:102E10000028F9D01421244802F09DF80022062150
:102E20001046FFF7D5F900BF04211F4802F07AF8D9
:102E30000028F9D0A4211C4802F08DF800220621B8
:102E40001046FFF7C5F900BF0421174802F06AF8E1
:102E50000028F9D0A621144802F07DF800220621AE
:102E60001046FFF7B5F900BF04210F4802F05AF8E9
:102E70000028F9D0AF210C4802F06DF8002206219D
:102E80001046FFF7A5F900BF0421074802F04AF8F1
:102E90000028F9D0AF21044802F05DF803F0E8FD06
:102EA000012003F011FF10BD0008004010B5FDF730
:102EB000B3FDFDF711FE10BD10B50446230003F06D
:102EC000ACF80F090A0B0C0D0E0F101B111A12197A
:102ED0001D1C240000BF00BF00BF00BF00BF00BF1B
:102EE00000BF00BF00BF0A4801682046884703F0C2
:102EF0004FFE0BE000BF00BF00BF00BF04480168E9
:102F00002046884703F044FE00E000BF00BF10BD2C
:102F1000DC0000201CB501211C2002F015FA002164
:102F2000684601708170C17006210020FFF7D6F855
:102F30006A4606210020FFF7EBF804210020FFF786
:102F4000CDF86A4604210020FFF7E2F8FFF7AEFF54
:102F50001CBD10B5C046C04610BD00000D488079AC
:102F6000002804D00B484088401C0A494880094882
:102F7000C079002804D007480088401C0549088013
:102F80000448807A002804D002488089401C014906
:102F9000888170474009002010B5C046C04610BD6A
:102FA00010B5C046C04610BD10B5C046C04610BDE5
:102FB00010B5C046C04610BD0146012904D0022903
:102FC00019D0032944D12DE023488079002800D16D
:102FD000704721484088204A9288904209DB1E4869
:102FE0008079012805D100201B4A50809071012072
:102FF000EEE70020ECE71848C079002800D1E7E7A9
:1030000015480088144A1289904209DB1248C07999
:10301000012805D10020104A1080D0710120D7E787
:103020000020D5E70C48807A002800D1D0E70A4874
:103030008089094AD289904208DB0748807A0128B2
:1030400004D10020044A90810120C1E70020BFE79D
:103050000020C043BCE700004009002010B5012853
:1030600004D0022812D0032829D121E0002903D05E
:103070000123144CA37102E00023124CA37114230A
:103080005343104CA3800023638019E0002905D02E
:1030900000230C4C23800123E37102E00023094C40
:1030A000E37128235343074C23810023238007E047
:1030B0000023044CA38123469972DA8100E000BF0B
:1030C00000BF10BD40090020FEB50446230002F0F9
:1030D000A4FF0F09FBFCF8F7F6F5F4C1F3F2C1C247
:1030E000FEFDC10002F058FB03F0C2FC012000F01D
:1030F00019FD0546FDF753F9074698493846FDF78F
:103100009CF8074696493846FDF7E6F90AD838464E
:10311000FDF7BAF905462A460B4692A1934802F0FC
:1031200051FF08E03846FDF763F905462A4690A1AD
:103130008E4802F047FF96238C4A05214E20FEF769
:1031400049FF01208B490E234022009101900A2162
:103150000846FEF7B7FE082000F0E4FC002809D07E
:103160000020854918231A46009101901E210A204B
:10317000FEF7A8FE8148807B00280ED07F48C07BE8
:1031800000280AD101207E4918231A460091019097
:103190001E212820FEF796FE24E07848807B002838
:1031A0000ED17648C07B00280AD00120754918232B
:1031B0001A46009101901E212820FEF783FE11E09F
:1031C0006E48807B00280DD06C48C07B002809D059
:1031D00000206D4918231A46009101901E212820D5
:1031E000FEF770FE0D2000F09DFC002809D00020A5
:1031F000664918231A46009101901E214620FEF7C9
:1032000061FE0B2000F08EFC00280AD001206049EE
:1032100018231A46009101901E216420FEF752FEE9
:103220000EE00C2000F07EFC002809D00120594956
:1032300018231A46009101901E216420FEF742FED9
:103240000A2201210220FFF709FF082201210320A1
:10325000FFF704FF80E002F09FFA012000F062FC1B
:103260000546FDF79CF807463C493846FCF7E5FF64
:1032700007463B493846FDF72FF90AD83846FDF78F
:1032800003F905462A460B4636A1384802F09AFE55
:1032900008E03846FDF7ACF805462A463EA133481B
:1032A00002F090FE9623314A05214E20FEF792FE51
:1032B00052E00BE00BE041E02CE019E017E015E0F4
:1032C00013E032E001E0FFE700BF00BF00BF0A22C9
:1032D00000210320FFF7C2FE002211460220FFF763
:1032E000BDFE2F48FEF7DEFA36E000BF00BF00BF8C
:1032F000E01E2C490870E0B200F014FC002800D158
:103300002AE0002211460220FFF7A8FE2648FEF719
:10331000C9FA21E000F076FA002211460220FFF7F8
:103320009DFE2248FEF7BEFA16E00022114602205A
:10333000FFF794FE1E48FEF7B5FA0DE00022114695
:103340000220FFF78BFE0A2200210320FFF786FEF2
:103350001848FEF7A7FA00BF00BFFEBD00002041DD
:103360000000C642252E316600000000DC0200206D
:10337000256400001C720000AC730000E000002017
:10338000B47A00006C7A0000647300001C730000C3
:103390008C720000D4720000256420200000000020
:1033A000454700001D000020754A00006D350000F3
:1033B000FD210000654F000070B50446230002F0B7
:1033C0002CFE0C072C353EB6B6B6B623B6B68AB67A
:1033D00003F04EFB00F0C2F8564801F089FC564954
:1033E0005448FEF768FE5348006881005148083091
:1033F0004258962316210A20FEF7ECFD03220121F4
:103400000846FFF72BFE92E0002211460120FFF74D
:1034100025FE4A48FEF746FA89E0032201210846C4
:10342000FFF71CFE4348FEF74BFA80E00322012120
:103430000846FFF713FE3F48FFF7B6F977E03D482F
:103440000068002804D0012826D0022840D136E0A8
:10345000012000F067FB0546032000F063FB3849BC
:10346000097E002901D0042100E00A21401885428C
:1034700008D8032200210120FFF7F0FD3148FEF7B4
:1034800011FA08E0012000F04DFB05460022294614
:10349000022000F01FFC1CE02948007E002802D01A
:1034A00029482A4901E0002029490246FCF7CEFFBD
:1034B000054600222946022000F00CFC09E0032208
:1034C00000210120FFF7CAFD1C48FEF7EBF900E0E0
:1034D00000BF00BF2BE001201E490870154800689E
:1034E000002809D1012000F01DFB054601222946D4
:1034F000022000F0EFFB11E01148007E002802D00E
:103500001148124901E0002011490246FCF79EFFD4
:10351000054601222946022000F0DCFB032200219F
:103520000120FFF79BFD0C48FEF7BCF900BF00BF70
:1035300070BD000014040020A00000206D350000C4
:10354000E000002039190000666666666672A340D6
:1035500000A08E401C000020CD3900000020024950
:103560000860022008717047140400201CB504464E
:10357000230002F052FD0F094072CFB5B6B7B8373D
:1035800036363636A7A6360003F072FA894801F0BF
:10359000AFFB89498748FEF78EFD864800688100A9
:1035A000844808304258962316210A20FEF712FD5F
:1035B0000120824906231022009101900A21084629
:1035C000FEF780FC01207E49062310220091019025
:1035D00032210A20FEF776FC032201210846FFF77C
:1035E0003DFDE5E0002211460120FFF737FD75485B
:1035F000FEF758F9DCE0032201210846FFF72EFD13
:10360000FEF73CF901206D4906231022009101903C
:103610000A210846FEF756FC0120694906231022BC
:103620000091019032210A20FEF74CFC61480068AD
:10363000401E6049086008460068002801DA0C2036
:1036400008605C48006881005A4808304258962358
:1036500016210A20FEF7BEFCAAE00322012108463B
:10366000FFF7FCFCFEF70AF901205449062310225B
:10367000009101900A210846FEF724FC01205049E0
:10368000062310220091019032210A20FEF71AFC35
:1036900048480068401C47490860084600680979A6
:1036A000884202DD002043490860424800688100EA
:1036B000404808304258962316210A20FEF78AFC1B
:1036C00076E000BF0A2200210320FFF7C7FC00229A
:1036D00011460120FFF7C2FC3B48FEF7E3F867E024
:1036E00000BF00BF00BFE01E38490870E0B200F024
:1036F00019FA002800D15BE00A2200210320FFF71D
:10370000ADFC002211460120FFF7A8FC3048FEF76F
:10371000C9F84DE00A2200210320FFF79FFC002298
:1037200011460120FFF79AFC22480068030002F0CE
:1037300074FC0D080C1014181C2024282C3034386C
:103740003C002448FEF7AEF830E02348FEF7AAF824
:103750002CE02248FEF7A6F828E02148FEF7A2F860
:1037600024E02048FEF79EF820E01F48FEF79AF874
:103770001CE01E48FEF796F818E01D48FEF792F888
:1037800014E01C48FEF78EF810E01B48FEF78AF89C
:103790000CE01A48FEF786F808E01948FEF782F8B0
:1037A00004E00848FEF77EF800E000BF00BF00BF5D
:1037B00000BF1CBDE802002030000020207900007E
:1037C00014790000C9300000454700001D000020AA
:1037D000754A0000714D0000F9100000F55D000011
:1037E0003D0F00000D290000A90C00002D1700005E
:1037F000B933000015380000615B0000354400005B
:10380000295D00000020024908600C200871704703
:10381000E802002070B50446230002F0FEFB0C070E
:103820002C353EB9B9B9B923B9B98DB903F020F92E
:1038300000F0C4F8574801F05BFA57495548FEF7C5
:103840003AFC544800688100524808304258962398
:1038500016210A20FEF7BEFB032201210846FFF7CE
:10386000FDFB95E0002211460120FFF7F7FB4B48D6
:10387000FEF718F88CE0032201210846FFF7EEFB63
:103880004448FEF71DF883E0032201210846FFF7B4
:10389000E5FB4048FEF788FF7AE03E4800680028D4
:1038A00004D0012826D0022843D139E0012000F0BD
:1038B00039F90546022000F035F93949097E002919
:1038C00001D0042100E00A21401A854208D30322D6
:1038D00000210120FFF7C2FB3248FDF7E3FF08E0BB
:1038E000012000F01FF9054600222946032000F0C0
:1038F000F1F91FE02A48007E002802D02A482B490F
:1039000001E000202A490246FCF7A0FD05460022FE
:103910002946032000F0DEF900202149C87309E0A0
:10392000032200210120FFF799FB1C48FDF7BAFF95
:1039300000E000BF00BF2BE001201E4908701548C1
:103940000068002809D1012000F0ECF805460122AA
:103950002946032000F0BEF911E01148007E00283E
:1039600002D01148114901E0002011490246FCF73C
:103970006DFD054601222946032000F0ABF9032224
:1039800000210120FFF76AFB0B48FDF78BFF00BF0A
:1039900000BF70BD50040020AC0000206D35000059
:1039A000E000002039190000713D0AD7A3FA9640C3
:1039B000001882401C000020CD3900000020024980
:1039C0000860022008717047500400201CB50446AE
:1039D000002C02D0082C23D111E003F049F801207B
:1039E000104920231A460091019014213220FEF73D
:1039F00069FA012211461046FFF730FB10E0002261
:103A000011460120FFF72AFB07480078002803D061
:103A10000648FDF747FF02E00548FDF743FF00BFFA
:103A200000BF1CBDBC7600001C0000206D350000EE
:103A3000C93000001CB50446002C04D0082C0DD061
:103A40000C2C4AD120E0012211460320FFF706FB8F
:103A5000042201210846FFF701FB3EE00022114647
:103A60000120FFF7FBFA012200210320FFF7F6FAFD
:103A70001B48007FBB2803D11A48FDF713FF02E063
:103A80001948FDF70FFF28E01848007819281EDDB7
:103A900016480078401E15490870084600783C28F2
:103AA00001D101F08FFE114800781E2801DC01F0E1
:103AB00073FE02F0DDFF01200D4910235822009112
:103AC00001900A4801781620FEF7FCF904E0012273
:103AD00000210320FFF7C2FA00BF00BF1CBD000099
:103AE000E000002039420000C93000001E00002024
:103AF0006C71000010B5C046C04610BD10B5C04680
:103B0000C04610BD10B5C046C04610BD10B5C04679
:103B1000C04610BD10B5C046C04610BD10B5C04669
:103B2000C04610BD7CB50446230002F076FA13CAE5
:103B30000B223950677E95ACCAAFB2B5B8BBBEC1D7
:103B4000C4C7CA006048007E00280AD05E490888C1
:103B5000FCF740FC5D4A5E4B01910090FCF7ACFB2A
:103B600003E059490888FCF735FC0546FCF76EFC74
:103B70007CBD5548007E00280AD053494888FCF790
:103B800029FC524A524B01910090FCF795FB03E04F
:103B90004D494888FCF71EFC0546FCF757FCE7E753
:103BA0004948007E00280AD047498888FCF712FC63
:103BB000464A474B01910090FCF77EFB03E04249E7
:103BC0008888FCF707FC0546FCF740FCD0E73E4838
:103BD000007E00280AD03C49C888FCF7FBFB3B4A22
:103BE0003B4B01910090FCF767FB03E03649C88826
:103BF000FCF7F0FB0546FCF729FCB9E73248007EEC
:103C000000280AD030490889FCF7E4FB2F4A304BE2
:103C100001910090FCF750FB03E02B490889FCF769
:103C2000D9FB0546FCF712FCA2E72748007E0028D6
:103C30000AD025494889FCF7CDFB244A244B019141
:103C40000090FCF739FB03E01F494889FCF7C2FBF1
:103C50000546FCF7FBFB8BE71B48007E00280AD0DB
:103C600019498889FCF7B6FB184A194B0191009055
:103C7000FCF722FB03E014498889FCF7ABFB0546FF
:103C8000FCF7E4FB74E71048008A71E70E48007DFA
:103C90006EE70D48807D6BE70B48407D68E70A487A
:103CA000C07D65E70848007E62E70748807E5FE7E1
:103CB0000548C07E5CE70448407E59E70248407FE3
:103CC00056E7002054E70000E00000209EEFA7C662
:103CD0004B37D93F70B588B006460C461546F1A261
:103CE00007CA05AB07C3F248017C68464175F04836
:103CF000017D68468175EE48417D6846C175EC4896
:103D0000C17D68460176EA48017E68464176E8480A
:103D10004088011268468176E54881786846C17618
:103D2000E3488088011268460177E14801796846D6
:103D30004177E04800680490330002F06EF9100B00
:103D4000090C5399C4F8F6F50BF4F3F2F1F0EF0B0C
:103D5000D7490C80A2E1D648007E002802D0D64880
:103D6000D64909E0F52189008C4201D1012100E00A
:103D700000210846FCF71AFB00221346039102902B
:103D8000FCF796FB03D00020C949887302E00120AC
:103D9000C7498873C648007E002809D02046FCF732
:103DA00019FBC74AC74B01910090FCF785FA02E066
:103DB0002046FCF70FFB03910290FCF747FB0446FB
:103DC000002D02D0BA494C800BE05221BE48C17789
:103DD0002004010E68468176C4760B2105A802F006
:103DE000D7FF5BE1B248007E002802D0B748B8494F
:103DF00008E0B8498C4201D1012100E000210846C9
:103E0000FCF7D4FA0022134603910290FCF750FB12
:103E100003D00020A649C87302E00120A449C8735A
:103E2000A348007E002809D02046FCF7D3FAA44A14
:103E3000A44B01910090FCF73FFA02E02046FCF70A
:103E4000C9FA03910290FCF701FB0446002D02D051
:103E500097498C800BE052219B48C1772004010ECA
:103E60006846017744770B2105A802F091FF15E120
:103E700059219548C1778E48007E002809D02046F8
:103E8000FCF7A8FA8E4A8F4B01910090FCF714FAC8
:103E900002E02046FCF79EFA03910290FCF7D6FA66
:103EA0000446002D02D08249CC800BE001216846F7
:103EB00041742004010E68468174C474042104A86E
:103EC00002F066FFEAE059217F48C1777848007E1A
:103ED000002809D02046FCF77DFA794A794B0191F8
:103EE0000090FCF7E9F902E02046FCF773FA039131
:103EF0000290FCF7ABFA0446002D02D06C48048116
:103F00000BE00221684641742004010E684681746A
:103F1000C474042104A802F03BFFBFE0BBE0ABE0A7
:103F20009BE08BE077E067E057E02BE0FFE759216B
:103F30006548C1775E48007E002809D02046FCF71E
:103F400049FA5F4A5F4B01910090FCF7B5F902E036
:103F50002046FCF73FFA03910290FCF777FA0446FB
:103F6000002D02D0524844810BE003216846417481
:103F70002004010E68468174C474042104A802F070
:103F800007FF8BE059215048C1774948007E00283F
:103F900009D02046FCF71EFA494A4A4B019100908D
:103FA000FCF78AF902E02046FCF714FA039102902C
:103FB000FCF74CFA0446002D02D03D4884810BE00A
:103FC0000421684641742004010E68468174C4745B
:103FD000042104A802F0DCFE60E0002D02D0344988
:103FE0000C8208E052213848C17769464C750A2195
:103FF00005A802F0CDFE51E0002D02D02C490C7531
:1040000008E052213048C17769468C750A2105A81D
:1040100002F0BEFE42E0002D02D0254884750CE07F
:1040200052212948C1776846C07D2043C1B2684605
:10403000C1750A2105A802F0ABFE2FE0002D02D0C9
:104040001B48447508E052211F48C1776946CC756A
:104050000A2105A802F09CFE20E0002D02D01448A1
:10406000C47508E052211848C17769460C760A21C8
:1040700005A802F08DFE11E0002D02D00C48047658
:1040800008E052211048C17769464C760A2105A8FC
:1040900002F07EFE02E006498C7600BF00BF08B049
:1040A00070BD000052000000000000000000000091
:1040B000E0000020306F0000666666666672A3400E
:1040C00052B81E85EB5104402A010020713D0AD7E9
:1040D000A3FA96404302000010B5002030498871D1
:1040E0000C21FEF709F8002803D101202C49887122
:1040F00054E000214020FDF7FFFF002803D10220FB
:10410000274988714AE001214020FDF7F5FF00288A
:1041100003D103202249887140E002214020FDF7AD
:10412000EBFF002803D104201D49887136E00921E6
:104130000020FDF7E1FF002803D105201849887110
:104140002CE00A210020FDF7D7FF002803D106202C
:104150001349887122E00B210020FDF7CDFF0028D4
:1041600003D107200E49887118E00D4840880128C6
:104170000BDD0B484088062807DA002008494880F4
:104180000846807A087000200872002004494871AF
:1041900048704880087101200872C87110BD000085
:1041A000FE0000207CB50446230001F036FF0C071A
:1041B000282927232425263535352C3502F058FCAF
:1041C0000120164920231A46009101900F21232037
:1041D000FDF778FE1120FFF7A5FC05462A4610A141
:1041E000114801F0EFFE96230F4A14214520FDF7F8
:1041F000F1FE11E000BF00BF00BF00BF00BF00BF65
:1042000001F0ECF908E01220FFF78CFC022802D143
:104210000648FDF747FB00BF00BF7CBDBC77000030
:104220004525303258000000DC02002039420000F1
:1042300010B5C046C04610BD7CB504460B2C3DD021
:1042400004DC002C07D0082C25D125E00C2C74D0E0
:104250000E2CF9D172E06948007FBB2803D1012000
:104260006749087002E00020654908700020634932
:10427000087702F0FDFB962362A216210A20FDF7C3
:10428000A9FE0020614910231A46009101901921CE
:104290006C20FDF717FEAEE001F094FA01F092FAFF
:1042A00001F090FA01F08EFA01F08CFA01205449E5
:1042B000087000221146FEF7D1FE9CE050480078BD
:1042C000002802D0012836D105E00222012108464B
:1042D000FEF7C4FE2FE000204D4908704748007EDD
:1042E000002802D04B484C4901E000204B490246CF
:1042F000FCF7ACF80546002229460220FFF7EAFC4D
:104300003E48007E002802D04548464901E0002092
:1043100045490246FCF79AF8054600222946032043
:10432000FFF7D8FC002211460320FEF797FE3F4816
:10433000FDF7B8FA00BF00BF5DE035E03048007817
:10434000002803D0012001F019FA01E001F02CFA55
:1043500037480078401C36490870022201210320AA
:10436000FEF77CFE324800780A2806DA29237C22F0
:1043700019216C20FDF790FB15E02D4800780A28E4
:104380000EDB2B48007814280ADA00201F4910237E
:104390001A460091019019216C20FDF793FD02E06F
:1043A00000202349087026E021480078401C20495D
:1043B0000870084600780A2806DA29237C22192189
:1043C0006C20FDF769FB15E0194800780A280EDB20
:1043D0001748007814280ADA00200C4910231A46DE
:1043E0000091019019216C20FDF76CFD02E0002086
:1043F0000F49087000BF00BF7CBD0000E000002036
:10440000D8000020C7EBB3A4B0B400004C7A000081
:104410001C000020666666666672A34000A08E409F
:10442000713D0AD7A3FA964000188240CD390000AA
:10443000D70000201CB50446032C7FD006DC002CDE
:1044400009D0012C36D0022C2AD159E0082C28D0D2
:104450000E2CF9D14BE002F00BFB00F08BF840483A
:1044600000F046FC3F493E48FDF725FE3C48006809
:1044700081003B4808304258962316210A20FDF758
:10448000A9FD0020384910231A46009101901921F6
:104490006C20FDF717FD032201210846FEF7DEFD23
:1044A0005BE0002211460120FEF7D8FD2F48FDF702
:1044B000F9F952E0032201210846FEF7CFFD284812
:1044C000FDF7FEF926480068002809D12649102387
:1044D0001A460091019019216C20FDF7F3FC05E0CC
:1044E00029237C2219216C20FDF7D6FA35E003221E
:1044F00000210120FEF7B2FD1D48FDF7D3F92CE0A5
:10450000032201210846FEF7A9FD1548FEF74CF9E4
:104510001348006800280AD1134910231A46009155
:10452000019019216C20FDF7CDFC06E006E029235F
:104530007C2219216C20FDF7AFFA0EE008480068D4
:10454000012807D103220021FEF788FD0748FDF767
:10455000A9F900E000BF00BF00BF00BF1CBD000004
:10456000C8040020C40000204C7A00006D35000013
:10457000394200000020024908600120087170479C
:10458000C8040020024608784B78984201D10120E7
:10459000704708784300881CC05C10700878401C85
:1045A000C0B20870C82801DB002008700020EFE7C7
:1045B0004A7853008A1CD0524A78521CD2B24A70B0
:1045C000C82A01DB00224A704A780B789A4207D148
:1045D0000A78521CD2B20A70C82A01DB00220A7083
:1045E000704700001CB50446230001F016FD0D08BD
:1045F0008384827E7F8081859E9E9E2E9E000222E5
:1046000011462820FCF77CFC02F032FA3C22012102
:104610000846FEF723FD012211460320FEF71EFD8A
:104620000120434920231722009101900F210846C1
:10463000FDF748FC01203F49202311220091019001
:104640000F215F20FDF73EFC6FE03B48007800281B
:1046500006D0012815D0022824D0032842D132E008
:10466000962336A20F212D20FDF7B4FC1422012140
:104670000320FEF7F3FC30480078401C2E490870F8
:1046800031E096232DA20F214120FDF7A3FC142237
:1046900001210320FEF7E2FC27480078401C264950
:1046A000087020E0962325A20F215520FDF792FCEB
:1046B000142201210320FEF7D1FC1F480078401C82
:1046C0001D49087000BF1F235F220F212820FDF71E
:1046D000E3F9142201210320FEF7C0FC0020164953
:1046E000087000E000BF00BF1FE000BF00BF00BFB8
:1046F00000BF00BF00BF00BF022211460020FCF730
:10470000FFFB012200210320FEF7A8FC0022114636
:104710000120FEF7A3FC002002F04AF90020064920
:1047200008700748FDF7BEF800BF00BF1CBD0000C1
:10473000B4780000547800002E0000203E000000F5
:10474000C9300000FEB505462B0001F066FC0F09DC
:104750008ECD6FFEFDFCFBFA7D6E6EF98DCE6E0088
:10476000B448007E002802D0B348B44901E00020DC
:10477000B3490246FBF76AFEB2490880AD48007EA5
:10478000002802D0B048B14901E00020B0490246FB
:10479000FBF75CFEAF490880AA490988AD4A128838
:1047A000881A2E21C943FBF7C9FC0646FBF7ECFD2E
:1047B000A94908600020A949087002F059F90120B0
:1047C000FFF7B0F9A3490988401A0090FBF7E7FD0D
:1047D0000746A14801683846FBF72FFD0646A04969
:1047E000FBF7D2FC0190FBF71CFEC4B223467C22EF
:1047F00000217820FDF750F934237C2221467820CF
:10480000FDF7C2F90120FFF78DF90746FBF7C7FD59
:10481000064632461921372002F07CF9FCF704FFE6
:10482000032201210846FEF719FC00E1002211468F
:104830000120FEF713FC042200210320FEF70EFCEA
:104840008848FDF72FF8F2E0FEF7DCFF0022114662
:104850000220FEF703FC042200210320FEF7FEFBEA
:104860008148FDF71FF8E2E000BF0322012108465E
:10487000FEF7F4FB042201210320FEF7EFFB0020EA
:1048800000F07CFF0120FFF74DF90746FBF787FD9D
:10489000064632461921372002F03CF90120FFF785
:1048A00041F96C490988401A0090FBF778FD0746EA
:1048B000694801683846FBF7C0FC69490190FBF77D
:1048C00063FC0646FBF7ADFDC4B223467C22002103
:1048D0007820FDF7E1F834237C2221467820FDF78B
:1048E00053F9FCF7A1FEA2E000BF03220121084614
:1048F000FEF7B4FB042201210320FEF7AFFB0120E9
:1049000000F03CFF0120FFF70DF90746FBF747FDDC
:10491000064632461921372002F0FCF80120FFF745
:1049200001F94C490988471A3846FBF738FD064615
:10493000494801683046FBF780FC4949009005E092
:1049400033E066E01AE018E016E014E0FBF71CFC28
:104950000190FBF766FDC4B223467C22002178203B
:10496000FDF79AF834237C2221467820FDF70CF9D4
:10497000FCF75AFE5BE000BF00BF00BFE81E3B49EA
:104980000870E8B2FFF7CEF8002800D14FE000220F
:1049900011460220FEF762FB042200210320FEF7ED
:1049A0005DFB3348FCF77EFF41E000F0F5FE01209F
:1049B000FFF7B8F80746FBF7F2FC06463246192126
:1049C000372002F0A7F80120FFF7ACF82149098849
:1049D000471A3846FBF7E3FC00901F48016800982F
:1049E000FBF72BFC1E490190FBF7CEFB0646FBF7BD
:1049F00018FDC4B223467C2200217820FDF74CF834
:104A000034237C2221467820FDF7BEF8FCF70CFE0B
:104A10000DE0002211460320FEF720FB0022114684
:104A20000120FEF71BFB0F48FCF73CFF00BF00BF57
:104A3000FEBD0000E00000209A99999999298640CE
:104A400000209C40280000203333333333B35340DD
:104A5000000069402A0000202400002020000020DF
:104A600000005042C93000006D3500001D000020DC
:104A7000754A0000FEB505462B0001F0CEFA0C0782
:104A8000B7B8B6C1C1C1C193C1C1ADC101F0F0FF9A
:104A9000002211460320FEF7E1FA5B480078012866
:104AA00006D0022817D0032828D004284CD138E09B
:104AB0000420FFF737F80646FBF771FC0446224650
:104AC0001921322002F026F8962350A20821502006
:104AD000FDF780FA38E00520FFF724F80646FBF7DB
:104AE0005EFC044622461921322002F013F8962378
:104AF00047A208215020FDF76DFA25E00620FFF7B8
:104B000011F80646FBF74BFC0446224619213220D9
:104B100002F000F896233FA208215020FDF75AFA30
:104B200012E00720FEF7FEFF0646FBF738FC0446BE
:104B300022461921322001F0EDFF962336A20821EA
:104B40005020FDF747FA00BF00BF0220FEF7EAFF42
:104B50000746FBF724FC06462146FBF7BDFC0AD3BB
:104B60000320FEF7DFFF0746FBF719FC0646214648
:104B7000FBF7BCFC03D22948FCF794FEFEBD0120E4
:104B8000274920231A460091019014210A20FDF79D
:104B900099F9012211461046FEF760FA01202149D9
:104BA00008702DE01F48007800280CD000201D4917
:104BB00008701548007800F085FD1E220121084686
:104BC000FEF74CFA07E0002211460120FEF746FAF4
:104BD0001548FCF767FE13E0002211460120FEF79E
:104BE0003DFA1148FCF75EFE0AE000BF00BF00225C
:104BF00011460120FEF732FA0B48FCF753FE00BFC6
:104C000000BF00BFBAE700001D0000204D310000CA
:104C10004D3200004D3300004D3400005D4C00006B
:104C20003C76000022000020C930000010B5C046CC
:104C3000C04610BD10B5C046C04610BD10B5012A13
:104C400005D1036801248C402343036004E003681A
:104C500001248C40A343036010BD00001CB5044632
:104C6000230001F0DAF90906282927232425263212
:104C70003B0001F0FDFE002211460120FEF7EEF997
:104C80000120174920231A46009101900F21192075
:104C9000FDF718F9962313A214213B20FDF79AF98A
:104CA000012211461046FEF7D9F917E000BF00BFF8
:104CB00000BF00BF00BF00BF012200211046FEF769
:104CC000CDF90A48FCF7EEFD08E00022114601206C
:104CD000FEF7C4F90548FCF7E5FD00BF00BF1CBDA9
:104CE000BC770000B3ACCFDE00000000C93000008C
:104CF0001CB50446206800280AD101201649062365
:104D000010220091019032210A20FDF7DBF822E009
:104D10002179206888420AD10120104906231022F7
:104D2000009101900A210846FDF7CCF813E001201C
:104D30000A4906231022009101900A210846FDF736
:104D4000C1F801200449062310220091019032216C
:104D50000A20FDF7B7F81CBD147900002079000087
:104D600000200249086004200871704724030020D5
:104D70001CB50446230001F050F90C07476B8FC5A2
:104D8000C5C5C53EC5C5B1C501F072FEFFF7E8FF58
:104D90005D48FFF7ADFF5D495B48FDF78CF95A4868
:104DA00000688100584808304258962316210A208E
:104DB000FDF710F90820FEF7B5FE534909684900D0
:104DC000534A515A88420AD1012052490C231022D9
:104DD000009101901B216C20FDF774F805E027235A
:104DE0007C221B216C20FCF757FE03220121084680
:104DF000FEF734F986E0002211460120FEF72EF975
:104E00004548FCF74FFD7DE0032201210846FEF7EF
:104E100025F93D48FCF754FD0820FEF783FE3A498A
:104E2000096849003A4A515A88420AD10120394951
:104E30000C231022009101901B216C20FDF742F8F9
:104E400005E027237C221B216C20FCF725FE59E07E
:104E5000032201210846FEF701F92B48FDF7A4FCC7
:104E60000820FEF75FFE284909684900284A515A80
:104E700088420AD1012027490C2310220091019079
:104E80001B216C20FDF71EF805E027237C221B2147
:104E90006C20FCF701FE35E01B480068030001F0C0
:104EA000BCF80504050607111A0000BF00BF00BFCB
:104EB000154800684000164A115A00220820FEF7E3
:104EC00009FF09E0032200210120FEF7C7F812487C
:104ED000FCF7E8FC00E000BF00BF13E00A480068F0
:104EE00040000B4A115A01220820FEF7F3FE012070
:104EF0000A49087003220021FEF7B0F80848FCF7C1
:104F0000D1FC00BF00BF1CBD2403002064000020B2
:104F1000FC7A00003C7800006D3500001C00002089
:104F2000CD390000024690680840002801D00120D9
:104F300070470020FCE702460020106008784B789C
:104F400018438B781843CB781843402318431060DC
:104F50000020906070470246D16000207047416099
:104F60007047000010B50446230001F056F80F0901
:104F70001213110D0E0F101C1C1C1C1C15141C00F0
:104F8000002001F0A1FE0EE000BF00BF00BF00BF87
:104F900000BF00BF00BF00BF012001F095FE034825
:104FA000FCF780FC00BF00BF10BD0000C93000004E
:104FB00010B5C046C04610BD70B504460025207827
:104FC000030001F02AF80504050C10181C0018E075
:104FD000032000F035FA032000F0FCF911E0032073
:104FE00000F0D2F90DE00321084600F037FA032063
:104FF00000F000FA05E0072000F094F901E0042534
:1050000000BF00BF2078012100F00CF8207800F0EC
:1050100001FA607800F05EF9A07800F06FF9284698
:1050200070BD000070B505460C46002600F0BEFFBE
:10503000002C01D0012000E0002004462B0000F0ED
:10504000ECFF05041731456276003B4800684008D4
:105050004000E107C90F08433749086000BF002C32
:1050600005D03548C0680005C00F0028F7D060E0C3
:105070003248C068032108433049C8602E480068A0
:105080000221884361000222114008432A49086036
:1050900000BF002C05D0284800694006C00F00283A
:1050A000F7D046E02448006804218843A100042288
:1050B000114008432049086000BF002C05D01E485D
:1050C0004069C004C00F0028F7D032E01B484038C8
:1050D000C06803218903084318494039C86016484D
:1050E000006808218843E100082211400843124962
:1050F000086000BF002C05D00F4880694006C00F33
:105100000028F7D015E00C480068102188432101E1
:105110001022114008430849086000BF002C05D048
:105120000548C06B4003C00F0028F7D001E00426FB
:1051300000BF00BF304670BD00200040C00D0240DF
:1051400030B589B000241422564904A8FBF70AF8A8
:1051500054481430006803900020009001900290A1
:1051600051480188684601814F4841886846C1809E
:105170004D488188684681804B48C1886846418097
:105180004948203001886846018048480068000688
:10519000450F2B0000F041FF05042E303E41780002
:1051A0004248C0684005400D69460989884201D1DE
:1051B000089C1EE03D48C0684005400D6946C9880E
:1051C000884201D1079C14E03848C0684005400D72
:1051D00069468988884201D1069C0AE03348C06844
:1051E0004005400D69464988884201D1059C00E090
:1051F000049C4BE02E4C49E0684600882B494969E5
:105200008905890D884202D16846C48901E0684653
:1052100084893BE00124E40338E02448C06B800724
:10522000800F032829D1684600892049C9684905AB
:10523000490D884201D1089C20E06846C0881B497E
:10524000C9684905490D884201D1079C16E06846A6
:1052500080881649C9684905490D884201D1069CD4
:105260000CE0684640881149C9684905490D8842E3
:1052700001D1059C02E0049C00E00D4C0B48C06B82
:10528000C005000F444301E0002400BF00BF0748F1
:1052900000684005410F2046C8400446204609B03A
:1052A00030BD0000346F0000000C100000200040F2
:1052B0000048E80110B50024FFF742FF0446044807
:1052C0000068C004810F2046C8400446204610BD37
:1052D0000020004010B5044600F068FE0648006853
:1052E00007210902884321020722120211400843C4
:1052F00001490860002010BD0020004010B50446A0
:1053000000F054FE064800680321C9028843E10208
:105310000322D2021140084301490860002010BD59
:105320000020004010B501460020064AD26B07233A
:10533000DB039A43CB030724E40323401A43014BC6
:10534000DA6310BD0020004070B504460D462A46C1
:1053500021460248FFF772FC002070BD202000406B
:1053600001464A00064BD21812885005400D054AE6
:10537000D268D20AD2020243024BDA6000207047A0
:10538000000C10000020004010B501460020064A25
:10539000526903239B029A438B020324A4022340F5
:1053A0001A43014B5A6110BD0020004001464A00DB
:1053B000064BD21812889005800D054A5269920A50
:1053C00092020243024B5A6100207047000C100009
:1053D0000020004010B501460020054A1269302324
:1053E0009A430B01302423401A43014B1A6110BD2C
:1053F0000020004010B501460020054A9269302384
:105400009A430B01302423401A43014B9A6110BD8B
:105410000020004070B504460025264600F0C6FD79
:1054200006480068E02188437101E02211400843EA
:105430000249086000F02CF8284670BD00200040AA
:1054400001460020044A1269920892008B079B0FC4
:105450001A43014B1A6170470020004030B50246E4
:1054600000200A4B9B690C24A34394000C252C407C
:105470002343064CA36123469B699B089B008C0732
:10548000A40F2343014CA36130BD00000020004065
:1054900010B5FFF755FE0149086010BD000000205F
:1054A00010B5FFF7F5FF10BD10B5C046C04610BDE2
:1054B00010B5C046C04610BD10B500F011F810BDC3
:1054C00010B5C046C04610BD10B5C046C04610BDA0
:1054D00010B5C046C04610BD10B5C046C04610BD90
:1054E00010B500210220FBF7C9FE012809D1FDF704
:1054F00035FDFDF797F9FBF7F7FC00210220FBF7DC
:10550000AFFE10BD10B5C046C04610BD10B500F0CE
:1055100001F810BD10B50021274800F08CF80028D4
:1055200048D00021244800F067F8234800F0C6F86E
:1055300022490870224921480078FFF739F82148AC
:105540000078002804D001280AD0022831D117E0C1
:105550001A4800789B2802D101201A49087028E0D7
:10556000164800781849087008460078172803DCA8
:1055700002201449087002E000201249087018E067
:1055800011480078401E104908700846007800282D
:105590000ED10A4800789D2807D109482038807F1D
:1055A000401CC1B2064820388177002005490870A8
:1055B00000BF00BF10BD000000010040140000202B
:1055C0004A010020180000201900002010B5012118
:1055D000014801F0DDFB10BD5A71000010B55B21E0
:1055E0000348C1770121034801F0D2FB10BD000040
:1055F0002A0100205B71000070B504460D460022B0
:10560000294620461430FFF719FB002070BD70B505
:1056100004460D4601222946201DFFF70FFB0020FE
:1056200070BD70B504460D4601222946201DFFF7C6
:1056300005FB002070BD70B504460D4600262946C6
:1056400020461030FCF731FD0646304670BD0000A4
:10565000FEB505460C460127174903C90191009084
:10566000002C01D10420FEBD0020686060886178B4
:105670000843A188084321780843686020784028BF
:1056800002D02078C02813D1A088C117C90D0918ED
:10569000491289006A46515A8EB2E268B2401146F8
:1056A000A068FAF735FDA86104212846FFF7AFFF8F
:1056B00000273846D7E700004C6F00000146086815
:1056C000C0B2704738B5044606A00068009068462E
:1056D000447058210448C1770221684601F058FB04
:1056E00038BD0000580000002A01002070B50446B3
:1056F0000D4600BF03212046FFF79DFF0028F9D08B
:105700002068000A0002E9B20843206000BF0121BE
:105710002046FFF790FF0028F9D001212046FFF72F
:105720006BFF002070BD000010B553210348C17706
:105730000121034801F02CFB10BD00002A010020CC
:105740005571000010B554210348C1770121034869
:1057500001F01EFB10BD00002A0100205671000060
:1057600010B555210348C1770121034801F010FB12
:1057700010BD00002A0100205771000038B5044612
:1057800004A00068009068464470022101F000FB0C
:1057900038BD00005A00000010B50121014801F099
:1057A000F7FA10BD5471000010B556210348C177B7
:1057B0000121034801F0ECFA10BD00002A0100208D
:1057C0005871000010B50121014801F0E1FA10BD47
:1057D0005971000010B50446A07F5038030000F056
:1057E0001CFC0D08575F6C6D6E6F81A4A5AFB7C42C
:1057F000C800E07F604988762020005D0882212073
:10580000005D08752220015D5B4841752220005D26
:1058100004210840584988752320015D5648C17508
:105820002420015D544801762520005D00022621D8
:10583000095D0843504948802720005D0002282167
:10584000095D08434C4988802920005D08772A209B
:10585000005D00022B21095D08434749C8802C20C8
:10586000005D00022D21095D0843434908812E2077
:10587000005D00022F21095D08433F494881302027
:10588000005D00023121095D08433B49888171E0D8
:10589000E07F00022021095D08433749088069E064
:1058A000A17F3F20005D814200D063E001203249AA
:1058B000C8760B20FDF700FB5CE000BF00BF00BF17
:1058C000A17F3F20005D814200D053E0E07F0028AF
:1058D00001D0012000E000202749C8760B20FDF709
:1058E000EBFA47E0E07F002809D0E07F22494876C4
:1058F000012001F0E9F92148FBF7D4FF12E0202054
:10590000005D012805D101F0DFF91D48FBF7CAFF52
:1059100008E02020005D022804D102221146104632
:10592000FBF7EEFAFFF752FE24E000BFA17F3F2015
:10593000005D814200D01DE00B20FDF7BDFA19E0AB
:10594000E07F00022021095D08430B49088011E037
:10595000A17F3F20005D814200D00BE0E07F06493F
:1059600048770B20FDF7A8FA04E00B20FDF7A4FA16
:1059700000E000BF00BF10BDE0000020A541000016
:10598000E5450000F8B504460020009000250026FB
:105990003E20005D002800D1F8BD684601F062FAA3
:1059A000002804D100213E2001550125BDE06846B4
:1059B00001783C20025D005D401CC3B23C200355D1
:1059C000A15460480078030000F027FB05040C1F79
:1059D0006F93AC00684600789B2802D1012059499A
:1059E0000870A0E06846007803280BDD6846007860
:1059F000182807DA68460078534908700220514990
:105A0000087001E0012590E08DE050480078000228
:105A10006946097808434D490880084600884C4982
:105A200088421DD1684602783D20005D401E214617
:105A30001E310A543C20005D4349097888420FD149
:105A4000002044490870684601784248027800788E
:105A5000401C404B1870404881540320394908705D
:105A60003C20005D38490978884210D1002039492E
:105A7000087068460178374802780078401C354B3A
:105A800018703548815403202E4908700CE0684690
:105A900000783D21095D3D22125D521CD3B23D22AA
:105AA000135522461E3250543DE06846017829487D
:105AB00002780078401C274B1870274881541846FC
:105AC0000078022814D13D20005D411C601CFBF7CA
:105AD0008FFD06462048007800021F494978084398
