:020000040000FA
:10000000A00B0020D5000000EF000000E120000060
:1000100000000000000000000000000000000000E0
:10002000000000000000000000000000F3000000DD
:100030000000000000000000F5000000954F0000E7
:10004000DD390000E5390000ED390000F539000028
:1000500015180000A5540000E9540000F1540000F8
:10006000292E0000312E00003D4C0000454C0000C0
:100070003D260000452600008D54000095540000E8
:100080009D540000212E0000AD540000B554000026
:10009000BD540000CD3900008D5D00001541000009
:1000A000EB090000D5390000D55C0000DD5C0000E4
:1000B000392E0000DB2D00005119000071150000E1
:1000C0000348854600F05CFC004800475B6C00007C
:1000D000A00B002009480A4A002100A1814200D952
:1000E0000244084802600848804708480047FEE785
:1000F000FEE7FEE7FEE7FEE7FEE700000000002067
:100100000000000008ED00E085540000C100000080
:1001100030B50B46014600202022012409E00D469F
:10012000D5409D4205D31D469540491B2546954027
:1001300040191546521E002DF1DC30BD70B500246B
:100140002546002801DA01244042002901DA012570
:100150004942FFF7DDFFAC4200D04042002C00D006
:10016000494270BD03460B439B0703D009E008C911
:10017000121F08C0042AFAD203E00B780370401C57
:10018000491C521EF9D27047F8B502464A40D40FB6
:1001900042004B0052085B089A4202D202460846CF
:1001A00011464A0023D0C30D4A00DDB2120EAD1A2B
:1001B000202D35DA49020126490AF6058A19002C54
:1001C00000D0524220214F1B1146B9402A4110183D
:1001D000C20D9A4221D0002C17D0012D08DCDA057F
:1001E000801AD20F8019D207DBB200F0D2F9F8BD25
:1001F000DA05801A012340001B06C01880185A42F5
:100200008018CA0F1043490007E04908C20711438C
:10021000DA05801A80194008801800F0B2F9F8BD9C
:1002200061000122511A001BF7E70122D207514059
:10023000AAE70122D2075040A6E770B502464A401D
:10024000D50F40004A00ED0740085208002814D09E
:10025000002A12D0C40DD30D41020120C005520264
:10026000490A520AE41A091812187D34914201D33E
:10027000641C00E04900002C01DA002070BD00235E
:10028000914201D3891A0343400849000028F7D15D
:1002900000290AD0914202D10121C90705E091420B
:1002A00001D2012101E00121C943E005C018401934
:1002B00000F067F970BD0000F0B51FB488B00B996D
:1002C0000998002448400999C00F4900490809913C
:1002D000C0070B990090490049080B9109990898AB
:1002E000A64608431CD00B990A98084318D00998D1
:1002F00001244000420D4800410D099824050003E7
:10030000000B204309900B980003000B20430B9037
:1003100050181C494018002201901446104605E070
:10032000002001460DB0F0BD032801DA034600E0CD
:1003300003239C46C11A0AAE0AE05F0008ADED5BDC
:100340004F00F75B7D430027AA187C41491C5B1EC8
:100350006145F2DD410004AB5A522104120C0A43FC
:10036000240C401C0828DFDB01980290009970469D
:1003700001910090059B049A0799069800F04FF9A7
:10038000D0E700000DFCFFFFC217C10F504010B5B1
:100390004018CA079623002100F0FBF810BD10B5E5
:1003A00000229623114600F0F4F810BD0EB5C217D6
:1003B000C10F5040CA0740180021054B029301921B
:1003C00000910A460B4600F02AF903B000BD000078
:1003D000330400000EB505490291002100910A4640
:1003E0000B46019100F01BF903B000BD330400007F
:1003F000C20F410040020123400ADB05D207090E6B
:10040000C0187F2901DA00207047962903DC962363
:10041000591AC84001E096398840002AF4D0404279
:100420007047410040020122400AD205090E80189F
:100430007F2901DA00207047962903DC9622511AA1
:10044000C840704796398840704700004A00090349
:100450000123090B1B051943094B10B5520D9A4294
:1004600001DA002010BD064B34339A4203DC9A1A9D
:1004700000F076F810BD03495118884010BD000007
:10048000FF030000CDFBFFFFC20FD2074000400872
:100490000BD0C10D0723DB01C91840020905400A32
:1004A0001143C208400711437047002001467047BE
:1004B00010B5002904DB0124E40740428C412146A9
:1004C000002B04DB1C460123DB075242A3418B4275
:1004D00000D1824210BD00000122D207002800DBBB
:1004E000101A002900DB511A814270470122D207FD
:1004F000002800DB101A002900DB511A88427047DF
:10050000F0B51FB40646002082B005464024019194
:1005100000901BE0019922460F46304600F020F87B
:10052000049A059B801A994110D310461946224619
:1005300000F038FA361A8F41019722460120002137
:10054000009F00F02FFA38184D4100902046641E9D
:100550000028DFDC019B00982946324607B0F0BD39
:1005600010B5202A04DB0846203AD040002110BDF7
:100570000B46D340D0402024A21A9140084319468C
:1005800010BD002904DA401C490001D14008400098
:10059000704770B40024050C05D11024000402D16A
:1005A000002921D01124050E01D100020834050FC5
:1005B00001D10001241D850F01D18000A41C002859
:1005C00001DB4000641C002908D020252E1B0D46AD
:1005D000F540A14000D001212943084301061B1B1F
:1005E000000ADB1D02D5002070BC7047DB0518181F
:1005F00080180029F8DA401C4900F5D170BC400889
:100600004000704710B5002B08DA0024401C6141FF
:1006100092185B411A4301D14008400010BDF0B56B
:100620001FB482B005460C0003D0084605F09AFCC2
:1006300002E005F097FC2030024600902146284653
:1006400000F0B0F9049B059A04460F461843114385
:10065000084314D0184610431BD0009840210A1AB2
:1006600018460599FFF77CFF05460E46009A059946
:10067000049800F097F9084305D0012004E02046D3
:10068000394607B0F0BD0020C11705430E432C4387
:10069000374300990E986305401A7905E40A002251
:1006A0000C43FD0A0A3002D500200146E9E70105A6
:1006B000101969410C9C0D9D00196941FFF7A2FFBB
:1006C000DFE70000F0B507460846584087B0C00F86
:1006D000049048000E46590040084908BC1A884159
:1006E00005D2384631461E4617460B46024658008C
:1006F000400810434CD0300D039040055900400D88
:10070000490D0590401A0290402872DA1803012121
:10071000000B09050843019004980092002805D0B9
:100720000199524200208841009201900298402194
:100730000A1A0199009800F035F905460C466B46F7
:1007400007CB00F03FF9C0197141039A0E0D002349
:10075000D71756401A467A40164344D0049A002AC6
:100760002DD0029A012A039A15DC1205C01A914174
:1007700001263605001C7141D20F059ED207009359
:10078000019202962A462346FFF749FF07B0F0BDC3
:1007900038463146FAE71605224A0F46B218C01A03
:1007A000B74101210905001C4F4100187F41114646
:1007B00018187941E20F10436D19644113E0E20704
:1007C0006D0815436408C2071443039A01261205F5
:1007D000C01A91413605001C7141CE0740083043D4
:1007E0004908C01851412A462346FFF70BFFCDE7C1
:1007F000FFE7049801224000C117121A00238B4121
:1008000004983146C417381AA141EEE730B40124E8
:10081000E407634030BC55E730B40124E40761408D
:1008200030BC4FE70000E0FFF0B50C465C4085B0FF
:10083000E40FE40703944C00002664085900944632
:10084000490802460296224321D062460A431ED03E
:100850006200570D4A000E032303550D0124024682
:100860002C492405781B1B0B360B401823432643C9
:10087000614600901C46501AB44103D30098401CB6
:10088000009002E0921800985B41002803DA0020F3
:10089000014605B0F0BD0020012109050746864646
:1008A00011E064461D46141BB54106D36546521B34
:1008B000B341744607430C43A646CD074008490898
:1008C000284392185B4105460D43EAD11046184370
:1008D00013D06046194650407140084306D0604628
:1008E000101AB34106D20122002306E000220123A0
:1008F000DB0702E00122D243531000987446010541
:10090000381C6141029C039D00196941FFF77AFE82
:10091000BFE70000FD0300004A0009030123090BA3
:100920001B0519430A4B10B5520D9A4202DA0020FA
:10093000014610BD064B34339A4203DC9A1AFFF786
:100940000FFE10BD034BD21800F02CF810BD0000B4
:10095000FF030000CDFBFFFF10B5002904DB0124DD
:10096000E40740428C412146002B04DB1C46012356
:10097000DB075242A341994200D1904210BD0000D2
:10098000064C0125064E05E0E36807CC2B430C3CE2
:1009900098471034B442F7D3FFF796FB788D0000E8
:1009A000988D000010B5202A04DB0146203A9140C2
:1009B000002010BD914020239C1A0346E3401943B8
:1009C000904010BD10B5202A06DBCB170846203A10
:1009D0001041C1170B4306E00B461341D0402024C1
:1009E000A21A91400843194610BD10B5C046C04632
:1009F00010BD08B501211F2004F098FC002000F074
:100A0000C9FF042004F09EFC00216846017041707B
:100A1000817004F0C3FA08BD1CB50621684605F0D4
:100A2000ADFF01211C2004F081FC002168464170CB
:100A300001706A460721002001F0E4FA0122072133
:100A4000002001F027FB6A460521002001F0DAFAB8
:100A500001220521002001F01DFB1CBD1CB5062153
:100A6000684605F08BFF01211C2004F05FFC00218B
:100A7000684601706A460221002001F0C3FA012293
:100A80000221002001F006FB0121684601706A4640
:100A90000321002001F0B6FA01220321002001F019
:100AA000F9FA1CBD10B5112004F072FC01210220DE
:100AB00004F0AAFA022004F09FFC002004F042FC9B
:100AC000002004F099FC0021022004F09DFA7D2012
:100AD000C00005F063FF10BD08B50121062004F039
:100AE00025FC10216846017000214170C1708170A1
:100AF0006946024804F011FA08BD000000080040F1
:100B0000B0B588B004460F461546142103A805F079
:100B100035FF0A21684605F031FF0121082004F065
:100B200005FC0221684601730021C1738173417382
:100B300001740121417400218174C17403A9002052
:100B400000F0C2FC01222146002000F097FB2A465B
:100B50000121002000F0AAFB0721684681710021D5
:100B6000C17101210172002141726946002000F02B
:100B7000E7FB3146002000F0B7FB002000F028FB27
:100B800008B0B0BD1FB5062102A805F0F7FE06218A
:100B9000684605F0F3FE01211C2004F0C7FB00218C
:100BA000684601706A460521C02001F02BFA002139
:100BB0006846017202AA0121002001F023FA0322F3
:100BC0000121002001F066FA1FBD70B586B0044611
:100BD000142101A805F0D2FE0121082004F0A6FB93
:100BE00000216846017141720521C17101218172A4
:100BF000002101728171417101A9022000F018FCED
:100C000003208003001B85B22946022000F008FB68
:100C100003208003001B86B23146022000F010FB47
:100C20000021022000F0E0FA022000F0F3FB012294
:100C30000321102000F062FE06B070BD00B587B041
:100C4000102103A805F09AFE0C21684605F096FED7
:100C50000121084604F06AFB402168460173002127
:100C6000C18141734B21C9010691012149020182D1
:100C700004F012FB059003A90A4804F0DBFC0021F4
:100C8000084804F0ABFC0121064804F0A7FC002151
:100C9000044804F0B8FC01220321072000F02EFED6
:100CA00007B000BD0001004010B50446082C73D009
:100CB00004DC002C07D0032C19D16EE00B2C56D08D
:100CC0000C2CF9D114E004F021FD05F041FE902335
:100CD00042A21B211A2001F0FDF83C220121084606
:100CE00002F000F905220121032002F0FBF873E075
:100CF0003C480078002806D0012810D002281AD0DD
:100D000003282ED123E02A236B2228215F2000F024
:100D10005BFE34480078401C3249087025E02A23E5
:100D2000612228215F2000F0C7FE2E480078401C79
:100D30002C49087019E02A2366222821642000F03B
:100D4000BBFE28480078401C264908700DE02A2385
:100D50006B222821692000F0AFFE00202149087095
:100D600003E000201F49087000BF00BF34E00120ED
:100D70001D490870102002F041FE002802D0012811
:100D800008D103E0194800F03BFD03E0184800F0EB
:100D900037FD00BF00BF1FE010E000221146012018
:100DA00002F0A0F805220021032002F09BF80120A8
:100DB0000D4908700F4800F023FD0DE00022114698
:100DC000012002F08FF805220021032002F08AF8AA
:100DD000064800F015FD00BF00BF10BDB5F7C6BD49
:100DE000D6D00000E90000201C000020951800006B
:100DF000A5380000C16C000010B5304840780028CC
:100E000057D02E48407900281DD02C480078002863
:100E100019D001202949C87000220121104600F094
:100E200073FA2648007925490978884245DB002075
:100E30002249087100221146104600F065FA002090
:100E40001E49487139E01D484079002826D11B48C9
:100E50008078002822D0194800791849897888427A
:100E60002BDB16484078401E1449487008464078ED
:100E7000002809D0002008710120487100220121BA
:100E8000104600F041FA18E000200C49C8700871C3
:100E900000221146104600F037FA0EE000221146FB
:100EA000104600F031FA002004494870C8700871FB
:100EB00003E000200149C870087110BD0400002043
:100EC0000448C078002804D002480079401C014939
:100ED000087170470400002070B504460D461646A0
:100EE0000A2002F08BFD002801D1012000E0002043
:100EF000C007C00F002800D070BD01200449487110
:100F000000200871084644700570867000BFF3E742
:100F1000040000201CB50446230005F03AF80C0735
:100F2000466482AEAEAEAE3DAEAE9FAE05F010FDF5
:100F300000F0B4F8524803F0DFFE5249504801F087
:100F400034F84F48006881004D48083042589023DB
:100F50001B210A2000F0BEFF0C2002F04FFD484983
:100F60000968494A515C88420AD1012047490C234B
:100F70001022009101901B215A2000F023FF05E070
:100F800027236A221B215A2000F01EFD0322012183
:100F9000084601F0A7FF70E000221146012001F091
:100FA000A1FF3B4800F02CFC67E0354800F036FC20
:100FB0000C2002F023FD32490968334A515C884213
:100FC0000AD1012031490C231022009101901B21EC
:100FD0005A2000F0F7FE05E027236A221B215A2041
:100FE00000F0F2FC49E0264801F030FB0C2002F052
:100FF00005FD23490968244A515C88420AD1012031
:1010000022490C231022009101901B215A2000F04C
:10101000D9FE05E027236A221B215A2000F0D4FCC8
:101020002BE017480068002806D0012805D00228C8
:1010300004D003280FD10AE000BF00BF10480068A9
:10104000114A115C00220C2002F0B0FD04E01048AF
:1010500000F0D6FB00E000BF00BF0EE008480068CB
:10106000094A115C01220C2002F0A0FD012009496F
:101070000870094800F0C4FB00BF00BF1CBD0000A1
:10108000B00300208C000020EA7900001C770000EB
:10109000253400001C000020A53800000020024973
:1010A0000860032008717047B003002010B50446A3
:1010B000002C06D0082C6DD00B2C56D00C2C77D1E0
:1010C00014E005F045FC90233AA21B211A2000F001
:1010D00001FF04F037FB14220121084601F002FF52
:1010E00005220121032001F0FDFE61E03348007874
:1010F000002806D0012810D002281AD003282ED1AB
:1011000023E02A236B2228215F2000F05DFC2B487E
:101110000078401C2949087025E02A2361222821F3
:101120005F2000F0C9FC25480078401C2349087066
:1011300019E02A2366222821642000F0BDFC1F4804
:101140000078401C1D4908700DE02A236B222821DD
:10115000692000F0B1FC00201849087003E000206D
:101160001649087000BF00BF22E001201449087032
:10117000102002F043FC002802D0012808D103E02F
:10118000104800F03DFB03E00F4800F039FB00BFC2
:1011900000BF0DE000221146012001F0A3FE052250
:1011A0000021032001F09EFE084800F029FB00BF4B
:1011B00000BF10BDD7D4BCECD6D00000E8000020A2
:1011C0001C00002095180000A5380000C16C00002C
:1011D00010B5014600200B02024C1A19002353617E
:1011E00010BD0000000C004030B502460020140283
:1011F000034D631901248C40E4435C6130BD000061
:10120000000C004070B5024600201502034EAB19D9
:101210001C692546CD40E807C00F70BD000C00409A
:1012200030B5024600201402044D63191C68240CDA
:1012300024048DB22C431C6030BD0000000C004023
:1012400030B5024600201402044D63195C68240C7A
:1012500024048DB22C435C6030BD0000000C0040C3
:1012600010B5014600200B02034C1A19D3685B0825
:101270005B005B1CD36010BD000C0040F0B5034662
:101280000C4600201D02084EA9190D682D0C2D04D6
:10129000A6B235430D60CD688026B543D6018027C0
:1012A0003E403543CD60F0BD000C004070B50446B3
:1012B0000B46002025020B4EA919002B06D1CD6B41
:1012C0002D0C2D0496B23543CD6309E0012B06D1D8
:1012D0000D6C2D0C2D0496B235430D6400E00120F9
:1012E00070BD0000000C004030B502460020140222
:1012F000044D63195C68240C24048DB22C435C609B
:1013000030BD0000000C0040F0B503460C46002044
:101310001D020A4EA9190D6BB614B5432603012709
:101320003F033E4035430D630D6B7E10B543D6023F
:101330007F103E4035430D63F0BD0000000C0040BF
:1013400070B503460A4600201C022A4D61194C6AFA
:101350001025AC434C62CC69E408E40055786D0775
:101360006D0F2C43CC61CC690825AC439578ED001A
:10137000082635402C43CC614C6A4025AC43D578D7
:10138000AD01402635402C434C62CC6803256D05E9
:10139000AC4315796D050326760535402C43CC60AA
:1013A0004C6A2025AC434C62CC697025AC439579DE
:1013B0002D01702635402C43CC61CC698025AC438F
:1013C000D579ED01802635402C43CC614C6A8025CF
:1013D000AC43157AED0135402C434C624C6A032531
:1013E0002D03AC43557A2D030326360335402C4399
:1013F0004C6270BD000C004010B5014600200B028D
:10140000034C1A19D3685B085B005B1CD36010BDEA
:10141000000C004010B5014600200B02034C1A19C5
:10142000D3682415A3431B19D36010BD000C0040E2
:1014300070B503460A4600201C02224D6119CC6893
:10144000AD00AC4315782D030326360335402C43FD
:10145000CC60CC6801256D02AC4355786D02012645
:10146000760235402C43CC60CC687510AC4395783F
:101470002D02761035402C43CC60CC687025AC43EF
:10148000D5782D01702635402C43CC60CC680825DA
:10149000AC431579ED00082635402C43CC60CC6870
:1014A0000425AC435579AD00042635402C43CC606F
:1014B000CC680225AC4395796D00022635402C435B
:1014C000CC6070BD000C004070B503460A46002099
:1014D0001C02264D6119CC68AD00AC4315782D0374
:1014E0000326360335402C43CC60CC687025AC43D2
:1014F00095782D01702635402C43CC60CC680425AE
:10150000AC43D578AD00042635402C43CC60CC6884
:101510000225AC4315796D00022635402C43CC6082
:10152000CC680825AC435579ED00082635402C439E
:10153000CC60CC68F502AC439579AD03F60235403A
:101540002C43CC60CC68F500AC43D5796D04F60033
:1015500035402C43CC60CC68B502AC435578ED06E1
:10156000B60235402C43CC6070BD0000000C00403A
:1015700010B5C046C04610BD70B502460B46FF25EB
:10158000FF2408E01178521C61400748405C684025
:1015900004460648455C18465E1EB3B20028F1D1E9
:1015A0002802204370BD0000346E0000346F00003C
:1015B0001CB5012002F022FA0446032002F01EFAB4
:1015C000844203D801203449087021E0012002F050
:1015D00015FA0446022002F011FA844203D30220D5
:1015E0002D49087014E0012002F008FA2B49097E09
:1015F000002902D0FF21633101E0E1218900884206
:1016000003D203202449087002E004202249087014
:10161000214800782249097888423BD01E4800784A
:101620001F49087008460078012806D002280FD00C
:10163000032818D004282CD120E0012019492023A8
:101640001A460091019014210A2000F0BBFB20E013
:101650000120154920231A460091019014210A20E7
:1016600000F0B0FB15E00120104920231A4600913C
:10167000019014210A2000F0A5FB0AE001200C498A
:1016800020231A460091019014210A2000F09AFBB1
:1016900000BF00BF1CBD00001F000020F4000020A0
:1016A000200000209C7400001C7400001C730000CB
:1016B0009C73000010B50446002C06D0082C6DD099
:1016C0000B2C56D00C2C77D114E004F02DF805F03B
:1016D0003FF9902339A21B211A2000F0FBFB0A22BC
:1016E0000121084601F0FEFB05220121032001F043
:1016F000F9FB61E033480078002806D0012810D0BB
:1017000002281AD003282ED123E02A236B22282175
:101710005F2000F059F92B480078401C29490870D7
:1017200025E02A23612228215F2000F0C5F9254801
:101730000078401C2349087019E02A2366222821DA
:10174000642000F0B9F91F480078401C1D4908705A
:101750000DE02A236B222821692000F0ADF900203A
:101760001849087003E000201649087000BF00BF48
:1017700022E0012014490870102002F03FF90028EF
:1017800002D0012808D103E0104800F039F803E046
:101790000F4800F035F800BF00BF0DE00522002122
:1017A000032001F09FFB00221146012001F09AFB6B
:1017B000084800F025F800BF00BF10BDD7D4BCEC2E
:1017C000D6D00000EA0000201C0000209518000080
:1017D000A5380000C16C000000B512231A220A21AE
:1017E000084600F0F1F83A231A2232210A2000F0CC
:1017F000EBF82B234A221B210A2000F0E5F800BD5C
:1018000010B504460248046001680020884710BDF6
:10181000F000002010B5C046C04610BD1CB50446FF
:101820002068002830DD2068401E2060FFF7D4FFCC
:101830002068810020460830425890231B210A204E
:1018400000F048FB206800280AD101200F49062338
:1018500010220091019032210A2000F0B3FA13E027
:1018600001200B4906231022009101900A2108460D
:1018700000F0A8FA012005490623102200910190EA
:1018800032210A2000F09EFA1CBD0000F47700000F
:10189000007800001CB50446002C02D0082C23D18F
:1018A00011E005F055F80120104920231A46009157
:1018B00001901421322000F085FA012211461046D1
:1018C00001F010FB10E000221146012001F00AFB9C
:1018D00007480078002803D00648FFF791FF02E090
:1018E0000548FFF78DFF00BF00BF1CBD1C76000040
:1018F0001C00002025340000512F000070B5044664
:101900000E46154600BFE106C90E012088400E496B
:10191000086000BF3146204601F088FF012D08D144
:1019200000BFE106C90E012088400849086000BFD9
:1019300009E000BFE106C90E01208840034980315B
:10194000086000BF00BF70BD80E200E000E100E081
:1019500010B5C046C046C046C04610BD70B5024670
:101960001378547818022043054600210CE0222009
:101970004843074E305AA84204D1222048438019D8
:10198000801C70BD481C81B24629F0D30020F8E7C6
:10199000F882000010B501460020084A084BDA62C0
:1019A000084ADA621A46126A0C239A438B000C2406
:1019B00023401A43024B1A6210BD00005A5A00001D
:1019C00000000240A5A50000FFB506460F463446BC
:1019D0000DE03D4605E0E9B2E0B200F00DF8681C0C
:1019E00085B20398401C8542F5DB601C84B20298E6
:1019F000401C8442EDDBFFBD70B50346402901DD8C
:101A0000012000E000207F2B01DD012200E0002208
:101A10001043002800D070BD0846CC17640F24186E
:101A2000E410E4010B4D6419E45C0A46CD176D0F18
:101A3000AD18ED10ED004E1B0125B540AC43CD17A0
:101A40006D0F2D18ED10ED01024EAD19EC5400BFD5
:101A5000E1E700009005002070B50346402901DD54
:101A6000012000E000207F2B01DD012200E00022A8
:101A70001043002800D070BD0846CC17640F24180E
:101A8000E410E4010B4D6419E45C0A46CD176D0FB8
:101A9000AD18ED10ED004E1B0125B5402C43CD17C0
:101AA0006D0F2D18ED10ED01024EAD19EC5400BF75
:101AB000E1E7000090050020FFB506460F463446DA
:101AC0000DE03D4605E0E9B2E0B2FFF7C5FF681C56
:101AD00085B20398401C8542F5DB601C84B20298F5
:101AE000401C8442EDDBFFBDFFB587B00A98860637
:101AF000B60E09982E38C0B2099009985E2801DD0B
:101B00000BB0F0BD062E04D10120059005200490F5
:101B100022E00C2E04D102200590082004901BE046
:101B2000102E09D102200590082004900998000188
:101B30005449401806900FE0202E09D1042005904A
:101B400010200490099880014F494018069003E046
:101B5000022005900820049040210A98084000289F
:101B600004D04A4802904A48019003E04748019057
:101B7000474802900820039080210A9808400028D6
:101B80003FD0002539E0002729E000241FE0069817
:101B900000780121A140084000280BD0EA000898F5
:101BA00010180019C1B20798C019C3B21846029A9A
:101BB00090470AE0EA00089810180019C1B2079887
:101BC000C019C3B21846019A9047601CC4B203986A
:101BD0008442DCDB0698401C0690781CC7B204984F
:101BE0008742D2DB30460838C6B2082E02DB082016
:101BF000039000E00396681CC5B205988542C2DBDD
:101C00003EE0002539E0002729E000241FE0069887
:101C100000780121A140084000280BD0EA00089874
:101C200010180019C1B20798C019C3B21846029A19
:101C300090470AE0EA00089810180019C1B2079806
:101C4000C019C3B21846019A9047601CC4B20398E9
:101C50008442DCDB0698401C0690781CC7B20498CE
:101C60008742D2DB30460838C6B2082E02DB082095
:101C7000039000E00396681CC5B205988542C2DB5C
:101C800000BF3DE7F87C0000F8790000F91900007A
:101C9000591A0000FFB583B007461646069880061D
:101CA000800E0290402106980840002804D0434846
:101CB00001904348009003E0404800904048019064
:101CC000802106980840002832D000252CE000240E
:101CD0000EE03078802121410840002806D0049A87
:101CE0005219D1B23A19D0B2019A9047601CC4B2CD
:101CF000082CEEDB761C00240FE030788021214197
:101D00000840002807D0049A5219D1B23A19083273
:101D1000D0B2019A9047601CC4B202980838A04221
:101D2000EBDC761C681CC5B202988542CFDB42E032
:101D300000253DE0002416E0307880212141084054
:101D4000002807D0049A5219D1B23A19D0B2019A98
:101D5000904706E0049A5219D1B23A19D0B2009ACB
:101D60009047601CC4B2082CE6DB761C002418E007
:101D70003078802121410840002808D0049A521967
:101D8000D1B23A190832D0B2019A904707E0049ACA
:101D90005219D1B23A190832D0B2009A9047601C59
:101DA000C4B202980838A042E2DC761C681CC5B2B6
:101DB00002988542BEDB07B0F0BD0000F9190000B3
:101DC000591A0000FFB587B006460F461446204654
:101DD000E117490F09184903090C0291E117490F4E
:101DE0000918C910C900611A89B2019110980490AC
:101DF000119800280DD0354803900A983818401ED5
:101E000083B23019401E82B239463046FFF754FE85
:101E10000CE02F4803900A983818401E83B23019FE
:101E2000401E82B239463046FFF7CEFD00200690B4
:101E300046E0002005901DE0002512E0049800789F
:101E4000802129410840002809D0069ABA18D1B249
:101E5000059AD20092195219D0B2039A9047681C81
:101E600085B2082DEADB0498401C04900598401CBC
:101E700080B20590029905988842DDDB002512E0CA
:101E800004980078802129410840002809D0069A4A
:101E9000BA18D1B2029AD20092195219D0B2039A4A
:101EA0009047681C85B201988542E9DB01980028BB
:101EB00002DD0498401C04900698401C80B20690F5
:101EC0000A9906988842B4DB0BB0F0BDF9190000FE
:101ED000591A0000FFB583B005460F46164606980E
:101EE0008006800E0290029810280ED004DC06288E
:101EF00007D00C280FD106E0182808D020280AD1D6
:101F000007E00E2409E0102407E0102405E018245F
:101F100003E0202401E0102400BF00BF3AE0307845
:101F2000802815DD3046FFF719FD0190F9B2E8B2BF
:101F30000090069B019AFFF7ADFEB61C702D04DDE4
:101F400000250298381887B224E0281985B221E0CC
:101F50003278F9B2E8B20090069BFFF7C5FD761C17
:101F6000782D04DD00250298381887B212E030463B
:101F70002038C07F2E2802D1281D85B205E02046DA
:101F8000E10F0918491049198DB20698A02801D10E
:101F9000681C85B230780028C1D107B0F0BD024678
:101FA0001068C840C007C00F704730B50246002017
:101FB00000BF07E08300CC588500134608335C510E
:101FC000431CD8B213795B1C8342F3DC30BD0000A4
:101FD00070B504460D46044960180122294602F0F6
:101FE00035FE002070BD0000140D024070B504469F
:101FF0000D46034960182946FFF7D1FF70BD000068
:10200000040D024070B504460E4615461E49601880
:102010000022314602F01AFE00201C496118B2006D
:1020200088502A7818490C396018314602F00EFEA3
:102030006A78154910316018314602F007FEAA7817
:10204000114914316018314602F000FEEA780E4959
:1020500018316018314602F0F9FD2A790A49203119
:102060006018314602F0F2FD094880680121C90379
:1020700088436979C9030122D20311400843044906
:102080008860002070BD00000C0D0240000C024072
:10209000000F024010B50346024818188C00025188
:1020A000002010BD000C024070B504460D460449E6
:1020B00060180122294602F0C9FD002070BD000011
:1020C000100D024070B504460D46164603496018CF
:1020D0003246294602F0BAFD002070BD080D0240CC
:1020E00008B50020009000BF00980028FCD008BD73
:1020F000FEB50446230003F04CFF0A06CACAFED40C
:10210000E9FDFCCBFBCA04F023FC012001F076FCC6
:102110000546FEF744F9029099490298FEF78DF8BA
:10212000029098490298FEF7D7F914D80E2001F0D2
:1021300065FC002801D094A000E094A00746029816
:10214000FEF7A2F905462A460B4691A19248009750
:1021500003F0F4FE18E00E2001F050FC002801D03E
:1021600089A000E089A005460298FEF741F90646DD
:102170002B46324689A1884803F0E0FE39236522C8
:1021800019216220FFF720FC9023834A0821502068
:10219000FFF7A0FE042001F031FC00280ED0002043
:1021A000804918231A46009101901E210A20FFF74A
:1021B00009FE1E210A2004F07BFB09E00120794979
:1021C00018231A46009101901E210A20FFF7FAFDFC
:1021D000052001F013FC00280ED0002072491823BE
:1021E0001A46009101901E212820FFF7EBFD1E21C9
:1021F000282004F05DFB09E001206B4918231A46F2
:10220000009101901E212820FFF7DCFD062001F03F
:10221000F5FB00280ED00020644918231A460091CF
:1022200001901E214620FFF7CDFD1E21462004F01F
:102230003FFB09E001205D4918231A4600910190F7
:102240001E214620FFF7BEFD072001F0D7FB002826
:102250000ED00020564918231A46009101901E21E5
:102260006420FFF7AFFD1E21642004F021FB09E08C
:1022700001204F4918231A46009101901E21642025
:10228000FFF7A0FD03220121084600F02BFE75E0B8
:1022900000221146012000F025FE4648FFF7B0FA63
:1022A0006CE000203F4918231A46009101901E213E
:1022B0000A20FFF787FD1E210A2004F0F9FA012009
:1022C0003D4908703D48FFF79BFA57E0002036492A
:1022D00018231A46009101901E212820FFF772FD55
:1022E0001E21282004F0E4FA02203349087003E09C
:1022F00039E01AE004E02DE03048FFF781FA3DE0D4
:1023000000202A4918231A46009101901E214620D8
:10231000FFF758FD1E21462004F0CAFA0320264983
:1023200008702648FFF76CFA28E00020204918239F
:102330001A46009101901E216420FFF743FD1E21E3
:10234000642004F0B5FA04201B4908701B48FFF70D
:1023500057FA13E000221146012000F0C3FD154892
:10236000FFF74EFA0AE001F097F900221146022029
:1023700000F0B8FD1248FFF743FA00BF00BFFEBDF2
:10238000000020410000C642696E0000636D00003D
:10239000252E316625730000F00200202564257388
:1023A000000000000C780000547800009C780000C9
:1023B000E4780000512F000021000020C523000018
:1023C000253400007CB50446002C06D0082C76D0BD
:1023D0000B2C75D00C2C0DD10DE000208D49087010
:1023E00003220121084600F07DFD03220121104651
:1023F00000F078FD0CE188480078002801D1012028
:1024000000E000208449087082480078401C81491F
:10241000087082480078012806D002282FD00328AF
:102420005AD0042878D183E07A480078032808DB62
:10243000012001F0E3FA054600222946042001F0BC
:10244000B5FB7548007800280ED000207449182389
:102450001A46009101901E210A20FFF7B3FC1E21AD
:102460000A2004F025FA09E001206D4918231A46D4
:10247000009101901E210A20FFF7A4FC84E065482A
:102480000078032808DB012001F0B8FA0546002295
:102490002946052001F08AFB5F480078002810D00B
:1024A0000020604918231A46009101901E2128201F
:1024B000FFF788FC1E21282004F0FAF90BE065E004
:1024C0006BE00120574918231A46009101901E2104
:1024D0002820FFF777FC57E04E480078032808DBF8
:1024E000012001F08BFA054600222946062001F062
:1024F0005DFB4948007800280FD000204A49182386
:102500001A46009101901E214620FFF75BFC1E2118
:10251000462004F0CDF90AE035E0012042491823B5
:102520001A46009101901E214620FFF74BFC2BE03C
:1025300038480078032808D1012001F05FFA0546E9
:1025400000222946072001F031FB3348007800289B
:102550000ED00020354918231A46009101901E2103
:102560006420FFF72FFC1E21642004F0A1F909E08C
:1025700001202E4918231A46009101901E21642043
:10258000FFF720FC00E000BF00BF41E00020284929
:1025900008702848FFF734F93AE02048007801280D
:1025A00006D002280ED0032816D0042828D11DE01A
:1025B000012001F023FA054601222946042001F0FA
:1025C000F5FA1DE0012001F019FA0546012229461D
:1025D000052001F0EBFA13E0012001F00FFA0546A7
:1025E00001222946062001F0E1FA09E0012001F06C
:1025F00005FA054601222946072001F0D7FA00BF57
:1026000000BF00200A4908700B48FFF7F9F800BF27
:1026100000BF7CBD2D0000202C00002021000020E8
:102620000C780000547800009C780000E4780000EA
:102630001C00002095180000A538000010B5C04609
:10264000C04610BD10B5C046C04610BD1CB50446FE
:1026500021792068884231DA2068401C2060FFF729
:10266000BBF82068810020460830425890231B2187
:102670000A20FFF72FFC2179206888420AD1012027
:102680000F4906231022009101900A210846FFF706
:1026900099FB13E001200A490623102200910190C2
:1026A0000A210846FFF78EFB012006490623102267
:1026B0000091019032210A20FFF784FB1CBD00002D
:1026C00000780000F477000004484079002804D026
:1026D00002484088401C0149488070471201002090
:1026E00010B501F05FFC31480079002802D00128C4
:1026F0002BD112E02D488079002808D02B48807912
:102700002A498872012008710020488004E00020D6
:10271000264908714880487117E024488079234988
:10272000897A884211D101202049487108464088A1
:1027300008280ADD0846C079002806D0082048800D
:10274000002008700846807A487000BF174840781B
:1027500000281DD015484078144948720020487060
:102760000846407A032803D1092000F0E3FA1CE070
:102770000E48407A012803D10D2000F0DBFA14E066
:102780000A48407A022810D10E2000F0D3FA0CE05B
:102790000648007805494872002008700846407ACB
:1027A000002802D0487A00F0C5FA10BD12010020BE
:1027B0001CB50446230003F0ECFB0C07466482AB17
:1027C000ABABAB3DABAB9CAB04F0C2F800F0B0F8E8
:1027D000504802F091FA50494E48FFF7E6FB4D4849
:1027E000006881004B480830425890231B210A2082
:1027F000FFF770FB0D2001F001F946490968474ACF
:10280000515C88420AD1012045490C2310220091D5
:1028100001901B215A20FFF7D5FA05E027236A22F1
:102820001B215A20FFF7D0F803220121084600F0AF
:1028300059FB6DE000221146012000F053FB39489E
:10284000FEF7DEFF64E03348FEF7E8FF0D2001F0FD
:10285000D5F830490968314A515C88420AD10120D3
:102860002F490C231022009101901B215A20FFF7C1
:10287000A9FA05E027236A221B215A20FFF7A4F8B2
:1028800046E02448FFF7E2FE0D2001F0B7F82149A9
:102890000968224A515C88420AD1012020490C2350
:1028A0001022009101901B215A20FFF78BFA05E0BE
:1028B00027236A221B215A20FFF786F828E01548B3
:1028C0000068002804D0012803D002280ED109E0B6
:1028D00000BF10480068114A115C00220D2001F071
:1028E00065F904E00F48FEF78BFF00E000BF00BF72
:1028F0000EE008480068094A115C01220D2001F031
:1029000055F90120084908700848FEF779FF00BF13
:1029100000BF1CBD28040020A8000020F1790000A1
:102920001C770000253400001C000020A5380000A2
:102930000020024908600220087170472804002026
:1029400010B500F02BFA012204210020FFF7BAFB9A
:10295000642004F023F8002204211046FFF7B2FBA4
:10296000642004F01BF8012204210020FFF7AAFBD9
:102970000021EC4802F0E5FA002206211046FFF79C
:10298000A1FB00BF0421E74802F0BEFA0028F9D0FD
:10299000AE21E44802F0D1FA002206211046FFF7EA
:1029A00091FB00BF0421DF4802F0AEFA0028F9D005
:1029B0000021DC4802F0C1FA002206211046FFF790
:1029C00081FB00BF0421D74802F09EFA0028F9D00D
:1029D0001021D44802F0B1FA002206211046FFF778
:1029E00071FB00BF0421CF4802F08EFA0028F9D015
:1029F0004021CC4802F0A1FA002206211046FFF740
:102A000061FB00BF0421C74802F07EFA0028F9D01C
:102A10008121C44802F091FA002206211046FFF7F6
:102A200051FB00BF0421BF4802F06EFA0028F9D024
:102A3000CF21BC4802F081FA002206211046FFF7A0
:102A400041FB00BF0421B74802F05EFA0028F9D02C
:102A5000A121B44802F071FA002206211046FFF7C6
:102A600031FB00BF0421AF4802F04EFA0028F9D034
:102A7000C821AC4802F061FA002206211046FFF797
:102A800021FB00BF0421A74802F03EFA0028F9D03C
:102A9000A621A44802F051FA002206211046FFF7B1
:102AA00011FB00BF04219F4802F02EFA0028F9D044
:102AB000A8219C4802F041FA002206211046FFF7A7
:102AC00001FB00BF0421974802F01EFA0028F9D04C
:102AD0003F21944802F031FA002206211046FFF708
:102AE000F1FA00BF04218F4802F00EFA0028F9D055
:102AF000D3218C4802F021FA002206211046FFF76C
:102B0000E1FA00BF0421874802F0FEF90028F9D05D
:102B10000021844802F011FA002206211046FFF736
:102B2000D1FA00BF04217F4802F0EEF90028F9D065
:102B3000D5217C4802F001FA002206211046FFF759
:102B4000C1FA00BF0421774802F0DEF90028F9D06D
:102B50008021744802F0F1F9002206211046FFF7A7
:102B6000B1FA00BF04216F4802F0CEF90028F9D075
:102B7000D9216C4802F0E1F9002206211046FFF746
:102B8000A1FA00BF0421674802F0BEF90028F9D07D
:102B9000F121644802F0D1F9002206211046FFF726
:102BA00091FA00BF04215F4802F0AEF90028F9D085
:102BB000DA215C4802F0C1F9002206211046FFF735
:102BC00081FA00BF0421574802F09EF90028F9D08D
:102BD0001221544802F0B1F9002206211046FFF7F5
:102BE00071FA00BF04214F4802F08EF90028F9D095
:102BF000DB214C4802F0A1F9002206211046FFF724
:102C000061FA00BF0421474802F07EF90028F9D09C
:102C10004021444802F091F9002206211046FFF7B6
:102C200051FA00BF04213F4802F06EF90028F9D0A4
:102C300020213C4802F081F9002206211046FFF7CE
:102C400041FA00BF0421374802F05EF90028F9D0AC
:102C50000221344802F071F9002206211046FFF7E4
:102C600031FA00BF04212F4802F04EF90028F9D0B4
:102C70008D212C4802F061F9002206211046FFF751
:102C800021FA00BF0421274802F03EF90028F9D0BC
:102C90001421244802F051F9002206211046FFF7C2
:102CA00011FA00BF04211F4802F02EF90028F9D0C4
:102CB000A4211C4802F041F9002206211046FFF72A
:102CC00001FA00BF0421174802F01EF90028F9D0CC
:102CD000A621144802F031F9002206211046FFF720
:102CE000F1F900BF04210F4802F00EF90028F9D0D5
:102CF000AF210C4802F021F9002206211046FFF70F
:102D0000E1F900BF0421074802F0FEF80028F9D0DD
:102D1000AF21044802F011F903F01AFE012003F07C
:102D200043FF10BD0008004010B5FDF775FEFDF72C
:102D3000D3FE10BD10B50446230003F02AF90F0995
:102D40000A0B0C0D0E0F101F111E121D2120280042
:102D500000BF00BF00BF00BF00BF00BF00BF00BF7B
:102D600000BF00200B49488008800B4801682046BE
:102D7000884703F07DFE0BE000BF00BF00BF00BF2F
:102D8000054801682046884703F072FE00E000BF56
:102D900000BF10BD90090020F00000201CB50121EB
:102DA0001C2002F0C3FA0021684601708170C170D6
:102DB00006210020FFF70CF96A4606210020FFF7E4
:102DC00021F904210020FFF703F96A4604210020BD
:102DD000FFF718F9FFF7A8FF1CBD10B5C046C046A5
:102DE00010BD00000D488079002804D00B484088B1
:102DF000401C0A4948800948C079002804D0074887
:102E00000088401C054908800448807A002804D0C6
:102E100002488089401C0149888170479009002040
:102E200010B5C046C04610BD10B5C046C04610BD66
:102E300010B5C046C04610BD10B5C046C04610BD56
:102E40000146012904D0022919D0032944D12DE0DB
:102E500023488079002800D1704721484088204AC3
:102E60009288904209DB1E488079012805D1002014
:102E70001B4A508090710120EEE70020ECE71848D3
:102E8000C079002800D1E7E715480088144A128964
:102E9000904209DB1248C079012805D10020104A70
:102EA0001080D0710120D7E70020D5E70C48807A48
:102EB000002800D1D0E70A488089094AD289904287
:102EC00008DB0748807A012804D10020044A908159
:102ED0000120C1E70020BFE70020C043BCE700009D
:102EE0009009002010B5012804D0022812D0032830
:102EF00029D121E0002903D00123144CA37102E061
:102F00000023124CA37114235343104CA3800023BD
:102F1000638019E0002905D000230C4C2380012395
:102F2000E37102E00023094CE37128235343074C6B
:102F300023810023238007E00023044CA381234640
:102F40009972DA8100E000BF00BF10BD9009002037
:102F5000FEB50446230003F01CF80F09FDFCFBFA44
:102F6000F9F8F7DBF6F5DBDCF4F3DB0002F006FC46
:102F700003F0EEFC012000F041FD0546FDF70FFADD
:102F80000290B0490298FDF758F90290AE490298B4
:102F9000FDF7A2FA14D80E2000F030FD002801D071
:102FA000AAA000E0AAA007460298FDF76DFA054620
:102FB0002A460B46A7A1A948009702F0BFFF18E0D8
:102FC0000E2000F01BFD002801D0A0A000E0A0A072
:102FD00005460298FDF70CFA06462B463246A0A19C
:102FE0009E4802F0ABFF3923652219216020FEF7CD
:102FF000EBFC9023994A08214E20FEF76BFF01203D
:1030000099490E234022009101900A210846FEF7BB
:10301000D9FE082000F0F2FC002809D000209349D6
:1030200018231A46009101901E210A20FEF7CAFEBD
:103030008F48807B00280ED08D48C07B00280AD1A5
:1030400001208C4918231A46009101901E21282046
:10305000FEF7B8FE24E08648807B00280ED1844825
:10306000C07B00280AD00120834918231A4600910A
:1030700001901E212820FEF7A5FE11E07C48807BF0
:1030800000280DD07A48C07B002809D000207B4959
:1030900018231A46009101901E212820FEF792FE67
:1030A0000D2000F0ABFC002809D000207449182343
:1030B0001A46009101901E214620FEF783FE0B2048
:1030C00000F09CFC00280AD001206E4918231A4603
:1030D000009101901E216420FEF774FE0EE00C208A
:1030E00000F08CFC002809D00120674918231A46FB
:1030F000009101901E216420FEF764FE0A22012146
:103100000220FFF7EFFE082201210320FFF7EAFE6D
:1031100096E002F033FB012000F070FC0546FDF75D
:103120003EF9029047490298FDF787F80290464918
:103130000298FDF7D1F920D80E2000F05FFC0AE0DC
:103140003DE03DE073E05EE04BE049E047E045E014
:1031500064E033E031E0002801D03CA000E03CA076
:1031600007460298FDF790F905462A460B4639A115
:103170003A48009702F0E2FE18E00E2000F03EFC14
:10318000002801D031A000E031A005460298FDF7EB
:103190002FF906462B46324631A1304802F0CEFECA
:1031A0003923652219216020FEF70EFC90232B4A5B
:1031B00008214E20FEF78EFE42E000BF00BF00BF98
:1031C0000A2200210320FFF78DFE00221146022073
:1031D000FFF788FE2D48FEF713FB31E000BF00BF6C
:1031E00000BFE01E2A490870E0B200F007FC00288A
:1031F00000D125E0002211460220FFF773FE25488A
:10320000FEF7FEFA1CE000F047FA00221146022009
:10321000FFF768FE2048FEF7F3FA11E0002211469E
:103220000220FFF75FFE1D48FEF7EAFA08E00022E1
:1032300011460220FFF756FE1948FEF7E1FA00BFDB
:1032400000BFFEBD000020410000C642696E0000C4
:10325000636D0000252E316625730000F00200200A
:103260002564257300000000FC7000008C720000D3
:10327000F4000020947900004C79000044720000B2
:10328000FC7100006C710000B471000091470000F7
:103290001D000020A14A000025340000F12000009C
:1032A000494F000070B50446230002F072FE0C077F
:1032B0002C30349D9D9D9D239D9D769D03F048FB64
:1032C00000F0A8F8494801F017FD49494748FEF7C2
:1032D0006CFE4648006881004448083042589023FC
:1032E0001B210A20FEF7F6FD032201210846FFF705
:1032F000F9FD79E0002211460120FFF7F3FD3D487A
:10330000FEF77EFA70E03948FEF788FA6CE037483D
:10331000FFF79CF968E035480068002804D00128D0
:1033200021D0022836D131E0012000F067FB0546AC
:10333000032000F063FB3049097E002901D00421FD
:1033400000E00A214018854203D82C48FEF758FABD
:1033500008E0012000F052FB054600222946022029
:1033600000F024FC17E02448007E002802D0244806
:10337000244901E0002024490246FDF767F805468C
:1033800000222946022000F011FC04E01948FEF753
:1033900037FA00E000BF00BF26E001201B4908709B
:1033A00012480068002809D1012000F027FB0546DB
:1033B00001222946022000F0F9FB11E00E48007EB0
:1033C000002802D00E480F4901E000200E490246B5
:1033D000FDF73CF8054601222946022000F0E6FBF5
:1033E0000B48FEF70DFA00BF00BF70BD640400205B
:1033F000B400002025340000F400002095180000DF
:10340000666666666672A34000A08E401C000020BF
:10341000A5380000002002490860022008717047AA
:10342000640400201CB50446230002F0B2FD0F091D
:10343000406DC0ABACADAE37363636369D9C3600EF
:1034400003F086FA7F4801F057FC7F497D48FEF77C
:10345000ACFD7C48006881007A48083042589023CF
:103460001B210A20FEF736FD012078490623102291
:10347000009101900A210846FEF7A4FC012074493E
:10348000062310220091019032210A20FEF79AFCB7
:10349000032201210846FFF725FDD0E00022114656
:1034A0000120FFF71FFD6B48FEF7AAF9C7E0FEF702
:1034B00093F90120654906231022009101900A2109
:1034C0000846FEF77FFC0120614906231022009187
:1034D000019032210A20FEF775FC5A480068401E10
:1034E0005849086008460068002801DA0D20086085
:1034F00054480068810053480830425890231B21EB
:103500000A20FEF7E7FC9AE0FEF766F901204F4932
:1035100006231022009101900A210846FEF752FC72
:1035200001204B49062310220091019032210A20EC
:10353000FEF748FC43480068401C424908600846C2
:1035400000680979884202DD00203E4908603D4854
:10355000006881003B480830425890231B210A2014
:10356000FEF7B8FC6BE000BF0A2200210320FFF742
:10357000B9FC002211460220FFF7B4FC3648FEF7E2
:103580003FF95CE000BF00BF00BFE01E3349087098
:10359000E0B200F033FA002800D150E000221146DA
:1035A0000220FFF79FFC2E48FEF72AF947E0254846
:1035B0000068030002F0EDFC0E080C1014181C202B
:1035C00024282C3034383C402648FEF719F934E0E2
:1035D0002548FEF715F930E02448FEF711F92CE0F4
:1035E0002348FEF70DF928E02248FEF709F924E008
:1035F0002148FEF705F920E02048FEF701F91CE01C
:103600001F48FEF7FDF818E01E48FEF7F9F814E031
:103610001D48FEF7F5F810E01C48FEF7F1F80CE045
:103620001B48FEF7EDF808E01A48FEF7E9F804E059
:103630000848FEF7E5F800E000BF00BF00BF00BF8C
:103640001CBD0000FC0200203000002000780000BB
:10365000F4770000512F0000914700001D0000206A
:10366000A14A0000794D00001D410000AD1000008E
:10367000955D0000150F0000B1270000A90C0000A7
:10368000B5160000A5320000A9360000455B000019
:10369000B5440000E55C00000020024908600D20F0
:1036A00008717047FC02002070B50446230002F048
:1036B00070FC0C072C3034A0A0A0A023A0A079A0FF
:1036C00003F046F900F0AAF84B4801F015FB4B490E
:1036D0004948FEF76AFC48480068810046480830BF
:1036E000425890231B210A20FEF7F4FB03220121FC
:1036F0000846FFF7F7FB7CE0002211460120FFF7A8
:10370000F1FB3F48FEF77CF873E03B48FEF786F894
:103710006FE03948FEF79AFF6BE0374800680028F1
:1037200004D0012821D0022839D134E0012000F052
:1037300065F90546022000F061F93249097E002949
:1037400001D0042100E00A21401A854203D32E480B
:10375000FEF756F808E0012000F050F90546002277
:103760002946032000F022FA1AE02648007E0028AD
:1037700002D00020254901E0002025490246FCF73F
:1037800065FE054600222946032000F00FFA0020BE
:103790001C49C87304E01A48FEF732F800E000BF85
:1037A00000BF26E001201B4908701348006800286C
:1037B00009D1012000F022F9054601222946032003
:1037C00000F0F4F911E00F48007E002802D000203C
:1037D0000E4901E000200E490246FCF737FE05467F
:1037E00001222946032000F0E1F90B48FEF708F812
:1037F00000BF00BF70BD0000A0040020C00000207A
:1038000025340000F40000209518000000C07F401F
:10381000000069401C000020A5380000002002497B
:103820000860022008717047A004002010B500282D
:1038300019DA1A4A03071B0F083B9B089B00D25852
:103840008307DC0EFF23A3409A438B071B0E8407DC
:10385000E40EA3401A43114B0407240F083CA408AC
:10386000A4001A5118E00E4A03231B02D218830841
:103870009B00D2588307DC0EFF23A3409A438B079B
:103880001B0E8407E40EA3401A43054B03242402B5
:103890001B198408A4001A5110BD00001CED00E0A3
:1038A00000E100E01CB50446002C02D0082C23D116
:1038B00011E003F04DF80120104920231A46009131
:1038C000019014213220FEF77DFA012211461046A4
:1038D000FFF708FB10E0002211460120FFF702FB72
:1038E00007480078002803D00648FDF789FF02E06A
:1038F0000548FDF785FF00BF00BF1CBD9C7500009B
:103900001C00002025340000512F00001CB5044687
:10391000002C04D0082C0DD00C2C4AD120E0012220
:1039200011460320FFF7DEFA042201210846FFF7C3
:10393000D9FA3EE0002211460120FFF7D3FA012216
:1039400000210320FFF7CEFA1B48007FBB2803D1DC
:103950001A48FDF755FF02E01948FDF751FF28E02E
:103960001848007819281EDD16480078401E1549B1
:103970000870084600783C2801D101F015FF114875
:1039800000781E2801DC01F0F9FE02F0E1FF0120C1
:103990000D4910235822009101900A480178162001
:1039A000FEF710FA04E0012200210320FFF79AFA43
:1039B00000BF00BF1CBD0000F4000020B5420000A5
:1039C000512F00001E0000204C70000010B5C046B2
:1039D000C04610BD10B5C046C04610BD10B5C046AB
:1039E000C04610BD10B5C046C04610BD10B5C0469B
:1039F000C04610BD10B5C046C04610BD7CB50446DB
:103A0000230002F0C6FA13CA0B223950677E95AC28
:103A1000CAAFB2B5B8BBBEC1C4C7CA006048007E59
:103A200000280AD05E490888FCF7D4FC5D4A5E4B4A
:103A300001910090FCF740FC03E059490888FCF72D
:103A4000C9FC0546FCF702FD7CBD5548007E0028F8
:103A50000AD053494888FCF7BDFC524A524B0191A9
:103A60000090FCF729FC03E04D494888FCF7B2FCC4
:103A70000546FCF7EBFCE7E74948007E00280AD042
:103A800047498888FCF7A6FC464A474B01910090BD
:103A9000FCF712FC03E042498888FCF79BFC0546D2
:103AA000FCF7D4FCD0E73E48007E00280AD03C4911
:103AB000C888FCF78FFC3B4A3B4B01910090FCF718
:103AC000FBFB03E03649C888FCF784FC0546FCF79D
:103AD000BDFCB9E73248007E00280AD03049088989
:103AE000FCF778FC2F4A304B01910090FCF7E4FB87
:103AF00003E02B490889FCF76DFC0546FCF7A6FCA2
:103B0000A2E72748007E00280AD025494889FCF70B
:103B100061FC244A244B01910090FCF7CDFB03E0AB
:103B20001F494889FCF756FC0546FCF78FFC8BE7DC
:103B30001B48007E00280AD019498889FCF74AFCF6
:103B4000184A194B01910090FCF7B6FB03E01449A9
:103B50008889FCF73FFC0546FCF778FC74E71048C1
:103B6000008A71E70E48007D6EE70D48807D6BE7A7
:103B70000B48407D68E70A48C07D65E70848007E3D
:103B800062E70748807E5FE70548C07E5CE704483F
:103B9000407E59E70248407F56E7002054E7000086
:103BA000F40000209EEFA7C64B37D93F70B588B010
:103BB00006460C461546F0A207CA05AB07C3F148F6
:103BC000017C68464175EF48017D68468175ED4886
:103BD000417D6846C175EB48C17D68460176E9487C
:103BE000017E68464176E748408801126846817642
:103BF000E44881786846C176E248808801126846C8
:103C00000177E048017968464177DF480068049011
:103C1000330002F0BEF9100B090C5398C3F7F5F40A
:103C20000BF3F2F1F0EFEE0BD6490C80A1E1D54891
:103C3000007E002802D0D548D54909E0F521890049
:103C40008C4201D1012100E000210846FCF7AEFBC7
:103C50000022134603910290FCF72AFC03D00020B7
:103C6000C849887302E00120C6498873C548007EB0
:103C7000002809D02046FCF7ADFBC64AC64B01918F
:103C80000090FCF719FB02E02046FCF7A3FB039130
:103C90000290FCF7DBFB0446002D02D0B9494C80B2
:103CA0000BE05221BD48C1772004010E68468176A1
:103CB000C4760B2105A802F0DBFF5AE1B148007E73
:103CC000002802D00020B64907E0C82C01D101210C
:103CD00000E000210846FCF769FB0022134603912F
:103CE0000290FCF7E5FB03D00020A649C87302E070
:103CF0000120A449C873A348007E002809D02046AB
:103D0000FCF768FBA34AA44B01910090FCF7D4FA9E
:103D100002E02046FCF75EFB03910290FCF796FB65
:103D20000446002D02D097498C800BE052219B481D
:103D3000C1772004010E6846017744770B2105A85E
:103D400002F096FF15E159219448C1778D48007E15
:103D5000002809D02046FCF73DFB8E4A8E4B01918E
:103D60000090FCF7A9FA02E02046FCF733FB039130
:103D70000290FCF76BFB0446002D02D08149CC80F9
:103D80000BE00121684641742004010E68468174ED
:103D9000C474042104A802F06BFFEAE059217F48B3
:103DA000C1777848007E002809D02046FCF712FB36
:103DB000784A794B01910090FCF77EFA02E02046A8
:103DC000FCF708FB03910290FCF740FB0446002D32
:103DD00002D06C4804810BE0022168464174200443
:103DE000010E68468174C474042104A802F040FFE7
:103DF000BFE0BBE0ABE09BE08BE077E067E057E043
:103E00002BE0FFE759216548C1775E48007E002816
:103E100009D02046FCF7DEFA5E4A5F4B0191009024
:103E2000FCF74AFA02E02046FCF7D4FA039102902C
:103E3000FCF70CFB0446002D02D0524844810BE0F5
:103E40000321684641742004010E68468174C474DD
:103E5000042104A802F00CFF8BE059214F48C177E0
:103E60004848007E002809D02046FCF7B3FA494AAA
:103E7000494B01910090FCF71FFA02E02046FCF745
:103E8000A9FA03910290FCF7E1FA0446002D02D052
:103E90003C4884810BE00421684641742004010EF3
:103EA00068468174C474042104A802F0E1FE60E055
:103EB000002D02D033490C8208E052213748C177E7
:103EC00069464C750A2105A802F0D2FE51E0002D8A
:103ED00002D02C490C7508E052213048C177694660
:103EE0008C750A2105A802F0C3FE42E0002D02D025
:103EF000244884750CE052212848C1776846C07D6B
:103F00002043C1B26846C1750A2105A802F0B0FE7F
:103F10002FE0002D02D01B48447508E052211F48B5
:103F2000C1776946CC750A2105A802F0A1FE20E000
:103F3000002D02D01348C47508E052211748C177FC
:103F400069460C760A2105A802F092FE11E0002DC8
:103F500002D00C48047608E052211048C177694627
:103F60004C760A2105A802F083FE02E005498C7612
:103F700000BF00BF08B070BD52000000000000008C
:103F800000000000F4000020106E00006666666607
:103F90006672A34052B81E85EB5104403E010020DA
:103FA00000C07F4010B50020304988710C21FEF719
:103FB0001DF8002803D101202C49887154E000210C
:103FC0004020FEF713F8002803D10220274988710A
:103FD0004AE001214020FEF709F8002803D1032020
:103FE0002249887140E002214020FDF7FFFF0028B0
:103FF00003D104201D49887136E009210020FDF716
:10400000F5FF002803D10520184988712CE00A210A
:104010000020FDF7EBFF002803D10620134988712B
:1040200022E00B210020FDF7E1FF002803D107204B
:104030000E49887118E00D48408801280BDD0B48B7
:104040004088062807DA0020084948800846807A18
:1040500008700020087200200449487148704880A8
:10406000087101200872C87110BD00001201002003
:104070007CB50446230001F08CFF0C072D2E2C2864
:10408000292A2B3E3E3E313E02F062FC00221146C0
:104090000120FEF727FF0120184920231A4600912E
:1040A00001900F211E20FDF78DFE1120FFF7A6FCC9
:1040B00005462A4612A1144801F040FF9023124AF7
:1040C00017215020FDF706FF15E000BF00BF00BF1D
:1040D00000BF00BF00BF01F073FA0CE01220FFF731
:1040E0008DFC022803D10948FDF78AFB02E008484D
:1040F000FDF786FB00BF00BF7CBD00009C76000082
:104100004525303258000000F0020020B542000082
:10411000512F000010B5C046C04610BD1CB5044666
:10412000230001F036FF0C07466482AEAEAEAE3D12
:10413000AEAE9FAE02F00CFC00F0B4F8524800F0B6
:10414000DBFD52495048FDF730FF4F4800688100C1
:104150004D480830425890231B210A20FDF7BAFE33
:104160000A20FFF74BFC48490968494A515C8842DC
:104170000AD1012047490C231022009101901B21F4
:104180005A20FDF71FFE05E027236A221B215A2033
:10419000FDF71AFC032201210846FEF7A3FE70E09A
:1041A000002211460120FEF79DFE3B48FDF728FB4B
:1041B00067E03548FDF732FB0A20FFF71FFC324964
:1041C0000968334A515C88420AD1012031490C23E5
:1041D0001022009101901B215A20FDF7F3FD05E00C
:1041E00027236A221B215A20FDF7EEFB49E02648CF
:1041F000FEF72CFA0A20FFF701FC23490968244A3C
:10420000515C88420AD1012022490C2310220091DE
:1042100001901B215A20FDF7D5FD05E027236A22D6
:104220001B215A20FDF7D0FB2BE01748006800281F
:1042300006D0012805D0022804D003280FD10AE0B7
:1042400000BF00BF10480068114A115C00220A201C
:10425000FFF7ACFC04E01048FDF7D2FA00E000BF25
:1042600000BF0EE008480068094A115C01220A20DC
:10427000FFF79CFC0120094908700948FDF7C0FAC6
:1042800000BF00BF1CBD0000740300207C000020A4
:10429000E67900001C770000253400001C00002097
:1042A000A53800000020024908600320087170470B
:1042B000740300207CB504460B2C47D004DC002C92
:1042C00007D0082C2FD12FE00C2C79D00E2CF9D14F
:1042D00077E06B48007FBB2803D101206949087053
:1042E00002E000206749087000206549087702F065
:1042F0002FFB902364A21B211920FDF7EBFD00206A
:10430000634910231A46009101901B215A20FDF7A2
:1043100059FD002211460120FEF7E4FD002211465E
:104320000320FEF7DFFDA9E001F03EFA01F03CFAC0
:1043300001F03AFA01F038FA01F036FA0120514959
:10434000087000221146FEF7CDFD97E04D48007839
:10435000002802D0012831D105E0022201210846BF
:10436000FEF7C0FD2AE000204A4908704448007E5C
:10437000002802D04848494901E000204849024647
:10438000FCF764F80546002229460220FFF70EFCE0
:104390003B48007E002802D00020424901E0002076
:1043A00041490246FCF752F80546002229460320FF
:1043B000FFF7FCFB3D48FDF723FA00BF00BF5DE0BF
:1043C00035E030480078002803D0012001F0C8F91A
:1043D00001E001F0DBF936480078401C34490870F0
:1043E000022201210320FEF77DFD314800780A28D2
:1043F00006DA2B236A221B215A20FDF7E5FA15E085
:104400002B4800780A280EDB2948007814280ADA9D
:1044100000201F4910231A46009101901B215A20A9
:10442000FDF7D0FC02E000202149087026E020487A
:104430000078401C1E490870084600780A2806DAF1
:104440002B236A221B215A20FDF7BEFA15E01848DB
:1044500000780A280EDB1648007814280ADA0020B3
:104460000B4910231A46009101901B215A20FDF799
:10447000A9FC02E000200E49087000BF00BF7CBD0F
:10448000F4000020EC000020C7EBB3A4B0B400009F
:104490002C7900001C000020666666666672A340E8
:1044A00000A08E4000C07F4000006940A538000099
:1044B000EB0000201CB50446032C70D006DC002C59
:1044C00009D0012C36D0022C74D14FE0082C28D012
:1044D0000E2C6FD146E002F03BFA00F077F8364838
:1044E00000F00AFC35493448FDF75FFD32480068AA
:1044F000810031480830425890231B210A20FDF7E3
:10450000E9FC00202E4910231A46009101901B213E
:104510005A20FDF757FC002211460120FEF7E2FC6D
:1045200048E0002211460120FEF7DCFC2548FDF79B
:1045300067F93FE02048FDF771F91F48006800283F
:1045400009D11F4910231A46009101901B215A20BE
:10455000FDF738FC05E02B236A221B215A20FDF7CA
:1045600033FA27E01848FDF74BF923E01248FEF72D
:104570006DF811480068002809D1114910231A4626
:10458000009101901B215A20FDF71CFC05E02B2314
:104590006A221B215A20FDF717FA0BE0FFE70648B5
:1045A0000068012803D10748FDF72AF900E000BFA1
:1045B00000BF00BF00BF1CBD18050020D8000020B0
:1045C0002C79000025340000B5420000002002498B
:1045D000086001200871704718050020024608781D
:1045E0004B78984201D10120704708784300881C1D
:1045F000C05C10700878401CC0B20870C82801DB8D
:10460000002008700020EFE74A7853008A1CD0523F
:104610004A78521CD2B24A70C82A01DB00224A7082
:104620004A780B789A4207D10A78521CD2B20A70A3
:10463000C82A01DB00220A70704700001CB504463E
:10464000230001F0A6FC0D088384827E7F80818593
:104650009999992E9900022211462820FCF73CFCDA
:1046600002F076F93C2201210846FEF73BFC0122CC
:1046700011460320FEF736FC012040492023172273
:10468000009101900F210846FDF79CFB01203C4959
:1046900020231122009101900F215F20FDF792FB52
:1046A0006AE038480078002806D0012815D0022892
:1046B00024D0032842D132E0902333A20F212D20B1
:1046C000FDF708FC142201210320FEF70BFC2D4806
:1046D0000078401C2B49087031E090232AA20F215A
:1046E0004120FDF7F7FB142201210320FEF7FAFB1E
:1046F00024480078401C2349087020E0902322A21F
:104700000F215520FDF7E6FB142201210320FEF7BF
:10471000E9FB1C480078401C1A4908700FE01F2371
:104720005F220F212820FDF74FF9142201210320D9
:10473000FEF7D8FB00201349087000E000BF00BF5F
:104740001AE000BF00BF00BF00BF00BF00BF00BF36
:10475000022211460020FCF7BFFB00221146012077
:10476000FEF7C0FB002002F093F800200549087016
:104770000648FDF745F800BF00BF1CBD9477000058
:10478000347700002E0000203E000000512F000072
:10479000FEB505462B0001F0FCFB0F0984C36FFE3C
:1047A000FDFCFBFA786E6EF983C46E00AC48007EA7
:1047B000002802D0AB48AC4901E00020AB490246DA
:1047C000FBF744FEAA490880A548007E002802D0D5
:1047D000A848A94901E00020A8490246FBF736FE97
:1047E000A7490880A2490988A54A1288881A312158
:1047F000C943FBF7A3FC0646FBF7C6FDA1490860C9
:104800000020A149087002F0A3F80120FFF7F6F894
:104810009B490988401A0090FBF7C1FD074699485B
:1048200001683846FBF709FD06469849FBF7ACFCE2
:104830000190FBF7F6FDC4B223466F2200216C20E5
:10484000FDF7C2F837236F2221466C20FDF734F9BB
:104850000120FFF7D3F80746FBF7A1FD06463246D5
:104860001921322002F0C6F8FCF7A2FE0322012132
:104870000846FEF737FBF1E0002211460120FEF763
:1048800031FB8348FCF7BCFFE8E0FEF705FF0022A0
:1048900011460220FEF726FB7E48FCF7B1FFDDE063
:1048A00000BF032201210846FEF71CFB0422012160
:1048B0000320FEF717FB002000F052FF0120FFF756
:1048C0009DF80746FBF76BFD06463246192132205C
:1048D00002F090F80120FFF791F869490988401A21
:1048E0000090FBF75CFD0746664801683846FBF719
:1048F000A4FC66490190FBF747FC0646FBF791FDD7
:10490000C4B223466F2200216C20FDF75DF83723E7
:104910006F2221466C20FDF7CFF8FCF749FE9DE0A1
:1049200000BF032201210846FEF7DCFA0422012120
:104930000320FEF7D7FA012000F012FF0120FFF755
:104940005DF80746FBF72BFD06463246192132205B
:1049500002F050F80120FFF751F849490988471A39
:104960003846FBF71CFD0646464801683046FBF713
:1049700064FC46490090FBF707FC0190FBF751FDF2
:10498000C4B223466F2200216C2005E024E057E0EA
:1049900010E00EE00CE00AE0FDF716F837236F2276
:1049A00021466C20FDF788F8FCF702FE56E000BFB8
:1049B00000BF00BFE81E38490870E8B2FFF71EF8D4
:1049C000002800D14AE0002211460220FEF78AFAB0
:1049D0003248FCF715FF41E000F0D0FE0120FFF760
:1049E0000DF80746FBF7DBFC06463246192132205C
:1049F00002F000F80120FFF701F821490988471A61
:104A00003846FBF7CCFC00901E4801680098FBF785
:104A100014FC1E490190FBF7B7FB0646FBF701FDAE
:104A2000C4B223466F2200216C20FCF7CDFF372350
:104A30006F2221466C20FDF73FF8FCF7B9FD0DE031
:104A4000002211460320FEF74DFA002211460120F4
:104A5000FEF748FA0E48FCF7D3FE00BF00BFFEBDCC
:104A6000F40000209A9999999929864000209C4049
:104A7000280000203333333333B353400000694000
:104A80002A000020240000202000002000005C42BA
:104A9000512F0000253400001D000020A14A000015
:104AA000FEB505462B0001F074FA0C07ACADABB6B1
:104AB000B6B6B699B6B6A2B601F04AFF00221146C4
:104AC0000320FEF70FFA3C2201210846FEF70AFAFE
:104AD00052480078012806D0022817D0032828D091
:104AE00004284CD138E00420FEF788FF0646FBF787
:104AF00056FC044622461921322001F07BFF902308
:104B000047A208215020FDF7E5F938E00520FEF71F
:104B100075FF0646FBF743FC044622461921322066
:104B200001F068FF90233FA208215020FDF7D2F941
:104B300025E00620FEF762FF0646FBF730FC044640
:104B400022461921322001F055FF902336A2082178
:104B50005020FDF7BFF912E00720FEF74FFF064691
:104B6000FBF71DFC044622461921322001F042FFCA
:104B700090232EA208215020FDF7ACF900BF00BF02
:104B80000220FEF73BFF0746FBF709FC06462146DD
:104B9000FBF7A2FC0AD30320FEF730FF0746FBF722
:104BA000FEFB06462146FBF7A1FC03D22048FCF79A
:104BB00027FEFEBD1948007800F076FD01201D4952
:104BC00020231A460091019014210A20FDF7FAF8DB
:104BD0001E2201210846FEF785F91CE0002211463D
:104BE0000120FEF77FF91448FCF70AFE13E00022CB
:104BF00011460120FEF776F90F48FCF701FE0AE0A6
:104C000000BF00BF002211460120FEF76BF90A48E1
:104C1000FCF7F6FD00BF00BF00BFCAE71D00002083
:104C20004D3100004D3200004D3300004D34000086
:104C30006D4C00001C750000512F000010B5C046DF
:104C4000C04610BD10B5C046C04610BD10B5012A03
:104C500005D1036801248C402343036004E003680A
:104C600001248C40A343036010BD00001CB5044622
:104C7000230001F08EF90906282927232425262D53
:104C8000360001F065FE002211460120FEF72AF9E8
:104C90000120154920231A46009101900F211E2062
:104CA000FDF790F8902311A217215020FDF712F97B
:104CB000012211461046FEF715F912E000BF00BFB1
:104CC00000BF00BF00BF00BF0A48FCF799FD08E025
:104CD000002211460120FEF705F90648FCF790FD79
:104CE00000BF00BF1CBD00009C760000B3ACCFDE4F
:104CF00000000000512F00001CB504462068002869
:104D00000AD1012016490623102200910190322178
:104D10000A20FDF757F822E02179206888420AD15D
:104D20000120104906231022009101900A21084613
:104D3000FDF748F813E001200A49062310220091EC
:104D400001900A210846FDF73DF801200449062399
:104D500010220091019032210A20FDF733F81CBD8A
:104D6000F477000000780000002002490860042069
:104D700008717047380300201CB50446230001F079
:104D800008F90C07476685B2B2B2B23EB2B2A2B21F
:104D900001F0DEFDFFF7E8FF5448FFF7ADFF54498F
:104DA0005248FDF702F95148006881004F48083029
:104DB000425890231B210A20FDF78CF80820FEF7AB
:104DC0001DFE4A49096849004A4A515A88420AD197
:104DD000012049490C231022009101901B215A20E7
:104DE000FCF7F0FF05E027236A221B215A20FCF77D
:104DF000EBFD032201210846FEF774F873E0002260
:104E000011460120FEF76EF83C48FCF7F9FC6AE019
:104E10003648FCF703FD0820FEF7F0FD334909682A
:104E20004900344A515A88420AD1012032490C23A0
:104E30001022009101901B215A20FCF7C3FF05E0CE
:104E400027236A221B215A20FCF7BEFD4BE027488E
:104E5000FDF7FCFB0820FEF7D1FD24490968490055
:104E6000244A515A88420AD1012023490C23102296
:104E7000009101901B215A20FCF7A4FF05E0272395
:104E80006A221B215A20FCF79FFD2CE0174800687E
:104E9000030001F07EF8050405060711150000BFA8
:104EA00000BF00BF114800684000124A115A00229A
:104EB0000820FEF77BFE04E01048FCF7A1FC00E0B0
:104EC00000BF00BF0FE0094800684000094A115ABE
:104ED00001220820FEF76AFE0120094908700948EE
:104EE000FCF78EFC00BF00BF1CBD00003803002093
:104EF00068000020DC7900001C77000025340000E9
:104F00001C000020A53800000246906808400028D8
:104F100001D0012070470020FCE70246002010600D
:104F200008784B7818438B781843CB781843402384
:104F3000184310600020906070470246D160002046
:104F4000704741607047000010B50446230001F02F
:104F500020F80F091213110D0E0F101C1C1C1C1C25
:104F600015141C00002001F01FFE0EE000BF00BF62
:104F700000BF00BF00BF00BF00BF00BF012001F0A5
:104F800013FE0348FCF73CFC00BF00BF10BD00004F
:104F9000512F000010B5C046C04610BD70B5044684
:104FA00000252078030000F0F4FF0504050C10181C
:104FB0001C0018E0032000F035FA032000F0FCF993
:104FC00011E0032000F0D2F90DE00321084600F0C3
:104FD00037FA032000F000FA05E0072000F094F90A
:104FE00001E0042500BF00BF2078012100F00CF88B
:104FF000207800F001FA607800F05EF9A07800F007
:105000006FF9284670BD000070B505460C460026B5
:1050100000F088FF002C01D0012000E000200446B1
:105020002B0000F0B6FF05041731456276003B48BF
:10503000006840084000E107C90F0843374908608D
:1050400000BF002C05D03548C0680005C00F0028FF
:10505000F7D060E03248C068032108433049C86097
:105060002E48006802218843610002221140084353
:105070002A49086000BF002C05D028480069400676
:10508000C00F0028F7D046E0244800680421884378
:10509000A1000422114008432049086000BF002CF1
:1050A00005D01E484069C004C00F0028F7D032E088
:1050B0001B484038C0680321890308431849403918
:1050C000C8601648006808218843E10008221140A2
:1050D00008431249086000BF002C05D00F488069C2
:1050E0004006C00F0028F7D015E00C4800681021DA
:1050F000884321011022114008430849086000BF7D
:10510000002C05D00548C06B4003C00F0028F7D025
:1051100001E0042600BF00BF304670BD0020004003
:10512000C00D024030B589B000241422564904A8AD
:10513000FBF718F8544814300068039000200090E2
:105140000190029051480188684601814F4841888A
:105150006846C1804D488188684681804B48C18837
:1051600068464180494820300188684601804848A7
:1051700000680006450F2B0000F00BFF05042E30E1
:105180003E4178004248C0684005400D69460989A3
:10519000884201D1089C1EE03D48C0684005400D92
:1051A0006946C988884201D1079C14E03848C06824
:1051B0004005400D69468988884201D1069C0AE075
:1051C0003348C0684005400D69464988884201D18E
:1051D000059C00E0049C4BE02E4C49E068460088AA
:1051E0002B4949698905890D884202D16846C489DD
:1051F00001E0684684893BE00124E40338E0244868
:10520000C06B8007800F032829D168460089204998
:10521000C9684905490D884201D1089C20E06846CB
:10522000C0881B49C9684905490D884201D1079CBE
:1052300016E0684680881649C9684905490D8842C4
:1052400001D1069C0CE0684640881149C9684905AF
:10525000490D884201D1059C02E0049C00E00D4C00
:105260000B48C06BC005000F444301E0002400BFA1
:1052700000BF074800684005410F2046C84004466B
:10528000204609B030BD0000146E0000000C100074
:10529000002000400048E80110B50024FFF742FF5D
:1052A000044604480068C004810F2046C8400446F4
:1052B000204610BD0020004010B5044600F032FE2C
:1052C00006480068072109028843210207221202CA
:1052D0001140084301490860002010BD0020004033
:1052E00010B5044600F01EFE064800680321C902FE
:1052F0008843E1020322D2021140084301490860B9
:10530000002010BD0020004010B501460020064AD4
:10531000D26B0723DB039A43CB030724E403234028
:105320001A43014BDA6310BD0020004070B50446FB
:105330000D462A4621460248FFF788FC002070BD32
:105340002020004001464A00064BD2181288500522
:10535000400D054AD268D20AD2020243024BDA60FB
:1053600000207047000C10000020004010B50146DE
:105370000020064A526903239B029A438B020324AE
:10538000A40223401A43014B5A6110BD0020004083
:1053900001464A00064BD21812889005800D054A36
:1053A0005269920A92020243024B5A6100207047EE
:1053B000000C10000020004010B501460020054AF6
:1053C000126930239A430B01302423401A43014BC6
:1053D0001A6110BD0020004010B501460020054AAA
:1053E000926930239A430B01302423401A43014B26
:1053F0009A6110BD0020004070B504460025264685
:1054000000F090FD06480068E02188437101E02229
:10541000114008430249086000F02CF8284670BD8E
:105420000020004001460020044A126992089200C0
:105430008B079B0F1A43014B1A61704700200040F5
:1054400030B5024600200A4B9B690C24A34394000C
:105450000C252C402343064CA36123469B699B08E3
:105460009B008C07A40F2343014CA36130BD0000B7
:105470000020004010B5FFF755FE0149086010BD3F
:105480000000002010B5FFF7F5FF10BD10B5C046B5
:10549000C04610BD10B5C046C04610BD10B500F0E6
:1054A00011F810BD10B5C046C04610BD10B5C046BD
:1054B000C04610BD10B5C046C04610BD10B5C046B0
:1054C000C04610BD10B500210220FBF79BFE01284D
:1054D00009D1FDF787FCFDF7F7F8FBF7F1FC002198
:1054E0000220FBF781FE10BD10B5C046C04610BDBE
:1054F00010B500F001F810BD10B50021274800F0EC
:105500008CF8002848D00021244800F067F8234890
:1055100000F0C6F822490870224921480078FFF7B8
:1055200073F821480078002804D001280AD0022806
:1055300031D117E01A4800789B2802D101201A497E
:10554000087028E016480078184908700846007866
:10555000172803DC02201449087002E000201249D9
:10556000087018E011480078401E1049087008467D
:10557000007800280ED10A4800789D2807D10948F4
:105580002038807F401CC1B2064820388177002037
:105590000549087000BF00BF10BD000000010040B9
:1055A000140000205E0100201800002019000020D7
:1055B00010B50121014801F05BFB10BD3A700000FD
:1055C00010B55B210348C1770121034801F050FB6E
:1055D00010BD00003E0100203B70000070B5044685
:1055E0000D460022294620461430FFF72FFB0020ED
:1055F00070BD70B504460D4601222946201DFFF7F7
:1056000025FB002070BD70B504460D4601222946D9
:10561000201DFFF71BFB002070BD70B504460D4632
:105620000026294620461030FCF7B9FC06463046D5
:1056300070BD0000FEB505460C460127174903C999
:1056400001910090002C01D10420FEBD0020686073
:10565000608861780843A18808432178084368601E
:105660002078402802D02078C02813D1A088C11704
:10567000C90D0918491289006A46515A8EB2E2686A
:10568000B2401146A068FAF743FDA86104212846FC
:10569000FFF7AFFF00273846D7E700002C6E000069
:1056A00001460868C0B2704738B5044606A00068D5
:1056B00000906846447058210448C177022168462A
:1056C00001F0D6FA38BD0000580000003E0100206D
:1056D00070B504460D4600BF03212046FFF79DFF2D
:1056E0000028F9D02068000A0002E9B208432060CF
:1056F00000BF01212046FFF790FF0028F9D00121CB
:105700002046FFF76BFF002070BD000010B553214D
:105710000348C1770121034801F0AAFA10BD000037
:105720003E0100203570000010B554210348C177B8
:105730000121034801F09CFA10BD00003E01002049
:105740003670000010B555210348C1770121034888
:1057500001F08EFA10BD00003E01002037700000FD
:1057600038B5044604A000680090684644700221E1
:1057700001F07EFA38BD00005A00000010B501218A
:10578000014801F075FA10BD3470000010B55621C3
:105790000348C1770121034801F06AFA10BD0000F7
:1057A0003E0100203870000010B50121014801F0D1
:1057B0005FFA10BD3970000010B50446A07F503864
:1057C000030000F0E6FB0D08575F6C6D6E6F81A45F
:1057D000A5AFB7C4C800E07F604988762020005D8F
:1057E00008822120005D08752220015D5B4841751B
:1057F0002220005D04210840584988752320015D5E
:105800005648C1752420015D544801762520005D6D
:1058100000022621095D0843504948802720005D89
:1058200000022821095D08434C4988802920005D39
:1058300008772A20005D00022B21095D08434749B3
:10584000C8802C20005D00022D21095D08434349DA
:1058500008812E20005D00022F21095D08433F4989
:1058600048813020005D00023121095D08433B4939
:10587000888171E0E07F00022021095D08433749FB
:10588000088069E0A17F3F20005D814200D063E095
:1058900001203249C8760B20FDF74CFA5CE000BFCE
:1058A00000BF00BFA17F3F20005D814200D053E0D8
:1058B000E07F002801D0012000E000202749C876C1
:1058C0000B20FDF737FA47E0E07F002809D0E07FA2
:1058D00022494876012001F067F92148FBF790FF43
:1058E00012E02020005D012805D101F05DF91D487E
:1058F000FBF786FF08E02020005D022804D1022289
:1059000011461046FBF7E8FAFFF752FE24E000BF0D
:10591000A17F3F20005D814200D01DE00B20FDF7FC
:1059200009FA19E0E07F00022021095D08430B49D4
:10593000088011E0A17F3F20005D814200D00BE094
:10594000E07F064948770B20FDF7F4F904E00B20CF
:10595000FDF7F0F900E000BF00BF10BDF40000202B
:10596000714000003D460000F8B50446002000905C
:10597000002500263E20005D002800D1F8BD6846C5
:1059800001F0E0F9002804D100213E200155012555
:10599000BDE0684601783C20025D005D401CC3B25A
:1059A0003C200355A15460480078030000F0F1FA50
:1059B00005040C1F6F93AC00684600789B2802D149
:1059C000012059490870A0E06846007803280BDDE3
:1059D00068460078182807DA684600785349087046
:1059E00002205149087001E0012590E08DE0504807
:1059F000007800026946097808434D490880084646
:105A000000884C4988421DD1684602783D20005DDF
:105A1000401E21461E310A543C20005D434909784E
:105A200088420FD1002044490870684601784248F6
:105A300002780078401C404B187040488154032085
:105A4000394908703C20005D38490978884210D1F6
:105A50000020394908706846017837480278007894
:105A6000401C354B18703548815403202E4908706E
:105A70000CE0684600783D21095D3D22125D521C14
:105A8000D3B23D22135522461E3250543DE06846A3
:105A90000178294802780078401C274B1870274865
:105AA000815418460078022814D13D20005D411C25
:105AB000601CFBF761FD06462048007800021F4984
:105AC00049780843B04203D104201749087001E027
:105AD00001251CE019E0684600789D2811D1204678
